:0294C700502A29
:0294CB0095B357
:0294CD0095BF49
:0294D100895FB1
:0294D5007840DD
:0294D7007CB166
:0294D900885AAF
:0294DB0093A359
:0294DD00928D6E
:030000000286C0B5
:0C86C000787FE4F6D8FD75818B028707F7
:03000B00026B4342
:106B3E00C2AF80FE32C0E0E5D0541864087003D0B6
:106B4E00E032D0E0126B4285D00B75D008AAE0C2BD
:106B5E008CE58A240EF58AE58C34B8F58CD28CEC53
:106B6E002481F8E6BC0B0274FFC39581B414004077
:106B7E00BF790C786816E608700BC2AFE630E103F9
:106B8E004418F6D2AF08D9EDEA8BD022E50CFF23DC
:106B9E002469F80F0808BF0C047F007869E630E41A
:106BAE00F200E50CC39F5020050C7480250CF8E60E
:106BBE00FDA68108E6AE0CBE0B0274FFCDF8E86DA3
:106BCE0060E008E6C0E080F6E50CD39F4027E50CB8
:106BDE002481F8E6AE0CBE0B0274FFFD18E6CDF86C
:106BEE00E5816D6006D0E0F61880F5E50C2480C8CE
:106BFE00F6150C80D3E50C232469F87F04C2AFE6AA
:106C0E0030E00310E20C7F0030E10730E3047F0830
:106C1E0054F4547CC6D2AF54804207227880A681A9
:0F6C2E00740B6006FF0876FFDFFB7F0CE47868CD
:106C3D00F608F608DFFA786976309094C7740193F8
:106C4D00C0E0E493C0E0438901758A07758CB8D222
:076C5D008CD2AFD2A9220B7B
:107A15009001AEEBF0A3EAF0A3E9F0A3EDF090013D
:107A2500AEE0FBA3E0FAA3E0F9A3E0FF75F00BA439
:107A3500F58285F083E412330BEF75F00BA429F979
:107A4500EA35F0FA900001E4F5F01234799001B2CC
:107A5500E0FFA3E0900003CF8FF01234799000038C
:107A65001233D59001B130E124E075F00BA4FF90FD
:107A750001AEE0FBA3E0FAA3E02FF9EA35F0FAE95D
:107A85002403F9E43AFA1233AA44408022E075F05F
:107A95000BA4FF9001AEE0FBA3E0FAA3E02FF9EA07
:107AA50035F0FAE92403F9E43AFA1233AA54BFFF90
:107AB500E5F08FF012345A9001B1E075F00BA4FF98
:107AC5009001AEE0FBA3E0FAA3E02FF9EA35F0FA66
:107AD500900009740175F02C123479900007741721
:0F7AE50075F070123479900005E4F5F0023479F1
:0E494A009001AEEBF0A3EAF0A3E9F0A3EDF0CC
:10495800E075F00BA4FF9001AEE0FBA3E0FAA3E042
:104968002FF9EA35F0FA9000031233D5FDACF05474
:1049780001FBED5402FFE4C313EF139001B3F07E83
:1049880000ED54047802CEC313CE13D8F99001B5C4
:10499800F07E00ED54387803CEC313CE13D8F990C7
:1049A80001B4F0EB7003024FDC9001B1E0FF129408
:1049B800149001B2EFF09001B16024E075F00BA4FF
:1049C800FF9001AEE0FBA3E0FAA3E02FF9EA35F08F
:1049D800FAE92403F9E43AFA1233AA44408022E0BF
:1049E80075F00BA4FF9001AEE0FBA3E0FAA3E02F63
:1049F800F9EA35F0FAE92403F9E43AFA1233AA5449
:104A0800BFFFE5F08FF012345A9001B3E0601090C8
:104A180001B2E06004E4F080069001B27401F09005
:104A280001B4E06003024CAB9001AEE0FBA3E0FAF6
:104A3800A3E0F9A3E0FF75F00BA4F58285F08312DB
:104A48003299147003024AEF147003024BF42402E3
:104A58006003024CAB9001B2E0701A9001AEE0FB2B
:104A6800A3E0FAA3E0F975F00BEFA4F58285F083D3
:104A7800740112330B9001B1E075F00BA4FFAEF096
:104A88009001AEE0FBA3E0FAA3E02FF9EA3EFA902A
:104A98000001E4F5F01234799000051233D5D3946F
:104AA80000E5F0940040159001AEE0FBA3E0FAA306
:104AB800E02FF9EA3EFA900005024C8E9001B1E031
:104AC80075F00BA4FF9001AEE0FBA3E0FAA3E02F82
:104AD800F9EA35F0FAE92403F9E43AFA1233AAFFBD
:104AE800E5F054FB024CA69001B2E06003024BB91A
:104AF8009001B1E075F00BA4FF9001AEE0FBA3E0DC
:104B0800FAA3E02FF9EA35F0FA9000011233D5C381
:104B18009403E5F094005003024C229001B1E07533
:104B2800F00BA4FFAEF0E92403F9E43AFA1233AA31
:104B38004480FDE5F08DF012345A9001AEE0FBA3FD
:104B4800E0FAA3E02FF9EA3EFA900001E4F5F0124A
:104B580034799001B5E06011E92403F9E43AFA12D6
:104B680033AAFFE5F0440480289001B1E075F00B0A
:104B7800A4FF9001AEE0FBA3E0FAA3E02FF9EA3529
:104B8800F0FAE92403F9E43AFA1233AAFFE5F054FB
:104B9800FB8FF012345A9001AEE0FBA3E0FAA3E0D9
:104BA800F9A3E075F00BA4F58285F0837402024C3A
:104BB8005E9001B1E075F00BA4FF9001AEE0FBA39D
:104BC800E0FAA3E02FF9EA35F0FA900001E4F5F0F5
:104BD8001234799001AEE0FBA3E0FAA3E0F9A3E078
:104BE80075F00BA4F58285F083E4806A9001B2E049
:104BF80060699001B1E075F00BA4FF9001AEE0FB95
:104C0800A3E0FAA3E02FF9EA35F0FA900001123395
:104C1800D5C39403E5F094005009900001E475F0C1
:104C28000180679000071233D5FF900005E5F08FEB
:104C3800F0123479900009740175F02C12347990CF
:104C480001AEE0FBA3E0FAA3E0F9A3E075F00BA442
:104C5800F58285F083E412330B80489001B1E0754A
:104C6800F00BA4FF9001AEE0FBA3E0FAA3E02FF95C
:104C7800EA35F0FA9000091233D5D39400E5F094A0
:104C880000400C90000974FFF5F012340D8014E90F
:104C98002403F9E43AFA1233AAFFE5F044028FF04C
:104CA80012345A9001B4E064016003024E2E900160
:104CB800AEE0FBA3E0FAA3E0F9A3E0FF75F00BA4D4
:104CC800F58285F083123299146030147003024D16
:104CD8009624026003024E2E9001B2E0701A9001F1
:104CE800AEE0FBA3E0FAA3E0F975F00BEFA4F582C0
:104CF80085F083740112330B024E0C9001B2E07000
:104D08004E9001B1E075F00BA4FF9001AEE0FBA35B
:104D1800E0FAA3E02FF9EA35F0FA9000011233D552
:104D2800C39403E5F09400900001E45003024DC8D9
:104D3800F5F01234799001AEE0FBA3E0FAA3E0F9B4
:104D4800A3E075F00BA4F58285F083740280399096
:104D580001B1E075F00BA4FF9001AEE0FBA3E0FA0F
:104D6800A3E02FF9EA35F0FA900001E4F5F01234E7
:104D7800799001AEE0FBA3E0FAA3E0F9A3E075F0B7
:104D88000BA4F58285F083E412330B024E2E9001BA
:104D9800B2E060709001B1E075F00BA4FF9001AE35
:104DA800E0FBA3E0FAA3E02FF9EA35F0FA9000015E
:104DB8001233D5C39403E5F09400500C900001E43D
:104DC80075F00112340D805E9001AEE0FBA3E0FAAD
:104DD800A3E0F9A3E0FF75F00BA4F58285F083E466
:104DE80012330BEF75F00BA429F9EA35F0FAE92430
:104DF80003F9E43AFA1233AA4480FFE5F08FF0127F
:104E0800345A80229001B1E075F00BA4FF9001AEF6
:104E1800E0FBA3E0FAA3E02FF9EA35F0FA900001ED
:104E2800E4F5F01234799001B4E0640260030250B2
:104E3800299001AEE0FBA3E0FAA3E0F9A3E0FF7537
:104E4800F00BA4F58285F083123299146030147047
:104E580003024F48240260030250299001B2E07017
:104E68001A9001AEE0FBA3E0FAA3E0F975F00BEFAE
:104E7800A4F58285F083740112330B024FBA9001B6
:104E8800B2E06003024F0C9001B1E075F00BA4FF93
:104E98009001AEE0FBA3E0FAA3E02FF9EA35F0FABF
:104EA8009000011233D5C39403E5F0940050030237
:104EB8004F769001B1E075F00BA4FFAEF0E9240342
:104EC800F9E43AFA1233AA4480FDE5F08DF0123481
:104ED8005A9001AEE0FBA3E0FAA3E02FF9EA3EFA0C
:104EE800900001E4F5F01234799001AEE0FBA3E004
:104EF800FAA3E0F9A3E075F00BA4F58285F08374BA
:104F0800020250269001B1E075F00BA4FF9001AEAB
:104F1800E0FBA3E0FAA3E02FF9EA35F0FA900001EC
:104F2800E4F5F01234799001AEE0FBA3E0FAA3E0D7
:104F3800F9A3E075F00BA4F58285F083E40250260E
:104F48009001B2E0606C9001B1E075F00BA4FF90A5
:104F580001AEE0FBA3E0FAA3E02FF9EA35F0FA90FE
:104F680000011233D5C39403E5F09400500A900071
:104F780001E475F00102340D9001AEE0FBA3E0FA04
:104F8800A3E0F9A3E0FF75F00BA4F58285F083E4B4
:104F980012330BEF75F00BA429F9EA35F0FAE9247E
:104FA80003F9E43AFA1233AAFFE5F044018FF0025C
:104FB800345A9001B1E075F00BA4FF9001AEE0FB0C
:104FC800A3E0FAA3E02FF9EA35F0FA900001E4F53E
:104FD800F00234799001B1E075F00BA4FF9001AEB6
:104FE800E0FBA3E0FAA3E02FF9EA35F0FAE924039D
:104FF800F9E43AFA1233AAFFE5F054F8FEEF547FC9
:10500800FFEE8FF012345A9001AEE0FBA3E0FAA352
:10501800E0F9A3E075F00BA4F58285F083E4123380
:015028000B7C
:015029002264
:105E210002253032625830253034582530326258DC
:105E3100303030300002253032625831253034584C
:105E4100253032625830303030000225303262580D
:105E510032253034582530345825303458253034E3
:105E610058253034582530345825303458253034AD
:105E7100582530345825303458253034582530349D
:105E810058253032625825303262582530326258F6
:105E9100253034580025303162580025303262589F
:105EA1002530326258253032625825303458253039
:105EB1003262582530345825002530326258253059
:105EC10032625825303262582530326258253032DC
:105ED100625825303262582530326258253032629C
:105EE1005825303262582025303458253034582016
:105EF10030303030000225303262583330002563B3
:105F010000303030300002253032625834256300D1
:105F11000225303262583525303458303030300067
:105F210002253032625837253030303000022530BA
:105F31003262583E25303458253032625830303084
:105F410030000225303262583F2530345825303434
:105F51005830303030000225303262584625303416
:105F610058253032625830303030000225303262EC
:105F71005850253034582530326258253032625815
:105F81002530326258253032625825303262582528
:105F91003032625825303262582530326258303002
:105FA10030300002253032625851253034582530C6
:105FB100345800253032625800022530326258527E
:105FC1002530316258253034582530345825303445
:105FD10058253032625825303262582530326258A5
:105FE10025303262582530326258253032625825C8
:105FF10030326258253032625825303262582530AD
:10600100326258253032625825303262582530329A
:10601100625825303262582530326258253032625A
:106021005800253034582530345800253034580074
:1060310002253032625853253034582530345825E2
:106041003034580025303242580002FF2530345890
:106051000000C1814001C0804101C0804100C18177
:106061004001C0804100C1814000C1814001C08028
:106071004101C0804100C1814000C1814001C08017
:106081004100C1814001C0804101C0804100C18106
:106091004001C0804100C1814000C1814001C080F8
:1060A1004100C1814001C0804101C0804100C181E6
:1060B1004000C1814001C0804101C0804100C181D7
:1060C1004001C0804100C1814000C1814001C080C8
:1060D1004101C0804100C1814000C1814001C080B7
:1060E1004100C1814001C0804101C0804100C181A6
:1060F1004000C1814001C0804101C0804100C18197
:106101004001C0804100C1814000C1814001C08087
:106111004100C1814001C0804101C0804100C18175
:106121004001C0804100C1814000C1814001C08067
:106131004101C0804100C1814000C1814001C08056
:106141004100C1814001C0804101C0804100C18145
:106151004000C0C101C30302C2C60607C705C5C4CA
:1061610004CC0C0DCD0FCFCE0E0ACACB0BC909083A
:10617100C8D81819D91BDBDA1A1EDEDF1FDD1D1C7A
:10618100DC14D4D515D71716D6D21213D311D1D00A
:1061910010F03031F133F3F23236F6F737F53534AA
:1061A100F43CFCFD3DFF3F3EFEFA3A3BFB39F9F87A
:1061B1003828E8E929EB2B2AEAEE2E2FEF2DEDEC1A
:1061C1002CE42425E527E7E62622E2E323E121204A
:1061D100E0A06061A163A3A26266A6A767A565644A
:1061E100A46CACAD6DAF6F6EAEAA6A6BAB69A9A8BA
:1061F1006878B8B979BB7B7ABABE7E7FBF7DBDBCFA
:106201007CB47475B577B7B67672B2B373B1717089
:10621100B0509091519353529296565797559594E9
:10622100549C5C5D9D5F9F9E5E5A9A9B5B995958F9
:1062310098884849894B8B8A4A4E8E8F4F8D4D4C99
:106241008C448485458747468682424383418180C9
:01625100400C
:108084006040025C000000000000000000000000EE
:1080940000000000000000000000000000000000DC
:1080A40000000000000000000000000000000000CC
:1080B40000000000000000000000000000000000BC
:0B80C400000000004402580000000013
:0B8DBE00900171EBF0A3EAF0A3E9F0D4
:108DC9007F011295E9E4FBFA7D017F02126D44E40B
:108DD900900174F0A3F0900171E0FBA3E0FAA3E025
:108DE900F912950D900174E0FCA3E0FDC39FEC9E80
:108DF9005026900171E0FBA3E0FAA3E0F98D828C83
:108E090083123299FF129321900175E004F070C624
:088E1900900174E004F080BE3A
:018E2100222E
:0F957B007F011295E9E4FBFA7D017F02026D4446
:0A95D600E4FBFA7D017F02026D4400
:1081E200900005123299FF128256EFC454F09001AA
:1081F2006AF0A3E4F0900160E0FBA3E0FAA3E0F9E7
:10820200900006123299FF128256EFFE90016BE047
:108212002400F090016AE03EF0900160E0FBA3E0F0
:10822200FAA3E0F9900007123299FF128256EF7515
:10823200F010A4FFAEF090016BE02FF090016AE025
:108242003EF0900160E0FBA3E0FAA3E0900008F9A1
:04825200123299FF4C
:02825600AE0771
:10825800EEC39430400BEED394395005EE24D0FF92
:1082680022EEC39441400BEED394465005EE24C948
:10827800FF22EEC39461400BEED394665005EE24C2
:05828800A9FF22AF0672
:01828D0022CE
:1093F100EFC39400400CEFD39409500674302FFF53
:109401008010EFC3940A400AEFD3940F50047437CD
:029411002FFF2B
:019413002236
:0B7FD2009002DBEFF0A905AD03AC024C
:107FDD00C3740E9975F00C84FB7A00C3ED9BFEEC17
:107FED009AA3F0A3CEF07E00AF037C007D0C12337C
:107FFD002DEF29FFEC3ECF24FECF34FFA3F0A3EFEE
:10800D00F09002DBE0FF7E00A3E0FCA3E0FD2FFB80
:10801D00EE3CFAEDAE047802CEC313CE13D8F92B95
:10802D00FBEA3EFA9002DCE0FEA3E0FF7C007D64FB
:10803D0012333FC3EB9FFBEA9EFA9002DCE0FEA3F6
:10804D00E0FF7C017D9012333FEF2BFBEE3AFAA35C
:10805D00E0FEA3E0FF7C007D1F12332D7D0C12335B
:10806D003FEF2BFFEE3ACF2458CF341BFE7C007D23
:06807D000712333FAF05BE
:0180830022DA
:0892C00090016AFFE03400FE9A
:1092C800E4FDC3EE9408501FACD2EC5401F5D27003
:1092D800F7A2AF9214C2AF75D2028F828E83E0FDDF
:0992E800E4F5D2A21492AFAF0527
:0192F100225A
:0B8F8600EF2DFD90016AE0FEA3E0FF6C
:068F9100AB07AA06A905CA
:108F9700C3EA9408503C1292C8EF696035900220EA
:108FA700E5D2F0AFD2EF5401F5D270F7A2AF92132A
:108FB700C2AF75D202AE02AF038F828E83E9F0AFE4
:108FC700D2EF5401F5D270F7A21392AF900220E0CE
:028FD700F5D2D1
:018FD9002275
:08935000900231EEF0A3EFF0F2
:109358001292C8AB077A00900232E02401900231E1
:109368001292C3AD077C00EBFEE42DFBEC3EFEAF92
:0193780003F1
:0193790022D1
:1092F200900173ECF0A3EDF0900171EEF0FAA3EFA0
:01930200F07A
:10930300A3E0FDAE02128F91900174E0FD90017213
:0E931300E02401FF900171E03400FE028F9112
:108ED9009002E0EBF0A3EAF0A3E9F0A3ECF0A3ED34
:018EE900F098
:108EEA007FFF7DFF9002E3E07002A3E0603390020F
:108EFA00E4E024FFF09002E3E034FFF09002E0E0C7
:108F0A00FBA3E475F001123394A9F0FA1232806FD0
:108F1A00FB7A00906052936DFFEB90615293FD8053
:058F2A00C3EFFEEDFFA6
:018F2F00221F
:0B95CB00E41232F9900002ED02330BB5
:0B002E00900160EBF0A3EAF0A3E9F002
:10003900900003123299643060030200F490016069
:10004900E0FBA3E0FAA3E0F91281E290016BE02F53
:10005900F090016AE03400F07F017E001293509025
:10006900016AE06E7003A3E06F60030212D690018B
:1000790060E0FBA3E0FAA3E0F9900004123299646E
:1000890031602D900009128252EFC454F090016E34
:10009900F0900160E0FBA3E0FAA3E090000A12826D
:1000A9005190016EE02FF0E0FD7F047E00128F91E8
:1000B9007F047E001292C8A9077F01129350AA06F5
:1000C900AB077F037E001292C8900229EFF09002DD
:1000D90027EAF0A3EBF0900226E9F090022374FFDF
:1000E900F0A3745EF0A37421020CBB900160E0FBE5
:1000F900A3E0FAA3E0F99000031232996431703A4F
:100109007F04FE1292C8A9077F01129350AA06AB79
:10011900077F037E001292C8900229EFF090022710
:10012900EAF0A3EBF0900226E9F090022374FFF0C5
:10013900A3745EF0A37436020CBB900160E0FBA3CC
:10014900E0FAA3E0F99000031232996432600302E5
:10015900049590016E74FFF07F02129414EF7007FA
:1001690090016EE0547FF07F03129414EF700790B2
:10017900016EE054BFF0900163E0FBA3E0FAA3E055
:10018900F99000041235C59000241233D530E707E1
:1001990090016EE054DFF0E92424F9E43AFA1233CD
:1001A900AA547FFFE5F08FF012345A90016F74FF63
:1001B900F07F031290C5EF700790016FE0547FF054
:1001C9007F041290C5EF700790016FE054DFF07F54
:1001D900051290C5EF700790016FE054EFF09001A0
:1001E9007074FFF07F071290C5EF7007900170E0FF
:1001F90054FEF07F031290C5EF7007900170E05430
:10020900FDF0E490016AF0A3F0FFFE7DC87C429006
:100219000258E0F8A3E0F9A3E0FAA3E0FB122FA249
:10022900900258501EE0FCA3E0FDA3E0FEA3E0FF0E
:100239007BCD7ACC79CC783D122D0B9002581235B2
:10024900388007123544000000007F047E001292B6
:10025900C8900226EFF090022374FFF0A3745EF0B9
:10026900A3744BF0E4FF7DC87C42900064E0F8A3DE
:10027900E0F9A3E0FAA3E0FB122DFC7B007A4079B8
:100289009C7845122D0B12304D900227EEF0A3EF0A
:10029900F0E4FFFE7DC87C42900068E0F8A3E0F935
:1002A900A3E0FAA3E0FB122DFC12304D900229EED7
:1002B900F0A3EFF0E4FFFE7DC87C4290009BE0F8DC
:1002C900A3E0F9A3E0FAA3E0FB122DFC7B007A403E
:1002D900799C7845122D0B12304D90022BEEF0A32C
:1002E900EFF0E4FFFE7DC87C4290009FE0F8A3E0B8
:1002F900F9A3E0FAA3E0FB122DFC12304D90022D78
:10030900EEF0A3EFF0A37413F0A37488F0E4A3F064
:10031900A3F0A37413F0A37488F0E4A3F0A3F0A3EB
:100329007413F0A37488F0E4A3F0A3F0A37413F09A
:10033900A37488F0E4A3F0A3F090016EE090023F6B
:10034900F090016FE0900240F0900170E09002415E
:10035900F0E4A3F07B017A02795C12559D12859A2B
:10036900900170EFF07F0E7E001292C890016EEF3F
:10037900F090022374FFF0A3745EF0A37496F0EF7B
:10038900540FA3F07B017A02795C12559D1288E023
:10039900900170EFF07FE87E031292C8128256EF47
:1003A900C454F0FB7FE97E031292C8128256EF2BE8
:1003B900FB7F0F7E001292C8AA077F161292C8907F
:1003C9000228EFF0900227EAF0900226EBF0900263
:1003D9002374FFF0A3745EF0A3749CF0E4900229E7
:1003E900F0A3F0A3F07B017A02795C12559D90018C
:1003F9006BE02FF090016AE03EF090016E74FFF01F
:100409007F021290C5EF700790016EE054FEF07FF5
:10041900011290C5EF700790016EE054FDF0E4FF02
:100429001290C5EF700790016EE054FBF01288EC52
:10043900900170EFF090022374FFF0A3745EF0A3B3
:1004490074BAF0E4A3F0A3F0A3F0A3F090016EE076
:1004590090022AF0E4A3F0A3F0A3F0900163E0FB7B
:10046900A3E0FAA3E0F990002E12329990022EF03F
:1004790090008EE0FFA3E090022FCFF0A3EFF09061
:1004890000C5E0FFA3E09002310211B4900160E0E1
:10049900FBA3E0FAA3E0F9900003123299643360F8
:1004A900030206BE900004123299FFB4310890018C
:1004B9006F7431F08010EFB4300990016F7430F02F
:1004C9000205CE020771E490016AF0A3F090016081
:1004D900E0FBA3E0FAA3E0F990016AE0FEA3E0FFE4
:1004E900F5828E831232996403601090016BE004E7
:1004F900F070DA90016AE004F080D2C3EF9438EE2C
:10050900940040BF90016CE4F0A37435F090016A47
:10051900E0FEA3E0FFA3E0FCA3E0FDD39FEC9E5027
:1005290026900160E0FBA3E0FAA3E0F98D828C83B9
:10053900123299646B601590016DE0241DF09001F1
:100549006CE03400F080C67F05020A90900163E0F8
:10055900FBA3E0FAA3E0F99000041235C5E9240EE3
:10056900F9E43AFA1233AA4480FFE5F08FF0123425
:100579005A90016CE4F0A37405F090016BE024FE3D
:10058900FF90016AE034FFFE90016CE0FCA3E0FDFE
:100599006F7002EC6E602EED24E3FFEC3403FE90E5
:1005A9000160E0FBA3E0FAA3E0F98D828C831232AB
:1005B90099FD128F9190016DE004F070BD90016C6E
:1005C900E004F080B5E490016CF0A3F090016CE0D8
:1005D900FEA3E0FF64E64E6029D3EF9412EE940087
:1005E9004010EF24E8FFEE3403FE1292C8EF646B6B
:1005F900601590016DE004F070D290016CE004F098
:1006090080CA7F08020A90E490016AF0A3F07F048F
:10061900FE1292C8900226EFF090022374FFF0A315
:10062900745EF0A374F6F07B017A02795C12559D31
:1006390012859A900170EFF0E490016CF0A3F090AC
:10064900016CE0FEA3E0FF64E64E6059EF24E8FF89
:10065900EE3403FE1292C890016EEFF090022374FB
:10066900FFF0A3745EF0A374FFF0A3EFF07B017AAF
:1006790002795C12559D1288E0900170EFF0D390D9
:10068900016DE0941290016CE09400400890016EB5
:10069900E0646B601090016DE004F070A290016C51
:1006A900E004F0809A90022374FFF0A3745FF0A332
:1006B90074020211B8900160E0FBA3E0FAA3E0F92B
:1006C9009000031232996434600302079A9000047F
:1006D90012329924CF603714606124026003020743
:1006E90071900163E0FBA3E0FAA3E0F99000041222
:1006F90035C5E9240EF9E43AFA1233AA4480FFE534
:10070900F08FF012345A90016F7430F0805F9001CD
:1007190063E0FBA3E0FAA3E0F99000041235C5E910
:10072900240EF9E43AFA1233AA4480FFE5F08FF077
:1007390012345A90016F7431F08032900163E0FBFA
:10074900A3E0FAA3E0F99000041235C5E92403F9FE
:10075900E43AFA1233AA4480FFE5F08FF012345AD2
:1007690090016F7432F080057F04020A907F047E45
:10077900001292C8900226EFF090022374FFF0A3B2
:10078900745FF0A37407F090016FE0900227020CE8
:10079900BB900160E0FBA3E0FAA3E0F9900003122B
:1007A90032996435705E900004128252EF75F01030
:1007B900A4FF90016AE5F0F0A3EFF0900160E0FB7F
:1007C900A3E0FAA3E0F990000512825290016BE0D0
:1007D9002FF090016AE03400F07F047E001292C885
:1007E900900226EFF090022374FFF0A3745FF0A348
:1007F9007411F090016AE0FFA3E0900227CFF0A303
:10080900EF020CBB900160E0FBA3E0FAA3E0F990D2
:1008190000031232996437702190013104F07F048A
:100829007E001292C8900226EFF090022374FFF026
:10083900A3745FF0A37421020CBB900160E0FBA3D9
:10084900E0FAA3E0F9900003123299643E600302D2
:1008590009121281E290016BE02FF090016AE034F5
:1008690000F0900160E0FBA3E0FAA3E0F990000436
:100879001232996431701F900009128252EFC454E8
:10088900F0FD900160E0FBA3E0FAA3E0F990000A13
:10089900128252128F867F047E001292C8AB079093
:1008A900016AE0FEA3E0FF1292C8900229EFF090DE
:1008B9000226EBF090022374FFF0A3745FF0A37497
:1008C9002EF090016AE0FFA3E0900227CFF0A3EF9A
:1008D900F07B017A02795C12559D127E5A7B017A6E
:1008E90002795C128DBE90016AE0FEA3E0FF6428E4
:1008F9007003EE6423600BEF7003EE6490600302F3
:1009090012D6E4F5C0C2AD80FE900160E0FBA3E021
:10091900FAA3E0F9900003123299643F6003020AD6
:100929003D1281E290016BE02FF090016AE0340002
:10093900F0D3A3E094FE90016AE0940740307F046D
:100949007E001292C8900226EFF090022374FFF005
:10095900A3745FF0A37443F090016AE0FFA3E090F1
:100969000227CFF0A3EFF0E4A3F0A3020A3090012D
:1009790060E0FBA3E0FAA3E0F99000041232996465
:1009890031706790000A128252EF7D00FC9001607D
:10099900E0FBA3E0FAA3E0F9900009128252EFC448
:1009A90054F0FEED2400FDEE3CFC900160E0FBA359
:1009B900E0FAA3E0F990000B128252EF75F010A44F
:1009C9002DFDE5F03CFC900160E0FBA3E0FAA3E01B
:1009D900F990000C1282527E00ED2FFDEE3CFC9046
:1009E900016AE0FEA3E0FF1292F27F047E001292F8
:1009F900C8A90790016AE0FEA3E0FF129350900294
:100A090029EEF0A3EFF0900226E9F090022374FF9B
:100A1900F0A3745FF0A37443F090016AE0FFA3E0D0
:100A2900900227CFF0A3EFF07B017A02795C12558F
:100A39009D0212C3900160E0FBA3E0FAA3E0F990E4
:100A4900000312329964466003020B62900004129B
:100A590032996431702F90000512329964317025F2
:100A6900900006123299B4301C900007123299B4E2
:100A79003413900008123299B4370A9000091232DF
:100A890099643960077F027E0002937A900160E0E1
:100A9900FBA3E0FAA3E0F990000B128252EF900158
:100AA9006AF0A3E4F0900160E0FBA3E0FAA3E0F9A7
:100AB90090000C128252EF75F010A4FFAEF0900175
:100AC9006BE02FF090016AE03EF0900160E0FBA33B
:100AD900E0FAA3E0F990000D12825290016BE02F29
:100AE900F090016AE03400F0900160E0FBA3E0FAC5
:100AF900A3E0F990000A1232996431701F90000E38
:100B0900128252EFC454F0FD900160E0FBA3E0FAB9
:100B1900A3E0F990000F128252128F867F047E00A3
:100B29001292C8AB0790016AE0FEA3E0FF1292C8D7
:100B3900900229EFF0900226EBF090022374FFF067
:100B4900A3745FF0A37457F090016AE0FFA3E090EB
:100B59000227CFF0A3EF020CBB900160E0FBA3E0FA
:100B6900FAA3E0F990000312329964506003020C71
:100B7900C81281E290016BE02FF090016AE0340025
:100B8900F0900160E0FBA3E0FAA3E0F99000041201
:100B990032996431706D90016EF090016EE0FF64DE
:100BA900086060900160E0FBA3E0FAA3E0F975F04A
:100BB90002EFA42409F582E435F0F583128252EF9D
:100BC900C454F0FD900160E0FBA3E0FAA3E0F990C2
:100BD900016EE075F002A4240AF582E435F0F5838C
:100BE900128252EF2DFD90016EE0FF90016BE02F14
:100BF900FF90016AE03400FE128F9190016EE004CB
:100C0900F080977F047E001292C8C00790016AE0C5
:100C1900FEA3E0FF1292C8C00790016BE024011205
:100C290092C0C00790016BE024021292C0C00790E5
:100C3900016BE024031292C0C00790016BE0240409
:100C49001292C0AB0790016BE024051292C0AA076B
:100C590090016BE024061292C0A90790016BE02471
:100C6900071292C0900230EFF090022FE9F0900243
:100C79002EEAF090022DEBF090022CD0E0F09002D9
:100C89002BD0E0F090022AD0E0F0900229D0E0F0D9
:100C9900900226D0E0F090022374FFF0A3745FF075
:100CA900A3746CF090016AE0FFA3E0900227CFF0F3
:100CB900A3EFF07B017A02795C12559D0212C39071
:100CC9000160E0FBA3E0FAA3E0F990000312329976
:100CD90064516003020F051281E290016BE02FF06D
:100CE90090016AE03400F0900160E0FBA3E0FAA310
:100CF900E0F9900009128252EFC454F090016CF0AF
:100D0900A3E4F0900160E0FBA3E0FAA3E0F990000E
:100D19000A128252EFFE90016DE02400F090016CFE
:100D2900E03EF0900160E0FBA3E0FAA3E0F9900057
:100D39000B128252EF75F010A4FFAEF090016DE036
:100D49002FF090016CE03EF0900160E0FBA3E0FA27
:100D5900A3E0F990000C12825290016DE02FF090FF
:100D6900016CE03400F0900160E0FBA3E0FAA3E03D
:100D7900F990000412329964316003020E1A90014D
:100D890066F0A3F090016CE0FEA3E0FF900166E03D
:100D9900FCA3E0FD6F7002EC6E6076ED25E0FFECE0
:100DA90033FEEF240DFFE43EFE900160E0FBA3E07B
:100DB900FAA3E0F98F828E83128252EFC454F0FDB8
:100DC900900167E025E0FF900166E033FEEF240E15
:100DD900FFE43EFE900160E0FBA3E0FAA3E0F98F97
:100DE900828E83128252EF2DFD900166E0FEA3E010
:100DF900FF90016BE02FFF90016AE03EFE128F9198
:100E0900900167E004F07006900166E004F0020DBD
:100E19008DE4900168F0A3F07F04FE1292C890025D
:100E290026EFF090022374FFF0A3745FF0A374A47B
:100E3900F090016AE0FFA3E0900227CFF0A3EFF062
:100E490090016CE0FFA3E0900229CFF0A3EFF07BC3
:100E5900017A02795C12559D900169E02FF09001A9
:100E6900681285A3900170EFF0E4900166F0A3F099
:100E790090016CE0FEA3E0FF900166E0FCA3E0FDB9
:100E89006F7002EC6E604F90016BE02DFF90016A6C
:100E9900E03CFE1292C890016FEFF090022374FFBC
:100EA900F0A3745FF0A374B4F0A3EFF07B017A02AE
:100EB900795C12559D900169E02FF09001681288C4
:100EC900E9900170EFF0900167E004F070A29001E1
:100ED90066E004F0809A90022374FFF0A3745FF037
:100EE900A37402F07B017A02795C12559D90016925
:100EF900E02FF0900168E03EF00212C3900160E03B
:100F0900FBA3E0FAA3E0F99000031232996452605E
:100F1900030211DC90016AF0A3F0900004128252DE
:100F290090016EEFF0D394014002E4F07F047E005B
:100F39001292C8900226EFF090022374FFF0A37476
:100F49005FF0A374BAF090016EE0900227F075F09B
:100F590037A42464F582E43400F583E0FCA3E0FDC2
:100F6900A3E0FEA3E0FFE4FBFA79C87842122DFC66
:100F79007B007A40799C7845122D0B12304D9002F6
:100F890028EEF0A3EFF090016EE075F037A4246825
:100F9900F582E43400F583E0FCA3E0FDA3E0FEA3C1
:100FA900E0FFE4FBFA79C87842122DFC12304D902B
:100FB900022AEEF0A3EFF090016EE0FF75F037A47E
:100FC900248EF582E43400F583E0FDA3E090022C41
:100FD900CDF0A3EDF0EF75F037A42478F582E43471
:100FE90000F583E090022EF090016EE075F037A4D1
:100FF9002479F582E43400F583E090022FF0EF754F
:10100900F037A4247AF582E43400F583E0900230C5
:10101900F090016EE075F037A4247BF582E434008A
:10102900F583E0900231F0EF75F037A4247CF58266
:10103900E43400F583E0900232F090016EE075F03F
:1010490037A4247AF582E43400F583E0900233F082
:10105900EF75F037A4247DF582E43400F583E09040
:101069000234F090016EE075F037A4247EF582E435
:101079003400F583E0900235F0EF75F037A4247F52
:10108900F582E43400F583E0900236F090016EE0D9
:1010990075F037A42480F582E43400F583E09002EA
:1010A90037F0EF75F037A42481F582E43400F58335
:1010B900E0900238F090016EE075F037A42482F5D3
:1010C90082E43400F583E0900239F0EF75F037A43B
:1010D9002483F582E43400F583E090023AF090012C
:1010E9006EE075F037A42492F582E43400F583E0CC
:1010F90090023BF0EF75F037A42493F582E43400B5
:10110900F583E090023CF090016EE075F037A4247D
:1011190094F582E43400F583E090023DF07B017A96
:1011290002795C12559D12859A900170EFF0900238
:101139002374FFF0A37460F0A37423F090016EE0B0
:10114900FF75F037A4248AF582E43400F583E0FDC5
:10115900A3E0900226CDF0A3EDF0EF75F037A424BB
:101169008CF582E43400F583E0FFA3E0900228CFF8
:10117900F0A3EFF07B017A02795C12559D1288E0A9
:10118900900170EFF090022374FFF0A37460F0A354
:10119900742CF090016EE075F037A42490F582E488
:1011A9003400F583E0FFA3E0900226CFF0A3EFF02F
:1011B9007B017A02795C12559D90016BE02FF090CA
:1011C900016AE03EF07B017A02795C900170E0FDF2
:1011D9000272FE900160E0FBA3E0FAA3E0F990003F
:1011E90003123299645360030212CF90016AF0A38B
:1011F900F07F04FE1292C8900226EFF090016AA3D4
:10120900E0245CF9E43402FA7B0190022374FFF0D4
:10121900A37460F0A37431F0906F5EE493FF7401DE
:1012290093900227CFF0A3EFF0906F60E493FF74DF
:101239000193900229CFF0A3EFF0906F62E493FF3E
:1012490074019390022BCFF0A3EFF012559D9001FA
:101259006BE02FF090016AE03EF0E4900168F0A3A2
:10126900F07BFF7A6F795812950D900168E0FCA325
:10127900E0FDC39FEC9E5042A3A3E0245CF9E43453
:1012890002FA7B0190022374FFF0A3745EF0A37449
:10129900FFF0ED906F5893900226F012559D900142
:1012A9006BE02FF090016AE03EF0900169E004F0F4
:1012B90070AF900168E004F080A7127E5A7B017A32
:0D12C90002795C028DBE7F027E0012937AD6
:0112D60022F5
:067E5A007B017A02795C55
:0B7E6000900171EBF0A3EAF0A3E9F041
:107E6B00E4A3F0FFFEA3F0A3F012950D900175EEC5
:107E7B00F0A3EFF07E007F01900175E06E7003A31D
:107E8B00E06F6020900171E0FBA3E0FAA3E0F98FB3
:107E9B00828E83123299FD900174E02DF00FBF009A
:107EAB00010E80D490022374FFF0A37460F0A374CE
:107EBB0045F0900174E0900226F07B017A0179770E
:107ECB0012559D900177E0FF900171E0FBA3E0FA62
:107EDB00A3E0F9900175E0FCA3E0FDF5828C83EF44
:107EEB0012330B900178E08D828C83A312330B90AD
:107EFB000175E0FEA3E0FFF5828E83A3A37403124A
:0D7F0B00330B8F828E83A3A3A3E402330BFC
:10859A0090016BE02FF090016AE03EF07B017A02D5
:0485AA00795CE4FD17
:0E85AE00900171EBF0A3EAF0A3E9F0A3EDF069
:1085BC00E4A3F0A3F012957B900171E0FBA3E0FA29
:1085CC00A3E0F9123280FF129321900175E4F0A31D
:1085DC0004F0900171E0FBA3E0FAA3E0F912950D11
:1085EC00900175E0FCA3E0FD6F7002EC6E602C90C6
:1085FC000171E0FBA3E0FAA3E0F98D828C831232C7
:10860C0099FF900174E02FF0129321900176E00411
:10861C00F070BF900175E004F080B7900174E0FF3A
:01862C00222B
:1072FE00900174EDF0900171EBF0A3EAF0A3E9F0C8
:10730E00E4900175F0A3F0A3F0A3F012950D900197
:10731E0077EEF0A3EFF0E4900175F0A3F090017713
:10732E00E0FEA3E0FF900175E0FCA3E0FD6F7002AC
:10733E00EC6E602C900171E0FBA3E0FAA3E0F98DF6
:10734E00828C83123299FF900174E02FF0129321F8
:10735E00900176E004F070C5900175E004F080BDF8
:10736E0090022374FFF0A37460F0A37445F09001B3
:10737E0074E0900226F07B017A01797912559D9086
:10738E000179E0FF900171E0FBA3E0FAA3E0F99030
:10739E000177E0FCA3E0FDF5828C83EF12330B8DB9
:1073AE00828C83123299FF12932190017AE0FF9022
:1073BE000171E0FBA3E0FAA3E0F9900178E024016B
:1073CE00FD900177E03400FC8D82F583EF12330BD4
:1073DE008D828C83123299FF129321900171E0FB02
:1073EE00A3E0FAA3E0F9900178E02402FF90017780
:1073FE00E03400FE8F82F583740312330B8F828E7E
:10740E0083123299FF129321900171E0FBA3E0FAEF
:10741E00A3E0F9900178E02403FF900177E03400B7
:08742E008F82F583E402330BA9
:1088E00090016BE02FF090016AE03EF07B017A028C
:0788F000795C900170E0FDCE
:0E88F700900171EBF0A3EAF0A3E9F0A3EDF01D
:10890500E4A3F0A3F0900175F0A3F0900171E0FBF2
:10891500A3E0FAA3E0F912950D900175E0FCA3E040
:10892500FD6F7002EC6E602C900171E0FBA3E0FA24
:10893500A3E0F98D828C83123299FF900174E02FA8
:10894500F0129321900176E004F070BF900175E07C
:0989550004F080B7900174E0FF0A
:01895E0022F6
:10937A0090022374FFF0A37460F0A3744BF0A3EE81
:10938A00F0A3EFF07B017A02795C12559D127E5AA6
:09939A007B017A02795C028DBEB0
:0B8AC200900160EEF0A3EFF0A3EDF0D8
:108ACD00E4A3F0A3F0F0129215900162E014FEA35E
:108ADD00E0D39E4004E4F0A3F0EFB4020B900164E8
:108AED007401F0E4900163F0900164E0B4011B9017
:108AFD000163E0FE900160E0FCA3E02EF582E43C12
:108B0D00F583EFF0900163E004F0EFB403B890014A
:108B1D0063E0FF900160E0FCA3E02FF582E43CF5FB
:038B2D0083E4F0EE
:018B30002222
:106F05002573005645522E20200025752E25752EF9
:106F1500257500416464722E2000253575002530E5
:106F250031752E4175746F00253031752E687438B2
:106F35003500253031752E687437350025303175AB
:106F45002E464F535400312E5F5F5F5F0053415013
:106F5500494A00447279657200000200000006206B
:106F65000120200405060708090A0B0C0D0E0F1059
:106F75001112131415161718191A1B1C1D1E1F00A4
:106F8500210A232425260428292A2B2C402E2F3F8D
:106F95000376674B6D7D077F6F3A3B3C603E3F4014
:106FA5005F793C737C5C3D5B18335A3851513F5EC9
:106FB5004F506D783B3B31496B765B5C5D4E2041B4
:106FC5005F793C737C5C3D5910335A385151715E81
:106FD5004F506D78313B31496B767B7C7D7E7F8070
:106FE5008182838485868788898A8B8C8D8E8F9014
:106FF5009192939495969798999A9B9C9D9E9FA004
:10700500A1A2A3A4A5A6A7A2A9AAABACADAEAF4E5B
:10701500B1B2B3B4B5B6B7B5C5BABBBCBDBEBF4159
:10702500A042A1E045A3A4A5A64BA74D484FA85053
:107035004354A9AA58E1ABACE2ADAE62AFB0B161C1
:10704500B2B3B4E365B6B7B8B9BABBBCBD6FBE7071
:0F70550063BF79AA78E5C0C1E6C2C3C4C5C6C788
:1080CF0041013100440152000000004100CE004246
:1080DF00005B00004100580141010400410006000F
:1080EF0041005D004200CC00004200590000C11F5A
:1080FF004100000041000100420002000042000464
:02810F0000006E
:03001300020006E2
:0100060032C7
:03000300020007F1
:0100070032C6
:03002B000271C39C
:0D71C300C0E0C0F0C083C082C0D075D018FD
:1071D000900156E4F0A3F0C2CF9000CDE004F0702F
:1071E000069000CCE004F0900004E0FEA3E0FF90E5
:1071F0000001E0600514F00272F3900001740FF0DA
:10720000900131E07009309404C2948002D29490CD
:107210000152E0FCA3E0FDA3E0FEA3E02401FFE4B3
:107220003EFEE43DFDE43CFC900152123538E5564B
:107230007012855456E55520E005435501800753EB
:1072400055FE80021556900000E014603114604C29
:107250001460671470030272D8240460030272F38E
:10726000C2ECE55520E005E55320E7058541C080E7
:107270000375C000D2E89000007401F08075C2E888
:10728000E55520E005E55320E6058542C0800375FD
:10729000C000D2E99000007402F08057C2E9E555C1
:1072A00020E005E55320E5058543C0800375C00057
:1072B000D2EA9000007403F08039C2EAE55520E07C
:1072C00005E55320E4058544C0800375C000D2EB7A
:1072D0009000007404F0801BC2EBE55520E005E54A
:1072E0005320E3058545C0800375C000D2EC9000B3
:0372F00000E4F0C7
:0B72F300D0D0D082D083D0F0D0E032A9
:0B828E00900251EBF0A3EAF0A3E9F02E
:10829900E4A3F0A3F0FD900251E0FBA3E0FAA3E010
:1082A9002406F9E43AFAED7E0029F9EE3AFA123297
:1082B900806076900255F0ED2407FFEE33FE9002C0
:1082C90051A3E0FAA3E0F98F828E83123299FC90D0
:1082D9000255E0642E604E900017123299FF900209
:1082E90054E0FEC39F503EEC642E600EEC642C609B
:1082F90009EC643A6004ECB43B0D900255E0906FD0
:108309006493FC44808008900255E0906F649390D8
:108319000255F0900255E08E8275830012330B905E
:098329000254E004F00D02829FF1
:018332002228
:10502A00E4900158F0A3F090015CF0A3F0A3F0A380
:10503A00F07D01FF128C0D7D017F01128C0D7D0127
:10504A007F02128C0D7D017F03128C0D7D017F047E
:10505A00128C0D7D017F05128C0DE4FF1295E9E596
:10506A008730E42E7F207E0012935090015AEEF092
:10507A00A3EFF0E004F0700690015AE004F090010A
:10508A005AE0FCA3E0FD7F207E001292F25387EFE4
:10509A0080297F227E0012935090015AEEF0A3EFEE
:1050AA00F0E004F0700690015AE004F090015AE032
:1050BA00FCA3E0FD7F227E001292F27F047E0012A2
:1050CA0092C8900006EFF0E4F541F542F543F54445
:1050DA00F5457554C8F55375CA1E75CBFFD2AD7523
:1050EA00B710D2BDD2CA7558059000CE04F07F051C
:1050FA00126C647F0A126C6490022374FFF0A3742A
:10510A006FF0A37405F0A374FFF0A3746FF0A37497
:10511A0058F07B007A00794712559D7F0A126D0A72
:10512A00E4FBFA7D637F02126D4490022374FFF060
:10513A00A3746FF0A37408F07B007A0079471255C4
:10514A009D7F0A126D0AE4FBFA7D637F02126D44A9
:10515A0090022374FFF0A3746FF0A3740FF0906FA2
:10516A005EE493FF740193900226CFF0A3EFF090D0
:10517A006F60E493FF740193900228CFF0A3EFF0DD
:10518A00906F62E493FF74019390022ACFF0A3EF29
:10519A00F07B007A00794712559D7B007A007947A7
:1051AA0012950DC3EF9407EE6480948050377B000C
:1051BA007A00794712950D90015AEEF0A3EFF0901C
:1051CA00015AE0FEA3E0FFC39407EE940050137463
:1051DA00472FF87620E004F070E590015AE004F0D9
:1051EA0080DDE4F54E7F0A126D0AE4FBFA7D637FE7
:1051FA0002126D44900006E0FF90015AE4F0A3EF1A
:10520A00F090022374FFF0A3746FF0A37418F07B7C
:10521A00007A00794712559D7F0A126D0AE4FBFA5B
:10522A007D637F02126D4490022374FFF0A3746FB2
:10523A00F0A3741FF090015AE0FFA3E0900226CF7A
:10524A00F0A3EFF07B007A00794712559D7F0A128E
:10525A006D0AE4FBFA7D637F02126D447F317E00A2
:10526A001292C890008EE4F0A3EFF07F307E001215
:10527A0092C8900063EFF07F327E001292C8EF90DE
:10528A00008CF0A3E4F07F33FE1292C8900081EF05
:10529A00F07F347E001292C890007CEFF07F357E5A
:1052AA00001292C8900092EFF07F367E001292C8E8
:1052BA00900094EFF0E490007FF07F41FE1292C8D4
:1052CA009000C5E4F0A3EFF07F407E001292C890F0
:1052DA00009AEFF07F427E001292C8EF9000C3F06E
:1052EA00A3E4F07F43FE1292C89000B8EFF07F4427
:1052FA007E001292C89000B3EFF07F457E001292B2
:10530A00C89000C9EFF07F467E001292C89000CB89
:10531A00EFF09000B67401F0E490015AF0A3F09017
:10532A00015AE0FEA3E0FFC39402EE940040030298
:10533A0053E490006375F037EF123599EE75F03744
:10534A00A42583F583E014601914602514603124C0
:10535A0003705090022374FFF0A3746FF0A37423B8
:10536A00802B90022374FFF0A3746FF0A3742D8036
:10537A001C90022374FFF0A3746FF0A37437800D9E
:10538A0090022374FFF0A3746FF0A37441F09001AC
:10539A005BE02401FE90015AE03400900226F0A35B
:1053AA00CE800D90022374FFF0A3746FF0A3744BA8
:1053BA00F07B007A00794712559D7F0A126D0AE444
:1053CA00FBFA7D637F02126D4490015BE004F0708A
:1053DA000690015AE004F002532990022374FFF068
:1053EA00A3746FF0A37452F07B007A0079471255C8
:1053FA009D7F0A126D0AE4FBFA7D637F02126D44F7
:10540A007F0B126C641293CBE4FBFA7D327F02129B
:10541A006D44D29C9001047401F07F09126C647F80
:10542A0007126C647F08126C647E007F077D40124D
:10543A008AC2900008E0FFB4300F900009E0B4304F
:10544A000890000AE06430602B128256EFC454F0D0
:10545A00900158F0900009E0FF128256900158E03E
:10546A002FF0900006E0FF900159F0900158E0FEFD
:10547A00EFB506B5E4900158F0A304F0900159E0A5
:10548A00FFD3944050A374072FF582E43400F583C8
:10549A00E0FCB40332900159E0D394024029E0FFC2
:1054AA002406F582E43400F583E0FE900158E0C357
:1054BA009EFD74052FF582E43400F583E0FEC3ED0A
:1054CA009E900158F0800C900158E02CF0A3E00463
:1054DA00F080A9AF06128256EF75F010A4FFAEF065
:1054EA00C006C007900159E02406F582E43400F5AD
:1054FA0083E0FF128256EFFDD0E02DFFD0E03400AA
:10550A00FE900158E06F7001EE6003025433E4909C
:10551A000104F0C29C7B0190016304F0A37400F0C3
:0E552A00A374CFF07A00790712002E025433DA
:0C95B300E4FBFA7D0A7F80126D4480F416
:0C95BF00E4FBFA7D5A7F02126D4480F438
:10895F007B017A0179059001B2E4F0A304F0E4FD04
:10896F00127A157B017A0179059001B2E4F0A30424
:10897F00F0FD127A157B017A0179059001B2E4F0CE
:10898F00A37403F07D02127A157B017A01790590A9
:10899F0001B2E4F0A37403F0FD127A15E49001AD77
:1089AF00F09001ADE0FDC3940450117B017A017981
:1089BF000512494A9001ADE004F080E5E4FBFA7D31
:0889CF00027F80126D4480D488
:107840007F317E001292C890008EE4F0A3EFF07FAB
:10785000307E001292C8900063EFF07F327E0012FB
:1078600092C8EF90008CF0A3E4F07F33FE1292C830
:10787000900081EFF07F347E001292C890007CEF80
:10788000F07F357E001292C8900092EFF0A3F07F57
:10789000367E001292C8900094EFF0E490007FF0E2
:1078A0007F41FE1292C89000C5E4F0A3EFF07F4044
:1078B0007E001292C890009AEFF07F427E001292F2
:1078C000C8EF9000C3F0A3E4F07F43FE1292C8908B
:1078D00000B8EFF07F447E001292C89000B3EFF042
:1078E0007F457E001292C89000C9EFF0A3F07F465A
:1078F0007E001292C89000CBEFF09000B67401F0B9
:10790000FB7A00795E1277477B017A0079951277CE
:10791000477B017A00795E128F307B017A0079957E
:0F792000128F30E4FBFA7D0A7F02126D4480E281
:107CB100E49001D9F0A3F0A3F0A3F0A3F0A3F0A303
:107CC100F0A3F0A3F0FF9001E5F0A37400F0A3741A
:107CD10041F0A37401F0A37400F0A3745EF07B0182
:107CE1007A00794712862DE4FFFE1292C8EF540301
:107CF100FF9001E57401F0A37401F0A37405F0A3F2
:107D0100E4F0A37400F0A37441F0A37401F0A37430
:107D110000F0A37447F0A374FFF0A3748FF0A37471
:107D210091F0A374FFF0A37492F0A374C8F0A3E4DC
:107D3100F0A3EFF07B007A007925127BD37F0E7ED2
:107D4100001292C8EF60069000E4E070277B007A91
:107D51000079257D01122030E5264525601190002E
:107D61004AE4F0A37414F090005D7401F08005E41E
:107D710090005DF07B017A007947126252E4FBFAD0
:097D81007D0A7F02126D4480B4FA
:10885A00E4FF7B0190021A04F0A37401F0A37405EB
:10886A00F01BA3EBF0A37400F0A37425F0A3EBF0C4
:10887A00A37400F0A37441F00BA3EBF0A37400F00F
:10888A00A37447F0A3EBF0A37400F0A3745EF0A303
:10889A0074FFF0A3748FF0A37491F0A374FFF0A394
:1088AA007492F0A374C8F0E4A3F0A3F07A0079CF2D
:1088BA00127064E4900059F0A3F0FFE52645257094
:1088CA00097B017A0079CF1212D7E4FBFA7D0A7F7D
:0688DA0080126D4480E5F0
:1093A300E4FBFAFD7F01126D447F0A126CED7B0032
:1093B3007A00794112828EE4FBFA7D057F02126DF9
:0893C300447F0B126D0A80D8F3
:10928D00E4900256F07F0A126D0AE4FBFA7D057F29
:10929D0002126D44E4FBFAFD7F01126D447F0B1247
:1092AD006CED7F0A126D0AE4FBFA7D057F02126DEB
:0392BD004480E109
:0995E000EF7003C29422D2942220
:0995E900EF7003C29322D2932219
:0995F200EF7003C29322D2932210
:10949500EF14600C047011ED6003D29022C290228B
:0994A500ED6003D29622C296226A
:1094AE00EF14600C047011ED6003D29522C2952268
:0994BE00ED6003D29722C297224F
:108C0D00EFB408005066908C1AF8282873028C3245
:108C1D00028C3B028C44028C4D028C56028C5F02FE
:108C2D008C68028C71ED7003C2ED22D2ED22ED70D5
:108C3D0003C2EE22D2EE22ED7003C2EF22D2EF225A
:108C4D00ED7003C2A422D2A422ED7003C2A322D2DE
:108C5D00A322ED7003C2A222D2A222ED7003C2A103
:0D8C6D0022D2A122ED7003C2A022D2A022CB
:1090C500EFB4080050419090D2F82828730290EA36
:1090D5000290EE0290F20290F60290FA0290FE02E1
:1090E5009102029106A2ED801AA2EE8016A2EF80EF
:1090F50012A2A4800EA2A3800AA2A28006A2A18029
:0A91050002A2A0E433FF227F012242
:10941400EF14600E14600F14601024037012A2A5E0
:10942400800AA2A68006A2A78002A291E433FF22AA
:039434007F012293
:10952200EF14600704700AA2908002A296E433FF4F
:04953200227F012271
:10953600EF14600704700AA2958002A297E433FF35
:04954600227F01225D
:0995FB00EF7003C29522D2952203
:09960400EF7003C29022D2902203
:06961F00A295E433FF22D6
:06962500A290E433FF22D5
:09960D00EF7003C29722D29722EC
:09961600EF7003C29622D29622E5
:06962B00A297E433FF22C8
:06963100A296E433FF22C3
:108111004102CE004102D1004102D0FF4102CC0018
:108121004102CF004102CDFFC11DC11CC11E410250
:02813100D2007A
:10925200201D37C2AC201C09201E06D21C8F99800B
:10926200279002D1E0FE04F0EE7C00541F24ACF5FE
:1092720082EC3402F583EFF09002CEE0FF9002D14F
:0B928200E06F541F7002D21DD2AC221E
:10932100900250EFF0301D19126D319002D0EFF024
:10933100E4FBFAFD7F01126D449002D074FFF080CE
:0F934100E4900250E0FF129252900250E0FF229F
:109215009002CCE0FF9002CFE0B50719126D3190B6
:1092250002CDEFF0E4FBFAFD7F01126D449002CD13
:1092350074FFF080DB9002CCE0FF04F07E00EF5479
:0C9245000F249CF582EE3402F583E0FF5C
:0192510022FA
:03002300027D8AD1
:0D7D8A00C0E0C0F0C083C082C0D075D01032
:107D9700309858900257E599F0C298309C4D900161
:107DA70004E06047900257E0B40305E4FF126D3426
:107DB7009002CCE02410FFE433FE9002CFE06F7016
:107DC70001EE601C900257E0FF9002CFE0FE04F046
:107DD700EE7C00540F249CF582EC3402F583EFF01F
:107DE7009002CDE0FFF46003126D0A30995AC299F0
:107DF700D2209002D2E0B4010EE4F0FF1295E99090
:107E070001047401F0D29C9002D1E0FF9002CEE011
:107E17006F6033E0FF04F07E00EF541F24ACF5825F
:107E2700EE3402F583E0900257F0E0FFB4030690CA
:107E370002D27401F08F99C21D9002D0E0FFF46066
:087E470007126D0A8002C21C43
:0B7E4F00D0D0D082D083D0F0D0E03241
:1093CB00E4FF759850438921758DFAD28E7E1090EB
:1093DB00029CE4F0A3DEFCE4FF7E209002ACE4F000
:0593EB00A3DEFCD2AC82
:0193F000225A
:1075470000316253C4F5A697B988DBEA7D4C1F2E3C
:107557004372211087B6E5D4FACB98A93E0F5C6D2C
:1075670086B7E4D5427320113F0E5D6CFBCA99A81C
:10757700C5F4A796013063527C4D1E2FB889DAEB0C
:107587003D0C5F6EF9C89BAA84B5E6D740712213FC
:107597007E4F1C2DBA8BD8E9C7F6A59403326150EC
:1075A700BB8AD9E87F4E1D2C02336051C6F7A495DC
:1075B700F8C99AAB3C0D5E6F4170231285B4E7D6CC
:1075C7007A4B1829BE8FDCEDC3F2A19007366554BC
:1075D70039085B6AFDCC9FAE80B1E2D344752617AC
:1075E700FCCD9EAF38095A6B4574271681B0E3D29C
:1075F700BF8EDDEC7B4A192806376455C2F3A0918C
:107607004776251483B2E1D0FECF9CAD3A0B58697B
:1076170004356657C0F1A293BD8CDFEE79481B2A6B
:10762700C1F0A3920534675678491A2BBC8DDEEF5B
:1076370082B3E0D1467724153B0A5968FFCE9DAC4B
:108D54009001BCE0FBA3E0FAA3E0F990001F1232FB
:028D640099FF75
:108D6600E4FEAD07ED548060010EAD07ED544060A2
:108D7600020E0EAD07ED5420600474042EFEAD07FE
:108D8600ED5410600474082EFEAD07ED540860041F
:108D960074102EFEAD07ED5404600474202EFEAD53
:108DA60007ED5402600474402EFEAD07ED540160D9
:078DB6000474802EFEAF06DD
:018DBD002293
:10874C00900025741E12330B900032E4F5F01234B5
:10875C0079900024E412330B90001FE412330B9039
:10876C000020E412330B90001AE412330B90001B20
:10877C00E412330B90001CE412330B9000061235FC
:10878C00750000000090000A123575000000009082
:10879C00000E1235750000000090001212357500A5
:1087AC0000000090001DE412330B9000231232994C
:1087BC0090002212330B90002E1233D5FF90002C18
:0787CC00E5F08FF0023479A3
:109477009001BFEFF0FD9001BCE0FBA3E0FAA3E091
:01948700F9EB
:0D94880090001F1232996D90754793FF22DE
:0D8470009001C6E0FBA3E0FAA3E0F9E4FDF3
:0E847D009001D4EBF0A3EAF0A3E9F0A3EDF038
:10848B00900021123299FF1294AEE49001D8F09033
:10849B0001D4E0FBA3E0FAA3E0F99000211232999A
:1084AB00FF1295369001D4E0FBA3E0FAA3E0F9901C
:1084BB000025123299FE9001D8E0C39E501E900108
:1084CB00D7E06F6006A3E004F080C4E92430F9E440
:1084DB003AFA1233AAFFE5F054FB80189001D4E06E
:1084EB00FBA3E0FAA3E02430F9E43AFA1233AAFF33
:0984FB00E5F044048FF012345A3C
:018504002254
:0D8505009001CCE0FBA3E0FAA3E0F97D01BA
:0E8512009001CFEBF0A3EAF0A3E9F0A3EDF0A7
:10852000900021123299FF129495E49001D3F090BB
:1085300001CFE0FBA3E0FAA3E0F990002112329909
:10854000FF1295229001CFE0FBA3E0FAA3E0F9909F
:108550000025123299FE9001D3E0C39E501E900177
:10856000D2E06F6006A3E004F080C4E92430F9E4AF
:108570003AFA1233AAFFE5F054F780189001CFE0E1
:10858000FBA3E0FAA3E02430F9E43AFA1233AAFF9D
:09859000E5F044088FF012345AA2
:0185990022BF
:10910F009001BCE0FBA3E0FAA3E02430F9E43AFAC3
:10911F001233AAFFE5F054EF8FF012345A9001BCCE
:0F912F00E0FBA3E0FAA3E0F990001DE412330B7C
:10913E009001D412354400000000126B9AE4FBFA41
:07914E007D017F02026D4468
:0B8E22009001CFEBF0A3EAF0A3E9F011
:108E2D00900021123299FF7D011294959001CF127D
:108E3D00847312913E9001D2E4F0A304F09001CF1F
:108E4D00E0FBA3E0FAA3E0F97D0112847D12913ECF
:108E5D009001CF12847312913E9001D3E004F07013
:108E6D00069001D2E004F09001D2E07004A3E0641A
:038E7D002870CA90
:018E800022CF
:1087D3009001CCEBF0A3EAF0A3E9F09001CCE0FB2D
:1087E300A3E0FAA3E0F9128E229001CCE0FBA3E010
:1087F300FAA3E0F9900021123299FF7D01129495BA
:1088030012850512913E9001CCE0FBA3E0FAA3E0B0
:10881300F97D0112847D12913E9001CCE0FBA3E02F
:10882300FAA3E0F9E4FD12851212913E9001CC12F5
:10883300847312913E9001CCE0FBA3E0FAA3E0F92C
:108843007D0112847D12913E12850512913E9001A5
:07885300CC12847302913E78
:106629009001BCE0FBA3E0FAA3E0F9900020EF128F
:04663900330B7D1E84
:10663D009001C9EDF09001C6EBF0A3EAF0A3E9F0EB
:10664D001287D39001C9E0A3F05480F09001C67079
:10665D000CE0FBA3E0FAA3E0F9E4FD800AE0FBA364
:10666D00E0FAA3E0F97D0112851212913E9001C668
:10667D00E0FBA3E0FAA3E0F97D0112847D12913EC7
:10668D0012847012913E9001C9E0A3F05440F09035
:10669D0001C6700CE0FBA3E0FAA3E0F9E4FD800A6B
:1066AD00E0FBA3E0FAA3E0F97D0112851212913E01
:1066BD009001C6E0FBA3E0FAA3E0F97D0112847D11
:1066CD0012913E12847012913E9001C9E0A3F054D4
:1066DD0020F09001C6700CE0FBA3E0FAA3E0F9E412
:1066ED00FD800AE0FBA3E0FAA3E0F97D011285121B
:1066FD0012913E9001C6E0FBA3E0FAA3E0F97D0103
:10670D0012847D12913E12847012913E9001C9E067
:10671D00A3F05410F09001C6700CE0FBA3E0FAA3B7
:10672D00E0F9E4FD800AE0FBA3E0FAA3E0F97D01C6
:10673D0012851212913E9001C6E0FBA3E0FAA3E090
:10674D00F97D0112847D12913E12847012913E905A
:10675D0001C9E0A3F05408F09001C6700CE0FBA352
:10676D00E0FAA3E0F9E4FD800AE0FBA3E0FAA3E080
:10677D00F97D0112851212913E9001C6E0FBA3E056
:10678D00FAA3E0F97D0112847D12913E12847012FC
:10679D00913E9001C9E0A3F05404F09001C6700C35
:1067AD00E0FBA3E0FAA3E0F9E4FD800AE0FBA3E03F
:1067BD00FAA3E0F97D0112851212913E9001C6E017
:1067CD00FBA3E0FAA3E0F97D0112847D12913E1244
:1067DD00847012913E9001C9E0A3F05402F0900133
:1067ED00C6700CE0FBA3E0FAA3E0F9E4FD800AE03B
:1067FD00FBA3E0FAA3E0F97D0112851212913E9000
:10680D0001C6E0FBA3E0FAA3E0F97D0112847D123D
:10681D00913E12913E12847012913E9001C9E0A3F7
:10682D00F05401F09001C6700CE0FBA3E0FAA3E078
:10683D00F9E4FD800AE0FBA3E0FAA3E0F97D011283
:10684D00851212913E9001C6E0FBA3E0FAA3E0F998
:10685D007D0112847D12913E9001C6E0FBA3E0FA0A
:10686D00A3E0F9900021123299FF7D011294951247
:10687D00913E12847012913E9001C6E0FBA3E0FAA6
:10688D00A3E0F9900021123299FF1295229001CBCD
:10689D00EFF09001C6E0FBA3E0FAA3E0F97D011251
:1068AD00847D12913E12847012913E12913E12918E
:0F68BD003E12913E9001CBE060037F01227F00ED
:0168CC0022A9
:0D68CD009001BCE0FBA3E0FAA3E0F9E4FDBC
:1068DA009001C9EDF09001C6EBF0A3EAF0A3E9F04C
:1068EA00E49001CAF07D0112847D9001C6E0FBA309
:1068FA00E0FAA3E0F9900021123299FF129522AE34
:10690A0007EEB401079001CAE04480F012913E906C
:10691A0001C612847312913E9001C6E0FBA3E0FA0D
:10692A00A3E0F97D0112847D9001C6E0FBA3E0FAA1
:10693A00A3E0F9900021123299FF129522AE07EED8
:10694A00B401079001CAE04440F012913E9001C69A
:10695A0012847312913E9001C6E0FBA3E0FAA3E011
:10696A00F97D0112847D9001C6E0FBA3E0FAA3E061
:10697A00F9900021123299FF129522AE07EEB40166
:10698A00079001CAE04420F012913E9001C6128499
:10699A007312913E9001C6E0FBA3E0FAA3E0F97DF1
:1069AA000112847D9001C6E0FBA3E0FAA3E0F9900E
:1069BA000021123299FF129522AE07EEB401079018
:1069CA0001CAE04410F012913E9001C6128473127B
:1069DA00913E9001C6E0FBA3E0FAA3E0F97D011223
:1069EA00847D9001C6E0FBA3E0FAA3E0F9900021C0
:1069FA00123299FF129522AE07EEB401079001CA2E
:106A0A00E04408F012913E9001C612847312913E3E
:106A1A009001C6E0FBA3E0FAA3E0F97D0112847DB0
:106A2A009001C6E0FBA3E0FAA3E0F990002112323C
:106A3A0099FF129522AE07EEB401079001CAE0440D
:106A4A0004F012913E9001C612847312913E900195
:106A5A00C6E0FBA3E0FAA3E0F97D0112847D900170
:106A6A00C6E0FBA3E0FAA3E0F9900021123299FFF5
:106A7A00129522AE07EEB401079001CAE04402F073
:106A8A0012913E9001C612847312913E9001C6E0A3
:106A9A00FBA3E0FAA3E0F97D0112847D9001C6E030
:106AAA00FBA3E0FAA3E0F9900021123299FF1295B4
:106ABA0022AE07EFB401079001CAE04401F0129137
:106ACA003E9001C61284739001C9E09001C6B401D8
:106ADA0013E0FBA3E0FAA3E0F9900021123299FF38
:106AEA007D018011E0FBA3E0FAA3E0F990002112F6
:106AFA003299FFE4FD12949512913E9001C6E0FB93
:106B0A00A3E0FAA3E0F97D0112847D12913E90017F
:106B1A00C61284739001C6E0FBA3E0FAA3E0F990E1
:106B2A000021123299FF7D0112949512913E900133
:036B3A00CAE0FFAF
:016B3D002235
:0B9078009001BCE0FBA3E0FAA3E0F9CC
:109083009001C6EBF0A3EAF0A3E9F09001C6E0FB80
:10909300A3E0FAA3E0F9900021123299FF7D0112B7
:1090A3009495E4FBFA7D017F02126D449001C6E0C2
:1090B300FBA3E0FAA3E0F9900021123299FF129585
:0290C300222267
:0F958A007F1E7D1E12663D9002ECEFF002913EB7
:0B408D009001BCEBF0A3EAF0A3E9F007
:10409800900024123299D3940840129001BCE0FB9E
:1040A800A3E0FAA3E0F9900024E412330B9001BCDA
:1040B800E0FBA3E0FAA3E0F99000301233D520E04A
:1040C8004FE92430F9E43AFA1233AAFFE5F054FE36
:1040D8008FF012345A9001BCE0FBA3E0FAA3E0F998
:1040E8009000301233D520E1149000061235750087
:1040F80000000090000A123575000000009001BC15
:10410800E0FBA3E0FAA3E0F9900024740812330B53
:104118009001BCE0FBA3E0FAA3E0F990002412327E
:1041280099B409004003024949904138F828287396
:104138000241530242840242B502447A0244EF0229
:10414800456002459A02490102492E90000E123438
:10415800B4900006123508122FA260030241F090B5
:1041680001BCE0FBA3E0FAA3E0F990002E1233D5DE
:10417800FFAEF04E607290002C1233D545F0600D02
:1041880090002C74FFF5F012340D02422C9001BC03
:10419800E0FBA3E0FAA3E0F990002CEE8FF01234D4
:1041A80079E92430F9E43AFA1233AAFFE5F0440237
:1041B800FE8FF012345AEE54FE8FF012345A9001EA
:1041C800BCE0FBA3E0FAA3E0F99000301233D5205D
:1041D800E1529000061235750000000090000A12A6
:1041E800357500000000803C9001BCE0FBA3E0FABC
:1041F800A3E0F99000061234B490000E1234E49053
:10420800002E1233D5FF90002CE5F08FF012347990
:10421800E92430F9E43AFA1233AAFFE5F054FD8FA5
:10422800F012345A9001BCE0FBA3E0FAA3E0F99045
:10423800001FE412330B9001BF7403F0FD12663DBA
:104248009001C1EFF012913E9001BCE0FBA3E0FAAF
:10425800A3E0F9A3E0FD1294889001BCE0FBA3E081
:10426800FAA3E0F990001FEF12330B900032E4F547
:10427800F01234799000247401024547129078EFC7
:1042880060189001BCE0FBA3E0FAA3E0F9900022DB
:104298001232997002800E0245819001BCE0FBA3A6
:1042A800E0FAA3E0F99000247402024946129078DB
:1042B800EF605B9001BCE0FBA3E0FAA3E0F990009B
:1042C8001E123299FF90001D123299C39F500F9011
:1042D800001D74011232C6900024E4024946900180
:1042E800BCE0FBA3E0FAA3E02430F9E43AFA123385
:1042F800AAFFE5F044108FF012345A9001BCE0FB9D
:10430800A3E0FAA3E0F9900024740302494612914D
:104318000F1268CD1294779001BCE0FBA3E0FAA3DA
:10432800E0F990001FEF12330B12913E12913E12EA
:1043380068CD9001C012947A9001BCE0FBA3E0FA2A
:10434800A3E0F990001FEF12330B7D011268DA1217
:1043580066299001C1EFF012913E9001BCE0FBA3E9
:10436800E0FAA3E0F99000301233D5E5F054FE608E
:104378002A90001B74011232C690001B123299D386
:1043880094149001BCE0FBA3E0FAA3E0F9900024A8
:1043980040057403024946E4024946128D549001CF
:1043A800BCE0FBA3E0FAA3E0F99000201232996F79
:1043B800600890002474030249469000051232995F
:1043C800FBB402059001C28010EB9001C2B403094E
:1043D8001235444080000080071235443F800000B9
:1043E8009001BFE0FEA3E07C002400FDEC3EFCE46D
:1043F800123014C004C005C006C0077F0A7ED77DEE
:10440800237C3C9001C2E0F8A3E0F9A3E0FAA3E022
:10441800FB122DFCD003D002D001D000122DFCE4F9
:10442800FBFA792078C2122D0B9001C21235389010
:1044380001C2E0FCA3E0FDA3E0FEA3E0FF9001BC05
:10444800E0FBA3E0FAA3E0F99000161234E4900030
:104458001AE412330B90001BE412330B90001CE497
:1044680012330B90001DE412330B900024740402E5
:1044780049469001BCE0FBA3E0FAA3E0F990001ADA
:10448800E412330B90001BE412330B90001CE4126F
:10449800330B90001DE412330B90001DE412330B14
:1044A800900024E412330BE92430F9E43AFA123389
:1044B800AAFFE5F054FE8FF012345A9001BCE0FBDD
:1044C800A3E0FAA3E0F99000301233D530E10302FB
:1044D80049499000061235750000000090000A1244
:1044E80035750000000022126B9A9001BCE0FBA316
:1044F800E0FAA3E0F990001FE412330B9001BF74B7
:1045080005F0FD12663D9001C1EFF012913E900159
:10451800BCE0FBA3E0FAA3E0F9A3E0FD12948890C5
:1045280001BCE0FBA3E0FAA3E0F990001FEF12330F
:104538000B900032E4F5F0123479900024740512DF
:10454800330B90002312329990002212330BE4FBB4
:10455800FA7D0A7F02026D44129078EF6021900183
:10456800BCE0FBA3E0FAA3E0F990002212329970B4
:1045780008900024740602494690002202491790C8
:1045880001BCE0FBA3E0FAA3E0F990002474060262
:104598004946129078EF605C9001BCE0FBA3E0FA1A
:1045A800A3E0F990001E123299FF90001D12329973
:1045B800C39F501090001D74011232C690002474DD
:1045C800040249469001BCE0FBA3E0FAA3E02430D2
:1045D800F9E43AFA1233AAFFE5F044108FF01234E6
:1045E8005A9001BCE0FBA3E0FAA3E0F99000247420
:1045F8000302494612910F1268CD1294779001BCBC
:10460800E0FBA3E0FAA3E0F990001FEF12330B12CE
:10461800913E12913E1268CD9001C012947A900199
:10462800BCE0FBA3E0FAA3E0F990001FEF12330B04
:104638007D011268DA1266299001C1EFF012913EED
:104648009001BCE0FBA3E0FAA3E0F990003012333C
:10465800D5E5F054FE602A90001B74011232C69012
:10466800001B123299D394149001BCE0FBA3E0FA2A
:10467800A3E0F990002440057403024946E4024986
:1046880046128D549001BCE0FBA3E0FAA3E0F99038
:1046980000201232996F6007900024E40249469086
:1046A80000161234B49000061234E4900005123259
:1046B80099640360030247639001BFE0FEA3E07CB6
:1046C800002400FDEC3EFCE41230147B627ABE79D3
:1046D8003C783A122DFCC004C005C006C007900102
:1046E800BFE0FEA3E07C002400FDEC3EFCE41230B9
:1046F80014D003D002D001D000122DFCC004C00594
:10470800C006C0079001BFE0FEA3E07C002400FDC6
:10471800EC3EFCE41230147B547AE37925783F129E
:104728002DFCE4FBFA798078C0122D0BD003D0025F
:10473800D001D000122D079001C21235389001BF68
:10474800E0FEA3E07C002400FDEC3EFCE412301403
:104758007BAC7AC579A7783A0248169001BCE0FB91
:10476800A3E0FAA3E0F990000512329964029001DF
:10477800BFE0FEA3E07C002400FDEC3EFCE4123028
:10478800147BA27AE7793B7836122DFCC004C00569
:10479800C006C0079001BFE0FEA3E07C002400FD36
:1047A800EC3EFCE4123014D003D002D001D0001249
:1047B8002DFCC004C005C006C0079001BFE0FEA3E1
:1047C800E07C002400FDEC3EFCE41230147B547ABB
:1047D800E37925783D122DFCE4FBFA798078C01244
:1047E8002D0BD003D002D001D000122D079001C2AA
:1047F8001235389001BFE0FEA3E07C002400FDECF8
:104808003EFCE41230147BAC7AC579A77838122DB7
:10481800FC7B0A7AD77923783C122D0BC004C0059B
:10482800C006C0079001BCE0FBA3E0FAA3E0F99042
:1048380000061234B4E4FBFA79C878C1122D0BD003
:1048480003D002D001D000122DFC9001C2E0F8A3E1
:10485800E0F9A3E0FAA3E0FB122D0B9001C2123598
:1048680038E4FFFE7DC67C429001C2E0F8A3E0F97F
:10487800A3E0FAA3E0FB122FA2601940179001BC35
:10488800E0FBA3E0FAA3E0F990000A12357542C6EE
:104898000000801F9001C2E0FCA3E0FDA3E0FEA39E
:1048A800E0FF9001BCE0FBA3E0FAA3E0F990000A66
:1048B8001234E49001BCE0FBA3E0FAA3E0F9900015
:1048C8001AE412330B90001BE412330B90001CE423
:1048D80012330BE92430F9E43AFA1233AAFFE5F06F
:1048E80044018FF012345A9001BCE0FBA3E0FAA314
:1048F800E0F9900024740780459001BCE0FBA3E038
:10490800FAA3E0F9900035123299600890003574E6
:10491800FF0232C690003412329990003512330BE0
:10492800900024E480189001BCE0FBA3E0FAA3E027
:10493800F99000301233D530E007900024E41233A8
:014948000B63
:01494900224B
:108A4D0025322E30662025322E3066002D2D2D2D0F
:108A5D002D0025332E3166B0430025332E3066723E
:108A6D0048002530356275006E6F2E73656E2E00D1
:108A7D00253162752E5F5F2E5F5F00253162752E89
:108A8D0025322E30662E25322E30662E002531628F
:108A9D00752E25322E30662E25322E30660025316C
:108AAD0062752E2D2D2E2D2D2E00253162752E2D1C
:058ABD002D2E2D2D00FF
:10862D009001E2EBF0A3EAF0A3E9F0A3E0FBA3E0F5
:10863D00FAA3E0F9C003C002C0019001E2E0FBA380
:10864D00E0FAA3E0F990000B1235F59001E8E0FB9C
:10865D00A3E0FAA3E0F9C003C002C0019001E2E07B
:10866D00FBA3E0FAA3E0F990000E1235F59001E2BC
:10867D00E0FBA3E0FAA3E0F9900008E412330B74D9
:10868D00071232F99001E2E0FBA3E0FAA3E0F990C2
:10869D000003E4F5F012347990000A741E12330BC6
:1086AD0090000A12329990000912330B900007E4E2
:0386BD0002330B7A
:106252009001E2EBF0A3EAF0A3E9F09001E2E0FBA7
:10626200A3E0FAA3E0F99000031233D5FFAEF0F4F5
:106272007002EEF47003026628EF4E600A9000038B
:1062820074FFF5F002340D12328014700302631BA6
:106292001470030263831470030263EB24FC700323
:1062A200026456147003026628240860030265FF24
:1062B20090000E1235C59000301233D5E5F09001F2
:1062C200E230E052E0FBA3E0FAA3E0F990000B1207
:1062D20035C5E92406F9E43AFAC003C002C00190C8
:1062E200022374FFF0A3748AF0A3744DF09001E2CC
:1062F200E0FBA3E0FAA3E0F990000E1235C590008E
:10630200061234B490022612353890000A1234B4C0
:1063120090022A02657A0266029001E2E0FBA3E0A3
:10632200FAA3E0F990000E1235C59000301233D571
:10633200E5F09001E230E046E0FBA3E0FAA3E0F9E9
:1063420090000B1235C5E92406F9E43AFAC003C0FD
:1063520002C00190022374FFF0A3748AF0A3745F59
:10636200F09001E2E0FBA3E0FAA3E0F990000E1244
:1063720035C59000061234B490022602657A026690
:10638200029001E2E0FBA3E0FAA3E0F990000E1212
:1063920035C59000301233D5E5F09001E230E04689
:1063A200E0FBA3E0FAA3E0F990000B1235C5E92463
:1063B20006F9E43AFAC003C002C00190022374FF56
:1063C200F0A3748AF0A37467F09001E2E0FBA3E00B
:1063D200FAA3E0F990000E1235C590000A1234B407
:1063E20090022602657A0266029001E2E0FBA3E0D7
:1063F200FAA3E0F990000B1235C5E92406F9E43A54
:10640200FAC003C002C00190022374FFF0A3748A91
:10641200F0A3746FF09001E2E0FBA3E0FAA3E0F9CD
:10642200900009123299900226F0D001D002D003D6
:1064320012559D9001E2E0FBA3E0FAA3E0F990007F
:10644200091232996002801F90000A12329990005C
:106452000902330B9001E2E0FBA3E0FAA3E0F9901A
:106462000009123299600890000974FF0232C69046
:10647200000A12329990000912330B90000712326F
:10648200999001E2600EE0FBA3E0FAA3E0F990002C
:1064920007E4800DE0FBA3E0FAA3E0F990000774A3
:1064A2000112330B9001E2E0FBA3E0FAA3E0F990C2
:1064B200000712329975F037A4FFAEF090000E1269
:1064C20035C5E92FF9EA3EFA9000301233D5E5F0EE
:1064D20020E00302657F7F0E7E001292C8EF640205
:1064E2009001E2702AE0FBA3E0FAA3E0F990000B2E
:1064F2001235C5E92406F9E43AFAC003C002C00124
:1065020090022374FFF0A3748AF0A374888028E0B9
:10651200FBA3E0FAA3E0F990000B1235C5E92406CB
:10652200F9E43AFAC003C002C00190022374FFF0FA
:10653200A3748AF0A3749AF09001E2E0FBA3E0FA5C
:10654200A3E0F9900007123299FF04900226F0EFBF
:1065520075F037A4FFAEF090000E1235C5E92FF9A1
:10656200EA3EFA9000061234B490022712353890AF
:10657200000A1234B490022B12353880787F0E7ED6
:10658200001292C8EF64029001E2702AE0FBA3E0DD
:10659200FAA3E0F990000B1235C5E92406F9E43AB2
:1065A200FAC003C002C00190022374FFF0A3748AF0
:1065B200F0A374AB8028E0FBA3E0FAA3E0F990001B
:1065C2000B1235C5E92406F9E43AFAC003C002C049
:1065D2000190022374FFF0A3748AF0A374B7F090C1
:1065E20001E2E0FBA3E0FAA3E0F99000071232997E
:1065F20004900226F0D001D002D00380269001E25E
:10660200E0FBA3E0FAA3E0F990000B1235C5E92400
:1066120006F9E43AFA90022374FFF0A3748AF0A315
:076622007459F012559D228E
:10915500534554555000616472202000202025306D
:109165003358002025303475006461746120007225
:109175006573657400202020253032580020202595
:10918500303375006E657874200020202020200083
:107BD3009001E2EBF0A3EAF0A3E9F09001E8E0FB07
:107BE300A3E0FAA3E0F9C003C002C0019001E2E000
:107BF300FBA3E0FAA3E0F99000051235F59001EB41
:107C0300E0FBA3E0FAA3E0F9C003C002C0019001C6
:107C1300E2E0FBA3E0FAA3E0F99000081235F59047
:107C230001F1E0FBA3E0FAA3E0F9C003C002C00145
:107C33009001E2E0FBA3E0FAA3E0F990001612350D
:107C4300F59001EEE0FBA3E0FAA3E0F9C003C00264
:107C5300C0019001E2E0FBA3E0FAA3E0F990001970
:107C63001235F59001E5E0FBA3E0FAA3E0F9C003C8
:107C7300C002C0019001E2E0FBA3E0FAA3E0F990A7
:107C830000021235F59001E2E0FBA3E0FAA3E0F96C
:107C9300E4F5F012345A9001F4A3E0FF9001E2E01E
:0E7CA300FBA3E0FAA3E0F990000BEF02330B15
:102030009001E5EDF09001E2EBF0A3EAF0A3E9F006
:102040001233AAFFAEF0E5F06003022D03EF123663
:102050004E207300214C0121AA0222B203277104F1
:102060002839052BF5062CBF0A20E814212D150070
:10207000002D039001E2E0FBA3E0FAA3E0F9900059
:10208000021235C59001E5E075F00BA4FFAEF02912
:10209000F9EA3EFA9000031233D5E5F020E103029D
:1020A0002D039001E2E0FBA3E0FAA3E0F990000227
:1020B0001235C5E92FF9EA3EFAE92403F9E43AFAC0
:1020C0001233AA547FFFE5F08FF012345A9001E2E8
:1020D000E0FBA3E0FAA3E0F990000EE4F5F012347F
:1020E00079E475F0140228369001E2E0FBA3E0FAEF
:1020F000A3E0F99000051235C5E92406F9E43AFA9F
:1021000090022374FFF0A37491F0A37455F012555C
:102110009D9001E2E0FBA3E0FAA3E0F990000CE45B
:1021200075F014123479E475F0150228369001E246
:10213000E0FBA3E0FAA3E0F990000C1233D545F0E0
:102140006003022CD4E475F0010228369001E2E02D
:10215000FBA3E0FAA3E0F99000051235C5E92406D7
:10216000F9E43AFA90022374FFF0A37491F0A37497
:102170005BF012559D9001E2E0FBA3E0FAA3E0F9C9
:102180009000051235C5900012740812330B9001AF
:10219000E2E0FBA3E0FAA3E0F990000CE475F01490
:1021A000123479E475F0020228369001E2E0FBA3D4
:1021B000E0FAA3E0F99000021235C59001E5E07560
:1021C000F00BA4FFAEF029F9EA3EFA9000031233B7
:1021D000D554386003022D039001E2E0FBA3E0FA3E
:1021E000A3E0F990000C1233D545F06003022CD423
:1021F0009000021235C5E92FF9EA3EFAE92403F905
:10220000E43AFA1233AA547FFFE5F08FF012345A01
:102210009001E2E0FBA3E0FAA3E0F990000B123298
:102220009930E0229000051235C5E92406F9E43A18
:10223000FAC003C002C00190022374FFF0A374919E
:10224000F0A37461802B9001E2E0FBA3E0FAA3E02D
:10225000F99000051235C5E92406F9E43AFAC003FD
:10226000C002C00190022374FFF0A37491F0A37424
:1022700068F09001E2E0FBA3E0FAA3E0F990000E21
:102280001233D5FF900226E5F0F0A3EFF0D001D095
:1022900002D00312559D9001E2E0FBA3E0FAA3E017
:1022A000F9900014E475F01E123479E475F003021D
:1022B00028369001E2E0FBA3E0FAA3E0F9900002E7
:1022C0001235C59001E5E075F00BA429F9EA35F067
:1022D000FA9000031233D520E7030225D5E9240341
:1022E000F9E43AFA1233AA547FFFE5F08FF0123482
:1022F0005A9001E2E0FBA3E0FAA3E0F990000B1290
:10230000329920E0030223F79000051235C59000B2
:1023100012123299B4082C9001E2E0FBA3E0FAA378
:10232000E0F990000E1233D5540FC3940FE49400DB
:1023300090000E5006E475F001800574FF75F0F111
:1023400012340D9001E2E0FBA3E0FAA3E0F9900063
:10235000051235C5900012123299B410299001E28D
:10236000E0FBA3E0FAA3E0F990000E1233D554F09D
:10237000C394F0E4940090000E5003E4800274FFD4
:1023800075F01012340D9001E2E0FBA3E0FAA3E037
:10239000F99000051235C5900012123299B4202927
:1023A0009001E2E0FBA3E0FAA3E0F990000E123303
:1023B000D5E5F0540FC3940F90000E5004740180C3
:1023C0000274F175F00012340D9001E2E0FBA3E01D
:1023D000FAA3E0F99000051235C5E92406F9E43ABC
:1023E000FAC003C002C00190022374FFF0A37491ED
:1023F000F0A3746102259B9001E2E0FBA3E0FAA345
:10240000E0F99000051235C5900012123299640867
:1024100070439001E2E0FBA3E0FAA3E0F990000E24
:102420001233D5FFAEF07C007D0A12333FC3ED942A
:1024300009EC9400500990000EE475F001801390AF
:1024400001E2E0FBA3E0FAA3E0F990000E74FF754F
:10245000F0F712340D9001E2E0FBA3E0FAA3E0F9FB
:102460009000051235C59000121232996410704325
:102470009001E2E0FBA3E0FAA3E0F990000E123332
:10248000D5FFAEF07C007D6412333FC3ED945AEC6F
:102490009400500990000EE475F00A80139001E258
:1024A000E0FBA3E0FAA3E0F990000E74FF75F0A63C
:1024B00012340D9001E2E0FBA3E0FAA3E0F99000F2
:1024C000051235C5900012123299642070439001B4
:1024D000E2E0FBA3E0FAA3E0F990000E1233D5FF8F
:1024E000AEF07C037DE812333FC3ED9484EC94039B
:1024F000500990000EE475F06480139001E2E0FB57
:10250000A3E0FAA3E0F990000E74FC75F07C12349D
:102510000D9001E2E0FBA3E0FAA3E0F990000512C0
:1025200035C5900012123299644070449001E2E087
:10253000FBA3E0FAA3E0F990000E1233D5FFAEF052
:102540007C277D1012333FC3ED9428EC9423500A6E
:1025500090000E740375F0E880139001E2E0FBA395
:10256000E0FAA3E0F990000E74DC75F0D812340D97
:102570009001E2E0FBA3E0FAA3E0F9900005123538
:10258000C5E92406F9E43AFAC003C002C00190028A
:102590002374FFF0A37491F0A37468F09001E2E05B
:1025A000FBA3E0FAA3E0F990000E1233D5FF9002EE
:1025B00026E5F0F0A3EFF0D001D002D00312559D34
:1025C0009001E2E0FBA3E0FAA3E0F9900014E475C7
:1025D000F01E1234799001E2E0FBA3E0FAA3E0F9E7
:1025E0009000141233D545F06003022BE490000BE9
:1025F000123299FF20E0109000051235C5900012AC
:1026000012329964406025EF20E00302274E9001CA
:10261000E2E0FBA3E0FAA3E0F99000051235C590D3
:1026200000121232996420600302274E9001E2E00A
:10263000FBA3E0FAA3E0F99000051235C590001263
:10264000E412330B9001E2E0FBA3E0FAA3E0F9907F
:10265000000E1233D5FFAEF0C3EE9408500890017F
:10266000E2A3A3E080799001E2E0FBA3E0FAA3E01B
:10267000F990000E1233D5FFAEF07003EE64906057
:1026800006BE2347BF28449001E2E0FBA3E0FAA383
:10269000E0F99000051235C5E92406F9E43AFA900C
:1026A000022374FFF0A37491F0A37474F012559D8B
:1026B0009001E2E0FBA3E0FAA3E0F990000CE475DE
:1026C000F01E123479E475F00A807D9001E2E0FB9F
:1026D000A3E0FAA3E0F990000E1233D5FFAEF0901C
:1026E00000161235C589828A831236A59001E2E070
:1026F000FBA3E0FAA3E0F9900012E48FF012347922
:102700009000121233D5FF900010E5F08FF01234D4
:10271000799000051235C5E92406F9E43AFA9002E9
:102720002374FFF0A37491F0A3746EF012559D9082
:1027300001E2E0FBA3E0FAA3E0F990000CE475F0FD
:102740000A123479E475F00412345A022BCF900146
:10275000E2E0FBA3E0FAA3E0F99000051235C5E939
:102760002412F9E43AFA12328025E01232F9022BEF
:10277000CF9001E2E0FBA3E0FAA3E0F990000C1295
:1027800033D545F06003022CD490000B12329930FF
:10279000E1229000051235C5E92406F9E43AFAC0B1
:1027A00003C002C00190022374FFF0A37491F0A350
:1027B000747A802B9001E2E0FBA3E0FAA3E0F990A9
:1027C00000051235C5E92406F9E43AFAC003C0024F
:1027D000C00190022374FFF0A37491F0A37482F0FF
:1027E0009001E2E0FBA3E0FAA3E0F99000121233BB
:1027F000D5FF900226E5F0F0A3EFF0D001D002D093
:102800000312559D9001E2E0FBA3E0FAA3E0F990EA
:102810000014E475F01E1234799000051235C5904D
:102820000012740812330B9001E2E0FBA3E0FAA35C
:10283000E0F9E475F00502345A9001E2E0FBA3E010
:10284000FAA3E0F99000021235C59001E5E075F0B9
:102850000BA429F9EA35F0FA9000031233D520E7EA
:1028600003022ABAE92403F9E43AFA1233AA547F9C
:10287000FFE5F08FF012345A9001E2E0FBA3E0FA9A
:10288000A3E0F990000B12329920E10302293B905A
:1028900000051235C5900012123299B4082C90012F
:1028A000E2E0FBA3E0FAA3E0F99000121233D55462
:1028B0000FC3940FE494009000125006E475F001E9
:1028C000800574FF75F0F112340D9001E2E0FBA376
:1028D000E0FAA3E0F99000051235C590001212321B
:1028E00099B410299001E2E0FBA3E0FAA3E0F9908B
:1028F00000121233D554F0C394F0E4940090001207
:102900005003E4800274FF75F01012340D9001E260
:10291000E0FBA3E0FAA3E0F99000051235C5E92435
:1029200006F9E43AFAC003C002C00190022374FF22
:10293000F0A37491F0A3747A022A809001E2E0FB84
:10294000A3E0FAA3E0F99000051235C59000121239
:102950003299640870439001E2E0FBA3E0FAA3E03F
:10296000F99000121233D5FFAEF07C007D0A1233CD
:102970003FC3ED9409EC94005009900012E475F007
:102980000180139001E2E0FBA3E0FAA3E0F99000DC
:102990001274FF75F0F712340D9001E2E0FBA3E032
:1029A000FAA3E0F99000051235C590001212329991
:1029B000641070439001E2E0FBA3E0FAA3E0F99019
:1029C00000121233D5FFAEF07C007D6412333FC39A
:1029D000ED945AEC94005009900012E475F00A80CE
:1029E000139001E2E0FBA3E0FAA3E0F99000127477
:1029F000FF75F0A612340D9001E2E0FBA3E0FAA30C
:102A0000E0F99000051235C5900012123299642049
:102A100070439001E2E0FBA3E0FAA3E0F99000121A
:102A20001233D5FFAEF07C037DE812333FC3ED9443
:102A3000C8EC94005009900012E475F06480139083
:102A400001E2E0FBA3E0FAA3E0F990001274FF7545
:102A5000F03812340D9001E2E0FBA3E0FAA3E0F9B4
:102A60009000051235C5E92406F9E43AFAC003C01E
:102A700002C00190022374FFF0A37491F0A374824A
:102A8000F09001E2E0FBA3E0FAA3E0F9900012125B
:102A900033D5FF900226E5F0F0A3EFF0D001D0028D
:102AA000D00312559D9001E2E0FBA3E0FAA3E0F908
:102AB000900014E475F01E1234799001E2E0FBA35B
:102AC000E0FAA3E0F99000141233D545F060030258
