:029102004D120C
:0291060091EBEB
:0291080091F7DD
:02910C00859A42
:0291100074A148
:02911200782CB7
:02911400849540
:029116008FDEEA
:029118008EC8FF
:030000000282FB7E
:0C82FB00787FE4F6D8FD75818B02834289
:03000B000267A0E9
:10679B00C2AF80FE32C0E0E5D0541864087003D05D
:1067AB00E032D0E012679F85D00B75D008AAE0C20B
:1067BB008CE58A240EF58AE58C34B8F58CD28CECFA
:1067CB002481F8E6BC0B0274FFC39581B41400401E
:1067DB00BF790C786816E608700BC2AFE630E103A0
:1067EB004418F6D2AF08D9EDEA8BD022E50CFF2383
:1067FB002469F80F0808BF0C047F007869E630E4C1
:10680B00F200E50CC39F5020050C7480250CF8E6B4
:10681B00FDA68108E6AE0CBE0B0274FFCDF8E86D49
:10682B0060E008E6C0E080F6E50CD39F4027E50C5E
:10683B002481F8E6AE0CBE0B0274FFFD18E6CDF812
:10684B00E5816D6006D0E0F61880F5E50C2480C874
:10685B00F6150C80D3E50C232469F87F04C2AFE650
:10686B0030E00310E20C7F0030E10730E3047F08D7
:10687B0054F4547CC6D2AF54804207227880A68150
:0F688B00740B6006FF0876FFDFFB7F0CE4786874
:10689A00F608F608DFFA7869763090910274019367
:1068AA00C0E0E493C0E0438901758A07758CB8D2C9
:0768BA008CD2AFD2A9220B22
:107590009001B0EBF0A3EAF0A3E9F0A3EDF09001C5
:1075A000B0E0FBA3E0FAA3E0F9A3E0FF75F00BA4C1
:1075B000F58285F083E4122FF3EF75F00BA429F91F
:1075C000EA35F0FA900001E4F5F01231619001B46F
:1075D000E0FFA3E0900003CF8FF012316190000331
:1075E0001230BD9001B330E124E075F00BA4FF90A0
:1075F00001B0E0FBA3E0FAA3E02FF9EA35F0FAE9E5
:107600002403F9E43AFA12309244408022E075F003
:107610000BA4FF9001B0E0FBA3E0FAA3E02FF9EA8E
:1076200035F0FAE92403F9E43AFA12309254BFFF34
:10763000E5F08FF01231429001B3E075F00BA4FF3A
:107640009001B0E0FBA3E0FAA3E02FF9EA35F0FAED
:10765000900009740175F02C1231619000077417C5
:0F76600075F070123161900005E4F5F0023161B0
:0E4632009001B0EBF0A3EAF0A3E9F0A3EDF0E5
:10464000E075F00BA4FF9001B0E0FBA3E0FAA3E05B
:104650002FF9EA35F0FA9000031230BDFDACF054AA
:1046600001FBED5402FFE4C313EF139001B5F07E9C
:1046700000ED54047802CEC313CE13D8F99001B7DD
:10468000F07E00ED54387803CEC313CE13D8F990E2
:1046900001B6F0EB7003024CC49001B3E0FF12903E
:1046A0004F9001B4EFF09001B36024E075F00BA4DB
:1046B000FF9001B0E0FBA3E0FAA3E02FF9EA35F0A8
:1046C000FAE92403F9E43AFA12309244408022E0F5
:1046D00075F00BA4FF9001B0E0FBA3E0FAA3E02F7C
:1046E000F9EA35F0FAE92403F9E43AFA123092547F
:1046F000BFFFE5F08FF01231429001B5E0601090FD
:1047000001B4E06004E4F080069001B47401F0901C
:1047100001B6E060030249939001B0E0FBA3E0FA28
:10472000A3E0F9A3E0FF75F00BA4F58285F08312F6
:104730002F811470030247D71470030248DC24024F
:1047400060030249939001B4E0701A9001B0E0FB5D
:10475000A3E0FAA3E0F975F00BEFA4F58285F083EE
:104760007401122FF39001B3E075F00BA4FFAEF0CB
:104770009001B0E0FBA3E0FAA3E02FF9EA3EFA9043
:104780000001E4F5F01231619000051230BDD394C0
:1047900000E5F0940040159001B0E0FBA3E0FAA31F
:1047A000E02FF9EA3EFA9000050249769001B3E065
:1047B00075F00BA4FF9001B0E0FBA3E0FAA3E02F9B
:1047C000F9EA35F0FAE92403F9E43AFA123092FFF3
:1047D000E5F054FB02498E9001B4E060030248A169
:1047E0009001B3E075F00BA4FF9001B0E0FBA3E0F3
:1047F000FAA3E02FF9EA35F0FA9000011230BDC3B8
:104800009403E5F09400500302490A9001B3E07567
:10481000F00BA4FFAEF0E92403F9E43AFA12309267
:104820004480FDE5F08DF01231429001B0E0FBA331
:10483000E0FAA3E02FF9EA3EFA900001E4F5F01265
:1048400031619001B7E06011E92403F9E43AFA120A
:104850003092FFE5F0440480289001B3E075F00B3E
:10486000A4FF9001B0E0FBA3E0FAA3E02FF9EA3542
:10487000F0FAE92403F9E43AFA123092FFE5F05431
:10488000FB8FF01231429001B0E0FBA3E0FAA3E00D
:10489000F9A3E075F00BA4F58285F0837402024958
:1048A000469001B3E075F00BA4FF9001B0E0FBA3CC
:1048B000E0FAA3E02FF9EA35F0FA900001E4F5F010
:1048C0001231619001B0E0FBA3E0FAA3E0F9A3E0AC
:1048D00075F00BA4F58285F083E4806A9001B4E062
:1048E00060699001B3E075F00BA4FF9001B0E0FBAC
:1048F000A3E0FAA3E02FF9EA35F0FA9000011230B4
:10490000BDC39403E5F094005009900001E475F0F4
:104910000180679000071230BDFF900005E5F08F21
:10492000F0123161900009740175F02C1231619020
:1049300001B0E0FBA3E0FAA3E0F9A3E075F00BA45B
:10494000F58285F083E4122FF380489001B3E0757F
:10495000F00BA4FF9001B0E0FBA3E0FAA3E02FF975
:10496000EA35F0FA9000091230BDD39400E5F094D6
:1049700000400C90000974FFF5F01230F58014E946
:104980002403F9E43AFA123092FFE5F044028FF082
:104990001231429001B6E064016003024B169001AF
:1049A000B0E0FBA3E0FAA3E0F9A3E0FF75F00BA4ED
:1049B000F58285F083122F81146030147003024A4F
:1049C0007E24026003024B169001B4E0701A90013D
:1049D000B0E0FBA3E0FAA3E0F975F00BEFA4F582D9
:1049E00085F0837401122FF3024AF49001B4E07051
:1049F0004E9001B3E075F00BA4FF9001B0E0FBA373
:104A0000E0FAA3E02FF9EA35F0FA9000011230BD88
:104A1000C39403E5F09400900001E45003024AB00F
:104A2000F5F01231619001B0E0FBA3E0FAA3E0F9E8
:104A3000A3E075F00BA4F58285F0837402803990B1
:104A400001B3E075F00BA4FF9001B0E0FBA3E0FA26
:104A5000A3E02FF9EA35F0FA900001E4F5F0123105
:104A6000619001B0E0FBA3E0FAA3E0F9A3E075F0E8
:104A70000BA4F58285F083E4122FF3024B1690010C
:104A8000B4E060709001B3E075F00BA4FF9001B04A
:104A9000E0FBA3E0FAA3E02FF9EA35F0FA90000179
:104AA0001230BDC39403E5F09400500C900001E473
:104AB00075F0011230F5805E9001B0E0FBA3E0FAE2
:104AC000A3E0F9A3E0FF75F00BA4F58285F083E481
:104AD000122FF3EF75F00BA429F9EA35F0FAE92467
:104AE00003F9E43AFA1230924480FFE5F08FF012B5
:104AF000314280229001B3E075F00BA4FF9001B029
:104B0000E0FBA3E0FAA3E02FF9EA35F0FA90000108
:104B1000E4F5F01231619001B6E064026003024DE9
:104B2000119001B0E0FBA3E0FAA3E0F9A3E0FF7568
:104B3000F00BA4F58285F083122F8114603014707D
:104B400003024C3024026003024D119001B4E07066
:104B50001A9001B0E0FBA3E0FAA3E0F975F00BEFC7
:104B6000A4F58285F0837401122FF3024CA2900108
:104B7000B4E06003024BF49001B3E075F00BA4FFC6
:104B80009001B0E0FBA3E0FAA3E02FF9EA35F0FAD8
:104B90009000011230BDC39403E5F094005003026D
:104BA0004C5E9001B3E075F00BA4FFAEF0E9240376
:104BB000F9E43AFA1230924480FDE5F08DF01231BA
:104BC000429001B0E0FBA3E0FAA3E02FF9EA3EFA3D
:104BD000900001E4F5F01231619001B0E0FBA3E038
:104BE000FAA3E0F9A3E075F00BA4F58285F08374D5
:104BF00002024D0E9001B3E075F00BA4FF9001B0DE
:104C0000E0FBA3E0FAA3E02FF9EA35F0FA90000107
:104C1000E4F5F01231619001B0E0FBA3E0FAA3E00B
:104C2000F9A3E075F00BA4F58285F083E4024D0E44
:104C30009001B4E0606C9001B3E075F00BA4FF90BC
:104C400001B0E0FBA3E0FAA3E02FF9EA35F0FA9017
:104C500000011230BDC39403E5F09400500A9000A7
:104C600001E475F0010230F59001B0E0FBA3E0FA39
:104C7000A3E0F9A3E0FF75F00BA4F58285F083E4CF
:104C8000122FF3EF75F00BA429F9EA35F0FAE924B5
:104C900003F9E43AFA123092FFE5F044018FF00292
:104CA00031429001B3E075F00BA4FF9001B0E0FB3E
:104CB000A3E0FAA3E02FF9EA35F0FA900001E4F559
:104CC000F00231619001B3E075F00BA4FF9001B0E8
:104CD000E0FBA3E0FAA3E02FF9EA35F0FAE92403B8
:104CE000F9E43AFA123092FFE5F054F8FEEF547FFF
:104CF000FFEE8FF01231429001B0E0FBA3E0FAA387
:104D0000E0F9A3E075F00BA4F58285F083E4122F9F
:014D1000F3AF
:014D1100227F
:105EE000022530326258302530345825303262581D
:105EF000303030300002253032625831253034588D
:105F0000253032625830303030000225303262584D
:105F10003225303458253034582530345825303423
:105F200058253034582530345825303458253034ED
:105F300058253034582530345825303458253034DD
:105F40005825303262582530326258253032625836
:105F500025303458002530316258002530326258DF
:105F60002530326258253032625825303458253079
:105F70003262582530345825002530326258253099
:105F8000326258253032625825303262582530321C
:105F900062582530326258253032625825303262DC
:105FA0005825303262582025303458253034582056
:105FB00030303030000225303262583330002563F3
:105FC0000030303030000225303262583425630012
:105FD00002253032625835253034583030303000A8
:105FE00002253032625837253030303000022530FB
:105FF0003262583E253034582530326258303030C5
:1060000030000225303262583F2530345825303474
:106010005830303030000225303262584625303456
:10602000582530326258303030300002253032622C
:106030005850253034582530326258253032625855
:106040002530326258253032625825303262582568
:106050003032625825303262582530326258303042
:106060003030000225303262585125303458253006
:106070003458002530326258002530324258000230
:10608000FF253034580000C1814001C0804101C06B
:10609000804100C1814001C0804100C1814000C1F8
:1060A000814001C0804101C0804100C1814000C1E8
:1060B000814001C0804100C1814001C0804101C0D8
:1060C000804100C1814001C0804100C1814000C1C8
:1060D000814001C0804100C1814001C0804101C0B8
:1060E000804100C1814000C1814001C0804101C0A8
:1060F000804100C1814001C0804100C1814000C198
:10610000814001C0804101C0804100C1814000C187
:10611000814001C0804100C1814001C0804101C077
:10612000804100C1814000C1814001C0804101C067
:10613000804100C1814001C0804100C1814000C157
:10614000814001C0804100C1814001C0804101C047
:10615000804100C1814001C0804100C1814000C137
:10616000814001C0804101C0804100C1814000C127
:10617000814001C0804100C1814001C0804101C017
:10618000804100C1814000C0C101C30302C2C606F4
:1061900007C705C5C404CC0C0DCD0FCFCE0E0ACA5F
:1061A000CB0BC90908C8D81819D91BDBDA1A1EDEAF
:1061B000DF1FDD1D1CDC14D4D515D71716D6D2125F
:1061C00013D311D1D010F03031F133F3F23236F66F
:1061D000F737F53534F43CFCFD3DFF3F3EFEFA3A1F
:1061E0003BFB39F9F83828E8E929EB2B2AEAEE2EAF
:1061F0002FEF2DEDEC2CE42425E527E7E62622E21F
:10620000E323E12120E0A06061A163A3A26266A66E
:10621000A767A56564A46CACAD6DAF6F6EAEAA6ADE
:106220006BAB69A9A86878B8B979BB7B7ABABE7E2E
:106230007FBF7DBDBC7CB47475B577B7B67672B2DE
:10624000B373B17170B0509091519353529296566E
:106250005797559594549C5C5D9D5F9F9E5E5A9A9E
:106260009B5B99595898884849894B8B8A4A4E8E2E
:106270008F4F8D4D4C8C448485458747468682429E
:06628000438341818040D0
:107CBF006040025E000000000000000000000000B5
:107CCF0000000000000000000000000000000000A5
:107CDF000000000000000000000000000000000095
:107CEF000000000000000000000000000000000085
:0B7CFF000000000044025A00000000DA
:0B89F900900173EBF0A3EAF0A3E9F09B
:108A04007F01129221E4FBFA7D017F021269A1E445
:108A1400900176F0A3F0900173E0FBA3E0FAA3E0E9
:108A2400F9129148900176E0FCA3E0FDC39FEC9E0F
:108A34005026900173E0FBA3E0FAA3E0F98D828C49
:108A440083122F81FF128F5C900177E004F070C6CF
:088A5400900176E004F080BE01
:018A5C0022F7
:0F91A5007F01129221E4FBFA7D017F020269A192
:0A920E00E4FBFA7D017F020269A172
:107E1D00900005122F81FF127E91EFC454F0900156
:107E2D006AF0A3E4F0900160E0FBA3E0FAA3E0F9AF
:107E3D00900006122F81FF127E91EFFE90016BE0F4
:107E4D002400F090016AE03EF0900160E0FBA3E0B9
:107E5D00FAA3E0F9900007122F81FF127E91EF75C2
:107E6D00F010A4FFAEF090016BE02FF090016AE0EE
:107E7D003EF0900160E0FBA3E0FAA3E0900008F96A
:047E8D00122F81FF30
:027E9100AE073A
:107E9300EEC39430400BEED394395005EE24D0FF5B
:107EA30022EEC39441400BEED394465005EE24C911
:107EB300FF22EEC39461400BEED394665005EE248B
:057EC300A9FF22AF063B
:017EC8002297
:10902C00EFC39400400CEFD39409500674302FFF1B
:10903C008010EFC3940A400AEFD3940F5004743796
:02904C002FFFF4
:01904E0022FF
:0B7C0D009002DDEFF0A905AD03AC0212
:107C1800C3740E9975F00C84FB7A00C3ED9BFEECDF
:107C28009AA3F0A3CEF07E00AF037C007D0C123047
:107C380015EF29FFEC3ECF24FECF34FFA3F0A3EFCE
:107C4800F09002DDE0FF7E00A3E0FCA3E0FD2FFB47
:107C5800EE3CFAEDAE047802CEC313CE13D8F92B5E
:107C6800FBEA3EFA9002DEE0FEA3E0FF7C007D64C2
:107C7800123027C3EB9FFBEA9EFA9002DEE0FEA3D8
:107C8800E0FF7C017D90123027EF2BFBEE3AFAA340
:107C9800E0FEA3E0FF7C007D1F1230157D0C123042
:107CA80027EF2BFFEE3ACF2458CF341BFE7C007D04
:067CB80007123027AF05A2
:017CBE0022A3
:088EFB0090016AFFE03400FE63
:108F0300E4FDC3EE9408501FACD2EC5401F5D270CB
:108F1300F7A2AF9214C2AF75D2028F828E83E0FDA7
:098F2300E4F5D2A21492AFAF05EF
:018F2C002222
:0B8BC100EF2DFD90016AE0FEA3E0FF35
:068BCC00AB07AA06A90593
:108BD200C3EA9408503C128F03EF69603590022279
:108BE200E5D2F0AFD2EF5401F5D270F7A2AF9213F3
:108BF200C2AF75D202AE02AF038F828E83E9F0AFAD
:108C0200D2EF5401F5D270F7A21392AF900222E094
:028C1200F5D299
:018C1400223D
:088F8B00900233EEF0A3EFF0B9
:108F9300128F03AB077A00900234E024019002336E
:108FA300128EFEAD077C00EBFEE42DFBEC3EFEAF24
:018FB30003BA
:018FB400229A
:108F2D00900175ECF0A3EDF0900173EEF0FAA3EF64
:018F3D00F043
:108F3E00A3E0FDAE02128BCC900176E0FD900174A1
:0E8F4E00E02401FF900173E03400FE028BCCA2
:108B14009002E2EBF0A3EAF0A3E9F0A3ECF0A3EDFA
:018B2400F060
:108B25007FFF7DFF9002E5E07002A3E060339002D5
:108B3500E6E024FFF09002E5E034FFF09002E2E089
:108B4500FBA3E475F00112307CA9F0FA122F686FCF
:108B5500FB7A00906086936DFFEB90618693FD80B4
:058B6500C3EFFEEDFF6F
:018B6A0022E8
:0B920300E4122FE1900002ED022FF3B7
:0B002E00900160EBF0A3EAF0A3E9F002
:10003900900003122F81643060030200F490016084
:10004900E0FBA3E0FAA3E0F9127E1D90016BE02F1B
:10005900F090016AE03400F07F017E00128F8B90EE
:10006900016AE06E7003A3E06F6003020FBE9001A6
:1000790060E0FBA3E0FAA3E0F9900004122F816489
:1000890031602D900009127E8DEFC454F0900170FB
:10009900F0900160E0FBA3E0FAA3E090000A127E71
:1000A9008C900170E02FF0E0FD7F047E00128BCC74
:1000B9007F047E00128F03A9077F01128F8BAA0686
:1000C900AB077F037E00128F0390022BEFF09002A3
:1000D90029EAF0A3EBF0900228E9F090022574FFD9
:1000E900F0A3745EF0A374E0020BCE900160E0FB14
:1000F900A3E0FAA3E0F9900003122F816431703A6A
:100109007F04FE128F03A9077F01128F8BAA06AB0A
:10011900077F037E00128F0390022BEFF0900229D4
:10012900EAF0A3EBF0900228E9F090022574FFF0C1
:10013900A3745EF0A374F5020BCE900160E0FBA3FB
:10014900E0FAA3E0F9900003122F81643260030200
:1001590004CC90017074FFF07F0212904FEF70078A
:10016900900170E0547FF07F0312904FEF70079079
:100179000170E054BFF0900163E0FBA3E0FAA3E053
:10018900F99000041232AD9000241230BD20E70727
:10019900900170E054DFF0E92424F9E43AFA1230CE
:1001A90092547FFFE5F08FF012314290017174FF94
:1001B900F07F03128D00EF7007900171E0547FF01A
:1001C9007F04128D00EF7007900171E054DFF07F1A
:1001D90005128D00EF7007900171E054EFF0900166
:1001E9007274FFF07F07128D00EF7007900172E0C3
:1001F90054FEF07F03128D00EF7007900172E054F6
:10020900FDF0E490016AF0A3F090016EF0A3F0FF15
:10021900FE7DC87C4290025AE0F8A3E0F9A3E0FA17
:10022900A3E0FB122C8A90025A501EE0FCA3E0FDC9
:10023900A3E0FEA3E0FF7BCD7ACC79CC783D1229EF
:10024900F390025A123220800712322C000000006B
:100259007F047E00128F03900228EFF0900225742C
:10026900FFF0A3745FF0A3740AF0E4FF7DC87C4239
:10027900900064E0F8A3E0F9A3E0FAA3E0FB122AF6
:10028900E47B007A40799C78451229F3122D359048
:100299000229EEF0A3EFF0E4FFFE7DC87C42900056
:1002A90068E0F8A3E0F9A3E0FAA3E0FB122AE4125C
:1002B9002D3590022BEEF0A3EFF0E4FFFE7DC87C14
:1002C9004290009BE0F8A3E0F9A3E0FAA3E0FB1257
:1002D9002AE47B007A40799C78451229F3122D355E
:1002E90090022DEEF0A3EFF0E4FFFE7DC87C429072
:1002F900009FE0F8A3E0F9A3E0FAA3E0FB122AE4E7
:10030900122D3590022FEEF0A3EFF0A37413F0A392
:100319007488F0E4A3F0A3F0A37413F0A37488F035
:10032900E4A3F0A3F0A37413F0A37488F0E4A3F09A
:10033900A3F0A37413F0A37488F0E4A3F0A3F090DE
:100349000170E0900241F0900171E0900242F0905A
:100359000172E0900243F0E4A3F07B017A02795E36
:100369001252851281D5900172EFF090016AE0FF77
:10037900A3E090016ECFF0A3EFF07F0E7E00128F05
:1003890003900170EFF090022574FFF0A3745FF001
:10039900A37455F0EF540FA3F07B017A02795E1232
:1003A900528512851B900172EFF090016AE0FFA35C
:1003B900E090016ECFF0A3EFF07FE87E03128F0388
:1003C900127E91EFC454F0FB7FE97E03128F031272
:1003D9007E91EF2BFB7F0F7E00128F03AA077F16FA
:1003E900128F0390022AEFF0900229EAF090022876
:1003F900EBF090022574FFF0A3745FF0A3745BF037
:10040900E490022BF0A3F0A3F07B017A02795E124B
:10041900528590016BE02FF090016AE03EF0900167
:100429007074FFF07F02128D00EF7007900170E089
:1004390054FEF07F01128D00EF7007900170E054B7
:10044900FDF0E4FF128D00EF7007900170E054FB9E
:10045900F0128527900172EFF090016AE0FFA3E0A6
:1004690090016ECFF0A3EFF090022574FFF0A37412
:100479005FF0A37479F0E4A3F0A3F0A3F0A3F090E4
:100489000170E090022CF0E4A3F0A3F0A3F0900136
:1004990063E0FBA3E0FAA3E0F990002E122F81900C
:1004A9000230F090008EE0FFA3E0900231CFF0A37C
:1004B900EFF09000C5E0FFA3E0900233CFF0A3EF87
:1004C900020717900160E0FBA3E0FAA3E0F99000AE
:1004D90003122F816433600302072D900004122F49
:1004E90081FFB431089001717431F08010EFB4309C
:1004F900099001717430F00206050207E0E49001E9
:100509006AF0A3F0900160E0FBA3E0FAA3E0F990A0
:10051900016AE0FEA3E0FFF5828E83122F81640356
:10052900601090016BE004F070DA90016AE004F069
:1005390080D2C3EF9438EE940040BF90016CE4F090
:10054900A37435F090016AE0FEA3E0FFA3E0FCA3E9
:10055900E0FDD39FEC9E5026900160E0FBA3E0FAFA
:10056900A3E0F98D828C83122F81646B6015900151
:100579006DE0241DF090016CE03400F080C67F0529
:10058900020AFF900163E0FBA3E0FAA3E0F99000FF
:10059900041232ADE9240EF9E43AFA123092448099
:1005A900FFE5F08FF012314290016CE4F0A374057D
:1005B900F090016BE024FEFF90016AE034FFFE90A9
:1005C900016CE0FCA3E0FD6F7002EC6E602EED247F
:1005D900E3FFEC3403FE900160E0FBA3E0FAA3E043
:1005E900F98D828C83122F81FD128BCC90016DE0E5
:1005F90004F070BD90016CE004F080B5E490016CEA
:10060900F0A3F090016CE0FEA3E0FF64E64E6029E0
:10061900D3EF9412EE94004010EF24E8FFEE340378
:10062900FE128F03EF646B601590016DE004F070AA
:10063900D290016CE004F080CA7F08020AFFE490BE
:10064900016AF0A3F090016EF0A3F07F04FE128F0F
:1006590003900228EFF090022574FFF0A3745FF075
:10066900A374B5F07B017A02795E1252851281D5A5
:10067900900172EFF0E490016CF0A3F090016CE04E
:10068900FEA3E0FF64E64E6069EF24E8FFEE340361
:10069900FE128F03900170EFF090016AE0FDA3E074
:1006A90090016ECDF0A3EDF090022574FFF0A374D4
:1006B9005FF0A374BEF0A3EFF07B017A02795E12BA
:1006C900528512851B900172EFF0D390016DE09471
:1006D9001290016CE094004008900170E0646B6036
:1006E9001190016DE004F0700690016CE004F002D5
:1006F900068590016AE0FFA3E090016ECFF0A3EFB9
:10070900F090022574FFF0A3745FF0A374C1F07B2D
:10071900017A02795E12528590016BE02FF0900107
:100729006A020FA6900160E0FBA3E0FAA3E0F9904A
:100739000003122F81643460030208099000041237
:100749002F8124CF6037146061240260030207E01F
:10075900900163E0FBA3E0FAA3E0F99000041232F0
:10076900ADE9240EF9E43AFA1230924480FFE5F03B
:100779008FF01231429001717430F0805F90016303
:10078900E0FBA3E0FAA3E0F99000041232ADE924FA
:100799000EF9E43AFA1230924480FFE5F08FF01234
:1007A90031429001717431F08032900163E0FBA312
:1007B900E0FAA3E0F99000041232ADE92403F9E468
:1007C9003AFA1230924480FFE5F08FF012314290EC
:1007D90001717432F080057F04020AFF7F047E00F4
:1007E900128F03900228EFF090022574FFF0A37492
:1007F9005FF0A374C6F0900171E0900229020BCE5C
:10080900900160E0FBA3E0FAA3E0F9900003122F46
:10081900816435705E900004127E8DEF75F010A42E
:10082900FF90016AE5F0F0A3EFF0900160E0FBA30F
:10083900E0FAA3E0F9900005127E8D90016BE02F9C
:10084900F090016AE03400F07F047E00128F03907B
:100859000228EFF090022574FFF0A3745FF0A374EF
:10086900D0F090016AE0FFA3E0900229CFF0A3EF56
:10087900020BCE900160E0FBA3E0FAA3E0F990003F
:1008890003122F816437702190013104F07F047EB7
:1008990000128F03900228EFF090022574FFF0A355
:1008A900745FF0A374E0020BCE900160E0FBA3E05B
:1008B900FAA3E0F9900003122F81643E6003020954
:1008C90081127E1D90016BE02FF090016AE03400E7
:1008D900F0900160E0FBA3E0FAA3E0F990000412B4
:1008E9002F816431701F900009127E8DEFC454F07E
:1008F900FD900160E0FBA3E0FAA3E0F990000A1281
:100909007E8D128BC17F047E00128F03AB0790018D
:100919006AE0FEA3E0FF128F0390022BEFF0900232
:1009290028EBF090022574FFF0A3745FF0A374ED37
:10093900F090016AE0FFA3E0900229CFF0A3EFF065
:100949007B017A02795E125285127A957B017A02CD
:10095900795E1289F990016AE0FEA3E0FF642870CC
:1009690003EE6423600BEF7003EE64906003020FE3
:10097900BEE4F5C0C2AD80FE900160E0FBA3E0FAE1
:10098900A3E0F9900003122F81643F6003020AACCF
:10099900127E1D90016BE02FF090016AE03400F0A7
:1009A900D3A3E094FE90016AE0940740307F047E6F
:1009B90000128F03900228EFF090022574FFF0A334
:1009C9007460F0A37402F090016AE0FFA3E0900262
:1009D90029CFF0A3EFF0E4A3F0A3020A9F900160EE
:1009E900E0FBA3E0FAA3E0F9900004122F8164313F
:1009F900706790000A127E8DEF7D00FC900160E027
:100A0900FBA3E0FAA3E0F9900009127E8DEFC4542C
:100A1900F0FEED2400FDEE3CFC900160E0FBA3E05C
:100A2900FAA3E0F990000B127E8DEF75F010A42D5A
:100A3900FDE5F03CFC900160E0FBA3E0FAA3E0F9DE
:100A490090000C127E8D7E00ED2FFDEE3CFC900196
:100A59006AE0FEA3E0FF128F2D7F047E00128F0350
:100A6900A90790016AE0FEA3E0FF128F8B90022B89
:100A7900EEF0A3EFF0900228E9F090022574FFF060
:100A8900A37460F0A37402F090016AE0FFA3E09000
:100A99000229CFF0A3EFF07B017A02795E12528529
:100AA900020D3E900160E0FBA3E0FAA3E0F990009B
:100AB90003122F8164466003020BDB900004122F9E
:100AC900816431702F900005122F81643170259057
:100AD9000006122F81B4301C900007122F81B43404
:100AE90013900008122F81B4370A900009122F8140
:100AF900643960077F027E00028FB5900160E0FBD8
:100B0900A3E0FAA3E0F990000B127E8DEF90016A41
:100B1900F0A3E4F0900160E0FBA3E0FAA3E0F99010
:100B2900000C127E8DEF75F010A4FFAEF090016BF2
:100B3900E02FF090016AE03EF0900160E0FBA3E055
:100B4900FAA3E0F990000D127E8D90016BE02FF071
:100B590090016AE03400F0900160E0FBA3E0FAA3A1
:100B6900E0F990000A122F816431701F90000E1273
:100B79007E8DEFC454F0FD900160E0FBA3E0FAA381
:100B8900E0F990000F127E8D128BC17F047E001256
:100B99008F03AB0790016AE0FEA3E0FF128F039079
:100BA900022BEFF0900228EBF090022574FFF0A3DE
:100BB9007460F0A37416F090016AE0FFA3E090025C
:100BC90029CFF0A3EFF07B017A02795E12528502F8
:100BD9000D3E900160E0FBA3E0FAA3E0F990000369
:100BE900122F8164506003020D4A127E1D90016B21
:100BF900E02FF090016AE03400F0900160E0FBA37F
:100C0900E0FAA3E0F9900004122F816431706D902D
:100C19000170F0900170E0FF64086060900160E08D
:100C2900FBA3E0FAA3E0F975F002EFA42409F58229
:100C3900E435F0F583127E8DEFC454F0FD90016028
:100C4900E0FBA3E0FAA3E0F9900170E075F002A4DB
:100C5900240AF582E435F0F583127E8DEF2DFD909F
:100C69000170E0FF90016BE02FFF90016AE0340012
:100C7900FE128BCC900170E004F080977F047E0017
:100C8900128F03C00790016AE0FEA3E0FF128F03F1
:100C9900C00790016BE02401128EFBC00790016B25
:100CA900E02402128EFBC00790016BE02403128E30
:100CB900FBC00790016BE02404128EFBAB07900187
:100CC9006BE02405128EFBAA0790016BE024061243
:100CD9008EFBA90790016BE02407128EFB9002326C
:100CE900EFF0900231E9F0900230EAF090022FEB38
:100CF900F090022ED0E0F090022DD0E0F090022C7E
:100D0900D0E0F090022BD0E0F0900228D0E0F090F3
:100D1900022574FFF0A37460F0A3742BF090016AAC
:100D2900E0FFA3E0900229CFF0A3EFF07B017A0264
:100D3900795E125285127A957B017A02795E02896F
:100D4900F9900160E0FBA3E0FAA3E0F99000031237
:100D59002F8164516003020FB7127E1D90016BE071
:100D69002FF090016AE03400F0900160E0FBA3E00D
:100D7900FAA3E0F9900009127E8DEFC454F09001B6
:100D89006CF0A3E4F0900160E0FBA3E0FAA3E0F9C2
:100D990090000A127E8DEFFE90016DE02400F09024
:100DA900016CE03EF0900160E0FBA3E0FAA3E0F9FA
:100DB90090000B127E8DEF75F010A4FFAEF090013C
:100DC9006DE02FF090016CE03EF0900160E0FBA334
:100DD900E0FAA3E0F990000C127E8D90016DE02FEE
:100DE900F090016CE03400F0900160E0FBA3E0FAC0
:100DF900A3E0F9900004122F8164316003020E9C74
:100E0900900166F0A3F090016CE0FEA3E0FF900171
:100E190066E0FCA3E0FD6F7002EC6E6076ED25E004
:100E2900FFEC33FEEF240DFFE43EFE900160E0FB92
:100E3900A3E0FAA3E0F98F828E83127E8DEFC4546A
:100E4900F0FD900167E025E0FF900166E033FEEFD9
:100E5900240EFFE43EFE900160E0FBA3E0FAA3E06C
:100E6900F98F828E83127E8DEF2DFD900166E0FE53
:100E7900A3E0FF90016BE02FFF90016AE03EFE12B4
:100E89008BCC900167E004F07006900166E004F0F5
:100E9900020E0FE4900168F0A3F090016EF0A3F048
:100EA9007F04FE128F03900228EFF090022574FF51
:100EB900F0A37460F0A37463F090016AE0FFA3E00B
:100EC900900229CFF0A3EFF090016CE0FFA3E0902E
:100ED900022BCFF0A3EFF07B017A02795E125285E3
:100EE900900169E02FF09001681281DE900172EFA4
:100EF900F0E4900166F0A3F090016CE0FEA3E0FF3E
:100F0900900166E0FCA3E0FD6F7002EC6E605F90FB
:100F1900016BE02DFF90016AE03CFE128F03900106
:100F290071EFF0900168E0FDA3E090016ECDF0A3B0
:100F3900EDF090022574FFF0A37460F0A37473F0D0
:100F4900A3EFF07B017A02795E125285900169E084
:100F59002FF0900168128524900172EFF0900167DB
:100F6900E004F07093900166E004F0020F01900133
:100F790068E0FFA3E090016ECFF0A3EFF0900225A7
:100F890074FFF0A3745FF0A374C1F07B017A027956
:100F99005E125285900169E02FF0900168E03EF001
:100FA9007B017A02795E900172E0FD026F5F7F0238
:050FB9007E00128FB55F
:010FBE002210
:067A95007B017A02795E1C
:0B7A9B00900173EBF0A3EAF0A3E9F008
:107AA600E4A3F0FFFEA3F0A3F0129148900177EE55
:107AB600F0A3EFF07E007F01900177E06E7003A3E4
:107AC600E06F6020900173E0FBA3E0FAA3E0F98F7A
:107AD600828E83122F81FD900176E02DF00FBF007C
:107AE600010E80D490022574FFF0A37460F0A37495
:107AF60079F0900176E0900228F07B017A0179799D
:107B0600125285900179E0FF900173E0FBA3E0FA41
:107B1600A3E0F9900177E0FCA3E0FDF5828C83EF0A
:107B2600122FF390017AE08D828C83A3122FF390AB
:107B36000177E0FEA3E0FFF5828E83A3A374031210
:0D7B46002FF38F828E83A3A3A3E4022FF3FD
:1081D50090016BE02FF090016AE03EF07B017A029E
:0481E500795EE4FDDE
:0E81E900900173EBF0A3EAF0A3E9F0A3EDF030
:1081F700E4A3F0A3F01291A5900173E0FBA3E0FACA
:10820700A3E0F9122F68FF128F5C900177E4F0A3C7
:1082170004F0900173E0FBA3E0FAA3E0F9129148A0
:10822700900177E0FCA3E0FD6F7002EC6E602C908C
:108237000173E0FBA3E0FAA3E0F98D828C83122F90
:1082470081FF900176E02FF0128F5C900178E004B7
:10825700F070BF900177E004F080B7900176E0FFFF
:0182670022F4
:106F5F00900176EDF0900173EBF0A3EAF0A3E9F066
:106F6F00E4900177F0A3F0A3F0A3F0129148900101
:106F7F0079EEF0A3EFF0E4900177F0A3F0900179B0
:106F8F00E0FEA3E0FF900177E0FCA3E0FD6F70024D
:106F9F00EC6E602C900173E0FBA3E0FAA3E0F98D97
:106FAF00828C83122F81FF900176E02FF0128F5C7D
:106FBF00900178E004F070C5900177E004F080BD97
:106FCF0090022574FFF0A37460F0A37479F0900120
:106FDF0076E0900228F07B017A01797B125285903E
:106FEF00017BE0FF900173E0FBA3E0FAA3E0F990CF
:106FFF000179E0FCA3E0FDF5828C83EF122FF38D76
:10700F00828C83122F81FF128F5C90017CE0FF90A6
:10701F000173E0FBA3E0FAA3E0F990017AE0240109
:10702F00FD900179E03400FC8D82F583EF122FF390
:10703F008D828C83122F81FF128F5C900173E0FB86
:10704F00A3E0FAA3E0F990017AE02402FF9001791E
:10705F00E03400FE8F82F5837403122FF38F828E3C
:10706F0083122F81FF128F5C900173E0FBA3E0FA74
:10707F00A3E0F990017AE02403FF900179E0340056
:08708F008F82F583E4022FF368
:10851B0090016BE02FF090016AE03EF07B017A0254
:07852B00795E900172E0FD92
:0E853200900173EBF0A3EAF0A3E9F0A3EDF0E3
:10854000E4A3F0A3F0900177F0A3F0900173E0FBB7
:10855000A3E0FAA3E0F9129148900177E0FCA3E0D0
:10856000FD6F7002EC6E602C900173E0FBA3E0FAEB
:10857000A3E0F98D828C83122F81FF900176E02F8A
:10858000F0128F5C900178E004F070BF900177E00A
:0985900004F080B7900176E0FFD1
:0185990022BF
:108FB50090022574FFF0A37460F0A3747FF0A3EE14
:108FC500F0A3EFF07B017A02795E125285127A9551
:098FD5007B017A02795E0289F940
:0B86FD00900160EEF0A3EFF0A3EDF0A1
:10870800E4A3F0A3F0F0128E50900162E014FEA3EF
:10871800E0D39E4004E4F0A3F0EFB4020B900164B0
:108728007401F0E4900163F0900164E0B4011B90DF
:108738000163E0FE900160E0FCA3E02EF582E43CDA
:10874800F583EFF0900163E004F0EFB403B8900113
:1087580063E0FF900160E0FCA3E02FF582E43CF5C4
:0387680083E4F0B7
:01876B0022EB
:106A00002573005645522E20200025752E25752E03
:106A1000257500416464722E2000253575002530EF
:106A200031752E4175746F00253031752E687438BC
:106A30003500253031752E687437350025303175B5
:106A40002E464F535400312E5F5F5F5F005341501D
:106A5000494A00647279657200000000000002007B
:106A6000000002200120200405060708090A0B0C7B
:106A70000D0E0F101112131415161718191A1B1CCE
:106A80001D1E1F00210A232425260428292A2B2C19
:106A9000402E2F3F0376674B6D7D077F6F3A3B3C5F
:106AA000603E3F405F793C737C5C3D5B18335A38F5
:106AB00051513F5E4F506D783B3B31496B765B5C8B
:106AC0005D4E20415F793C737C5C3D5910335A38F0
:106AD0005151715E4F506D78313B31496B767B7C03
:106AE0007D7E7F808182838485868788898A8B8C5E
:106AF0008D8E8F909192939495969798999A9B9C4E
:106B00009D9E9FA0A1A2A3A4A5A6A7A2A9AAABAC43
:106B1000ADAEAF4EB1B2B3B4B5B6B7B5C5BABBBC86
:106B2000BDBEBF41A042A1E045A3A4A5A64BA74D71
:106B3000484FA8504354A9AA58E1ABACE2ADAE62AD
:106B4000AFB0B161B2B3B4E365B6B7B8B9BABBBC64
:106B5000BD6FBE7063BF79AA78E5C0C1E6C2C3C489
:036B6000C5C6C7E0
:107D0A0041013100440152000000004100CE00420E
:107D1A00005B0000410058014101040041000600D7
:107D2A0041005D004200CC00004200590000C11F22
:107D3A00410000004100010042000200004200042C
:027D4A00000037
:03001300020006E2
:0100060032C7
:03000300020007F1
:0100070032C6
:03002B00026E243E
:0D6E2400C0E0C0F0C083C082C0D075D0189F
:106E3100900156E4F0A3F0C2CF9000CDE004F070D1
:106E4100069000CCE004F0900004E0FEA3E0FF9087
:106E51000001E0600514F0026F54900001740FF01E
:106E6100900131E07009309404C2948002D2949070
:106E71000152E0FCA3E0FDA3E0FEA3E02401FFE456
:106E81003EFEE43DFDE43CFC900152123220E55609
:106E91007012855456E55520E0054355018007538E
:106EA10055FE80021556900000E014603114604CCC
:106EB100146067147003026F3924046003026F5475
:106EC100C2ECE55520E005E55320E7058541C0808A
:106ED1000375C000D2E89000007401F08075C2E82B
:106EE100E55520E005E55320E6058542C0800375A0
:106EF100C000D2E99000007402F08057C2E9E55564
:106F010020E005E55320E5058543C0800375C000F9
:106F1100D2EA9000007403F08039C2EAE55520E01E
:106F210005E55320E4058544C0800375C000D2EB1C
:106F31009000007404F0801BC2EBE55520E005E5EC
:106F41005320E3058545C0800375C000D2EC900055
:036F510000E4F069
:0B6F5400D0D0D082D083D0F0D0E0324B
:0B7EC900900253EBF0A3EAF0A3E9F0F5
:107ED400E4A3F0A3F0FD900253E0FBA3E0FAA3E0D7
:107EE4002406F9E43AFAED7E0029F9EE3AFA122F63
:107EF400686076900257F0ED2407FFEE33FE90029F
:107F040053A3E0FAA3E0F98F828E83122F81FC90B1
:107F14000257E0642E604E900017122F81FF9002EA
:107F240056E0FEC39F503EEC642E600EEC642C6061
:107F340009EC643A6004ECB43B0D900257E0906A9B
:107F44006393FC44808008900257E0906A639390A6
:107F54000257F0900257E08E82758300122FF3903F
:097F64000256E004F00D027EDA81
:017F6D0022F1
:104D1200E4900158F0A3F090015CF0A3F0A3F0A39B
:104D2200F07D01FF1288487D017F011288487D01D4
:104D32007F021288487D017F031288487D017F042B
:104D42001288487D017F05128848E4FF129221E50E
:104D52008730E42E7F207E00128F8B90015AEEF076
:104D6200A3EFF0E004F0700690015AE004F0900125
:104D72005AE0FCA3E0FD7F207E00128F2D5387EFC7
:104D820080297F227E00128F8B90015AEEF0A3EFD2
:104D9200F0E004F0700690015AE004F090015AE04D
:104DA200FCA3E0FD7F227E00128F2D7F047E001285
:104DB2008F03900006EFF0E4F541F542F543F54428
:104DC200F5457554C8F55375CA1E75CBFFD2AD753E
:104DD200B710D2BDD2CA7558059000CE04F07F0537
:104DE2001268C17F0A1268C190022574FFF0A37491
:104DF2006AF0A37400F0A374FFF0A3746AF0A374C2
:104E020053F07B007A0079471252857F0A12696754
:104E1200E4FBFA7D637F021269A190022574FFF020
:104E2200A3746AF0A37403F07B007A0079471252EC
:104E3200857F0A126967E4FBFA7D637F021269A12A
:104E420090022574FFF0A3746AF0A3740AF0906ACA
:104E52005DE493FF740193900228CFF0A3EFF090EA
:104E62006A5FE493FF74019390022ACFF0A3EFF0FC
:104E7200906A61E493FF74019390022CCFF0A3EF48
:104E8200F07B007A0079471252857B007A007947DD
:104E9200129148C3EF9407EE6480948050377B00F0
:104EA2007A00794712914890015AEEF0A3EFF09000
:104EB200015AE0FEA3E0FFC39407EE94005013747E
:104EC200472FF87620E004F070E590015AE004F0F4
:104ED20080DDE4F54E7F0A126967E4FBFA7D637FA9
:104EE200021269A1900006E0FF90015AE4F0A3EFDC
:104EF200F090022574FFF0A3746AF0A37413F07BA0
:104F0200007A0079471252857F0A126967E4FBFA38
:104F12007D637F021269A190022574FFF0A3746A77
:104F2200F0A3741AF090015AE0FFA3E0900228CF98
:104F3200F0A3EFF07B007A0079471252857F0A12C4
:104F42006967E4FBFA7D637F021269A17F317E000B
:104F5200128F0390008EE4F0A3EFF07F307E0012F8
:104F62008F03900063EFF07F327E00128F03EF9089
:104F7200008CF0A3E4F07F33FE128F03900081EFE8
:104F8200F07F347E00128F0390007CEFF07F357E3D
:104F920000128F03900092EFF07F367E00128F0393
:104FA200900094EFF0E490007FF07F41FE128F03B7
:104FB2009000C5E4F0A3EFF07F407E00128F0390D3
:104FC200009AEFF07F427E00128F03EF9000C3F051
:104FD200A3E4F07F43FE128F039000B8EFF07F440A
:104FE2007E00128F039000B3EFF07F457E00128F98
:104FF200039000C9EFF07F467E00128F039000CB32
:10500200EFF09000B67401F0E490015AF0A3F09032
:10501200015AE0FEA3E0FFC39402EE9400400302B3
:1050220050CC90006375F037EF123281EE75F03795
:10503200A42583F583E014601914602514603124DB
:1050420003705090022574FFF0A3746AF0A3741EDB
:10505200802B90022574FFF0A3746AF0A374288059
:105062001C90022574FFF0A3746AF0A37432800DC1
:1050720090022574FFF0A3746AF0A3743CF09001CF
:105082005BE02401FE90015AE03400900228F0A374
:10509200CE800D90022574FFF0A3746AF0A37446CB
:1050A200F07B007A0079471252857F0A126967E421
:1050B200FBFA7D637F021269A190015BE004F0704C
:1050C2000690015AE004F002501190022574FFF09C
:1050D200A3746AF0A3744DF07B007A0079471252F0
:1050E200857F0A126967E4FBFA7D637F021269A178
:1050F2007F0B1268C1129006E4FBFA7D327F021226
:1051020069A1D29C9001047401F07F091268C17FE9
:10511200071268C17F081268C17E007F077D4012B6
:1051220086FD900008E0FFB4300F900009E0B43033
:105132000890000AE06430602B127E91EFC454F0B4
:10514200900158F0900009E0FF127E91900158E022
:105152002FF0900006E0FF900159F0900158E0FE18
:10516200EFB506B5E4900158F0A304F0900159E0C0
:10517200FFD3944050A374072FF582E43400F583E3
:10518200E0FCB40332900159E0D394024029E0FFDD
:105192002406F582E43400F583E0FE900158E0C372
:1051A2009EFD74052FF582E43400F583E0FEC3ED25
:1051B2009E900158F0800C900158E02CF0A3E0047E
:1051C200F080A9AF06127E91EF75F010A4FFAEF049
:1051D200C006C007900159E02406F582E43400F5C8
:1051E20083E0FF127E91EFFDD0E02DFFD0E034008E
:1051F200FE900158E06F7001EE600302511BE490D3
:105202000104F0C29C7B0190016304F0A37400F0DE
:0E521200A374CFF07A00790712002E02511B10
:0C91EB00E4FBFA7D0A7F801269A180F489
:0C91F700E4FBFA7D5A7F021269A180F4AB
:10859A007B017A0179059001B4E4F0A304F0E4FDCB
:1085AA001275907B017A0179059001B4E4F0A30475
:1085BA00F0FD1275907B017A0179059001B4E4F01F
:1085CA00A37403F07D021275907B017A01790590FC
:1085DA0001B4E4F0A37403F0FD127590E49001AFC6
:1085EA00F09001AFE0FDC3940450117B017A017948
:1085FA00051246329001AFE004F080E5E4FBFA7D13
:08860A00027F801269A180D4F7
:1074A1007F317E00128F0390008EE4F0A3EFF07F16
:1074B100307E00128F03900063EFF07F327E001266
:1074C1008F03EF90008CF0A3E4F07F33FE128F0363
:1074D100900081EFF07F347E00128F0390007CEFEB
:1074E100F07F357E00128F03900092EFF0A3F07FC2
:1074F100367E00128F03900094EFF0E490007FF04D
:107501007F41FE128F039000C5E4F0A3EFF07F40AE
:107511007E00128F0390009AEFF07F427E00128F5F
:1075210003EF9000C3F0A3E4F07F43FE128F0390BA
:1075310000B8EFF07F447E00128F039000B3EFF0AC
:107541007F457E00128F039000C9EFF0A3F07F46C4
:107551007E00128F039000CBEFF09000B67401F023
:10756100FB7A00795E1273A87B017A007995127318
:10757100A87B017A00795E128B6B7B017A00799589
:0F758100128B6BE4FBFA7D0A7F021269A180E294
:10782C00E49001DBF0A3F0A3F0A3F0A3F0A3F0A38A
:10783C00F0A3F0A3F0FF9001E7F0A37400F0A374A1
:10784C0041F0A37401F0A37400F0A3745EF07B010B
:10785C007A007947128268E4FFFE128F03EF54031B
:10786C00FF9001E77401F0A37401F0A37405F0A379
:10787C00E4F0A37400F0A37441F0A37401F0A374BA
:10788C0000F0A37447F0A374FFF0A3748BF0A374FF
:10789C00CCF0A374FFF0A3748FF0A37403F0A3E4F3
:1078AC00F0A3EFF07B007A00792512774E7F0E7EE5
:1078BC0000128F03EF60069000E4E070277B007AE3
:1078CC000079257D01121D18E526452560119000D3
:1078DC004AE4F0A37414F090005D7401F08005E4A8
:1078EC0090005DF07B017A007947125B09E4FBFAAA
:0978FC007D0A7F021269A180B42B
:10849500E4FF7B0190021C04F0A37401F0A37405B2
:1084A500F01BA3EBF0A37400F0A37425F0A3EBF08D
:1084B500A37400F0A37441F00BA3EBF0A37400F0D8
:1084C500A37447F0A3EBF0A37400F0A3745EF0A3CC
:1084D50074FFF0A3748BF0A374CCF0A374FFF0A326
:1084E500748FF0A37403F0E4A3F0A3F07A0079CFBE
:1084F500126CC5E4900059F0A3F0FFE52645257000
:10850500097B017A0079CF120FBFE4FBFA7D0A7F60
:06851500801269A180E55F
:108FDE00E4FBFAFD7F011269A17F0A12694A7B0048
:108FEE007A007941127EC9E4FBFA7D057F0212698F
:088FFE00A17F0B12696780D806
:108EC800E4900258F07F0A126967E4FBFA7D057F97
:108ED800021269A1E4FBFAFD7F011269A17F0B125E
:108EE800694A7F0A126967E4FBFA7D057F02126905
:038EF800A180E175
:09921800EF7003C29422D29422EB
:09922100EF7003C29322D29322E4
:09922A00EF7003C29322D29322DB
:1090D000EF14600C047011ED6003D29022C2902254
:0990E000ED6003D29622C2962233
:1090E900EF14600C047011ED6003D29522C2952231
:0990F900ED6003D29722C2972218
:10884800EFB408005066908855F828287302886DA0
:1088580002887602887F02888802889102889A02B4
:1088680088A30288ACED7003C2ED22D2ED22ED7030
:1088780003C2EE22D2EE22ED7003C2EF22D2EF2223
:10888800ED7003C2A422D2A422ED7003C2A322D2A7
:10889800A322ED7003C2A222D2A222ED7003C2A1CC
:0D88A80022D2A122ED7003C2A022D2A02294
:108D0000EFB408005041908D0DF8282873028D258E
:108D1000028D29028D2D028D31028D35028D390291
:108D20008D3D028D41A2ED801AA2EE8016A2EF8049
:108D300012A2A4800EA2A3800AA2A28006A2A180F1
:0A8D400002A2A0E433FF227F01220B
:10904F00EF14600E14600F14601024037012A2A5A9
:10905F00800AA2A68006A2A78002A291E433FF2273
:03906F007F01225C
:10915D00EF14600704700AA2908002A296E433FF18
:04916D00227F01223A
:10917100EF14600704700AA2958002A297E433FFFE
:04918100227F012226
:09923300EF7003C29522D29522CE
:09923C00EF7003C29022D29022CF
:06925700A295E433FF22A2
:06925D00A290E433FF22A1
:09924500EF7003C29722D29722B8
:09924E00EF7003C29622D29622B1
:06926300A297E433FF2294
:06926900A296E433FF228F
:107D4C004102D0004102D3004102D2FF4102CE00D9
:107D5C004102D1004102CFFFC11DC11CC11E410215
:027D6C00D40041
:108E8D00201D37C2AC201C09201E06D21C8F9980D4
:108E9D00279002D3E0FE04F0EE7C00541F24AEF5C3
:108EAD0082EC3402F583EFF09002D0E0FF9002D314
:0B8EBD00E06F541F7002D21DD2AC22E7
:108F5C00900252EFF0301D1912698E9002D2EFF090
:108F6C00E4FBFAFD7F011269A19002D274FFF0803C
:0F8F7C00E4900252E0FF128E8D900252E0FF222D
:108E50009002CEE0FF9002D1E0B5071912698E9022
:108E600002CFEFF0E4FBFAFD7F011269A19002CF7F
:108E700074FFF080DB9002CEE0FF04F07E00EF5440
:0C8E80000F249EF582EE3402F583E0FF23
:018E8C0022C3
:030023000279055A
:0D790500C0E0C0F0C083C082C0D075D010BB
:10791200309858900259E599F0C298309C4D9001E8
:1079220004E06047900259E0B40305E4FF12699154
:107932009002CEE02410FFE433FE9002D1E06F709B
:1079420001EE601C900259E0FF9002D1E0FE04F0CB
:10795200EE7C00540F249EF582EC3402F583EFF0A6
:107962009002CFE0FFF4600312696730995AC2991E
:10797200D2209002D4E0B4010EE4F0FF12922190E2
:1079820001047401F0D29C9002D3E0FF9002D0E097
:107992006F6033E0FF04F07E00EF541F24AEF582E7
:1079A200EE3402F583E0900259F0E0FFB403069052
:1079B20002D47401F08F99C21D9002D2E0FFF460EC
:0879C200071269678002C21C74
:0B79CA00D0D0D082D083D0F0D0E032CB
:10900600E4FF759850438921758DFAD28E7E1090B3
:10901600029EE4F0A3DEFCE4FF7E209002AEE4F0C4
:05902600A3DEFCD2AC4A
:01902B002222
:1071A80000316253C4F5A697B988DBEA7D4C1F2EDF
:1071B8004372211087B6E5D4FACB98A93E0F5C6DCF
:1071C80086B7E4D5427320113F0E5D6CFBCA99A8BF
:1071D800C5F4A796013063527C4D1E2FB889DAEBAF
:1071E8003D0C5F6EF9C89BAA84B5E6D7407122139F
:1071F8007E4F1C2DBA8BD8E9C7F6A594033261508F
:10720800BB8AD9E87F4E1D2C02336051C6F7A4957E
:10721800F8C99AAB3C0D5E6F4170231285B4E7D66E
:107228007A4B1829BE8FDCEDC3F2A190073665545E
:1072380039085B6AFDCC9FAE80B1E2D3447526174E
:10724800FCCD9EAF38095A6B4574271681B0E3D23E
:10725800BF8EDDEC7B4A192806376455C2F3A0912E
:107268004776251483B2E1D0FECF9CAD3A0B58691E
:1072780004356657C0F1A293BD8CDFEE79481B2A0E
:10728800C1F0A3920534675678491A2BBC8DDEEFFE
:1072980082B3E0D1467724153B0A5968FFCE9DACEE
:10898F009001BEE0FBA3E0FAA3E0F990001F122FC5
:02899F0081FF56
:1089A100E4FEAD07ED548060010EAD07ED5440606B
:1089B100020E0EAD07ED5420600474042EFEAD07C7
:1089C100ED5410600474082EFEAD07ED54086004E8
:1089D10074102EFEAD07ED5404600474202EFEAD1C
:1089E10007ED5402600474402EFEAD07ED540160A2
:0789F1000474802EFEAF06A6
:0189F800225C
:10838700900025741E122FF3900032E4F5F012319D
:1083970061900024E4122FF390001FE4122FF39052
:1083A7000020E4122FF390001AE4122FF390001B21
:1083B700E4122FF390001CE4122FF3900006123200
:1083C7005D0000000090000A12325D00000000907E
:1083D700000E12325D0000000090001212325D00A4
:1083E70000000090001DE4122FF3900023122F814C
:1083F700900022122FF390002E1230BDFF90002C18
:07840700E5F08FF002316186
:1090B2009001C1EFF0FD9001BEE0FBA3E0FAA3E056
:0190C200F9B4
:0D90C30090001F122F816D9071A893FF2265
:0D80AB009001C8E0FBA3E0FAA3E0F9E4FDBA
:0E80B8009001D6EBF0A3EAF0A3E9F0A3EDF0FF
:1080C600900021122F81FF1290E9E49001DAF090DE
:1080D60001D6E0FBA3E0FAA3E0F9900021122F817C
:1080E600FF1291719001D6E0FBA3E0FAA3E0F990AC
:1080F6000025122F81FE9001DAE0C39E501E9001EA
:10810600D9E06F6006A3E004F080C4E92430F9E406
:108116003AFA123092FFE5F054FB80189001D6E04F
:10812600FBA3E0FAA3E02430F9E43AFA123092FF16
:09813600E5F044048FF01231421F
:01813F00221D
:0D8140009001CEE0FBA3E0FAA3E0F97D0181
:0E814D009001D1EBF0A3EAF0A3E9F0A3EDF06E
:10815B00900021122F81FF1290D0E49001D5F09066
:10816B0001D1E0FBA3E0FAA3E0F9900021122F81EB
:10817B00FF12915D9001D1E0FBA3E0FAA3E0F9902F
:10818B000025122F81FE9001D5E0C39E501E900159
:10819B00D4E06F6006A3E004F080C4E92430F9E476
:1081AB003AFA123092FFE5F054F780189001D1E0C3
:1081BB00FBA3E0FAA3E02430F9E43AFA123092FF81
:0981CB00E5F044088FF012314286
:0181D4002288
:108D4A009001BEE0FBA3E0FAA3E02430F9E43AFA8A
:108D5A00123092FFE5F054EF8FF01231429001BECB
:0F8D6A00E0FBA3E0FAA3E0F990001DE4122FF361
:108D79009001D612322C000000001267F7E4FBFACA
:078D89007D017F020269A1D8
:0B8A5D009001D1EBF0A3EAF0A3E9F0D8
:108A6800900021122F81FF7D011290D09001D11228
:108A780080AE128D799001D4E4F0A304F09001D176
:108A8800E0FBA3E0FAA3E0F97D011280B8128D792A
:108A98009001D11280AE128D799001D5E004F0706A
:108AA800069001D4E004F09001D4E07004A3E064DF
:038AB8002870CA59
:018ABB002298
:10840E009001CEEBF0A3EAF0A3E9F09001CEE0FBF1
:10841E00A3E0FAA3E0F9128A5D9001CEE0FBA3E09F
:10842E00FAA3E0F9900021122F81FF7D011290D066
:10843E00128140128D799001CEE0FBA3E0FAA3E009
:10844E00F97D011280B8128D799001CEE0FBA3E088
:10845E00FAA3E0F9E4FD12814D128D799001CE124E
:10846E0080AE128D799001CEE0FBA3E0FAA3E0F985
:10847E007D011280B8128D79128140128D79900192
:07848E00CE1280AE028D79D1
:106286009001BEE0FBA3E0FAA3E0F9900020EF1234
:046296002FF37D1E47
:10629A009001CBEDF09001C8EBF0A3EAF0A3E9F08E
:1062AA0012840E9001CBE0A3F05480F09001C870E4
:1062BA000CE0FBA3E0FAA3E0F9E4FD800AE0FBA30B
:1062CA00E0FAA3E0F97D0112814D128D799001C89F
:1062DA00E0FBA3E0FAA3E0F97D011280B8128D7900
:1062EA001280AB128D799001CBE0A3F05440F0906C
:1062FA0001C8700CE0FBA3E0FAA3E0F9E4FD800A10
:10630A00E0FBA3E0FAA3E0F97D0112814D128D7939
:10631A009001C8E0FBA3E0FAA3E0F97D011280B87E
:10632A00128D791280AB128D799001CBE0A3F054D3
:10633A0020F09001C8700CE0FBA3E0FAA3E0F9E4B6
:10634A00FD800AE0FBA3E0FAA3E0F97D0112814D8A
:10635A00128D799001C8E0FBA3E0FAA3E0F97D0170
:10636A001280B8128D791280AB128D799001CBE030
:10637A00A3F05410F09001C8700CE0FBA3E0FAA35C
:10638A00E0F9E4FD800AE0FBA3E0FAA3E0F97D016D
:10639A0012814D128D799001C8E0FBA3E0FAA3E0C7
:1063AA00F97D011280B8128D791280AB128D799025
:1063BA0001CBE0A3F05408F09001C8700CE0FBA3F5
:1063CA00E0FAA3E0F9E4FD800AE0FBA3E0FAA3E027
:1063DA00F97D0112814D128D799001C8E0FBA3E08D
:1063EA00FAA3E0F97D011280B8128D791280AB12FE
:1063FA008D799001CBE0A3F05404F09001C8700CA1
:10640A00E0FBA3E0FAA3E0F9E4FD800AE0FBA3E0E5
:10641A00FAA3E0F97D0112814D128D799001C8E04D
:10642A00FBA3E0FAA3E0F97D011280B8128D79127C
:10643A0080AB128D799001CBE0A3F05402F0900169
:10644A00C8700CE0FBA3E0FAA3E0F9E4FD800AE0DF
:10645A00FBA3E0FAA3E0F97D0112814D128D799038
:10646A0001C8E0FBA3E0FAA3E0F97D011280B812AB
:10647A008D79128D791280AB128D799001CBE0A3C0
:10648A00F05401F09001C8700CE0FBA3E0FAA3E01D
:10649A00F9E4FD800AE0FBA3E0FAA3E0F97D01122A
:1064AA00814D128D799001C8E0FBA3E0FAA3E0F9CF
:1064BA007D011280B8128D799001C8E0FBA3E0FA41
:1064CA00A3E0F9900021122F81FF7D011290D012D2
:1064DA008D791280AB128D799001C8E0FBA3E0FAA6
:1064EA00A3E0F9900021122F81FF12915D9001CD56
:1064FA00EFF09001C8E0FBA3E0FAA3E0F97D0112F6
:10650A0080B8128D791280AB128D79128D79128D25
:0F651A0079128D799001CDE060037F01227F001F
:01652900224F
:0D652A009001BEE0FBA3E0FAA3E0F9E4FD60
:106537009001CBEDF09001C8EBF0A3EAF0A3E9F0EE
:10654700E49001CCF07D011280B89001C8E0FBA374
:10655700E0FAA3E0F9900021122F81FF12915DAEBE
:1065670007EEB401079001CCE04480F0128D7990DA
:1065770001C81280AE128D799001C8E0FBA3E0FA42
:10658700A3E0F97D011280B89001C8E0FBA3E0FA0F
:10659700A3E0F9900021122F81FF12915DAE07EE63
:1065A700B401079001CCE04440F0128D799001C806
:1065B7001280AE128D799001C8E0FBA3E0FAA3E048
:1065C700F97D011280B89001C8E0FBA3E0FAA3E0CF
:1065D700F9900021122F81FF12915DAE07EEB401F1
:1065E700079001CCE04420F0128D799001C8128009
:1065F700AE128D799001C8E0FBA3E0FAA3E0F97D24
:10660700011280B89001C8E0FBA3E0FAA3E0F9907B
:106617000021122F81FF12915DAE07EEB4010790A2
:1066270001CCE04410F0128D799001C81280AE12AF
:106637008D799001C8E0FBA3E0FAA3E0F97D011290
:1066470080B89001C8E0FBA3E0FAA3E0F99000212D
:10665700122F81FF12915DAE07EEB401079001CCB6
:10666700E04408F0128D799001C81280AE128D793E
:106677009001C8E0FBA3E0FAA3E0F97D011280B81E
:106687009001C8E0FBA3E0FAA3E0F9900021122FE4
:1066970081FF12915DAE07EEB401079001CCE04493
:1066A70004F0128D799001C81280AE128D79900195
:1066B700C8E0FBA3E0FAA3E0F97D011280B89001DE
:1066C700C8E0FBA3E0FAA3E0F9900021122F81FFB5
:1066D70012915DAE07EEB401079001CCE04402F0E1
:1066E700128D799001C81280AE128D799001C8E0A1
:1066F700FBA3E0FAA3E0F97D011280B89001C8E09E
:10670700FBA3E0FAA3E0F9900021122F81FF129179
:106717005DAE07EFB401079001CCE04401F0128DA4
:10672700799001C81280AE9001CBE09001C8B40106
:1067370013E0FBA3E0FAA3E0F9900021122F81FFF9
:106747007D018011E0FBA3E0FAA3E0F9900021129C
:106757002F81FFE4FD1290D0128D799001C8E0FBE4
:10676700A3E0FAA3E0F97D011280B8128D799001B8
:10677700C81280AE9001C8E0FBA3E0FAA3E0F9904D
:106787000021122F81FF7D011290D0128D79900187
:03679700CCE0FF54
:01679A0022DC
:0B8CB3009001BEE0FBA3E0FAA3E0F993
:108CBE009001C8EBF0A3EAF0A3E9F09001C8E0FB45
:108CCE00A3E0FAA3E0F9900021122F81FF7D01129B
:108CDE0090D0E4FBFA7D017F021269A19001C8E0F9
:108CEE00FBA3E0FAA3E0F9900021122F81FF12916D
:028CFE005D22F5
:0F91B4007F1E7D1E12629A9002EEEFF0028D79FF
:0B3D75009001BEEBF0A3EAF0A3E9F020
:103D8000900024122F81D3940840129001BEE0FBD2
:103D9000A3E0FAA3E0F9900024E4122FF39001BE0F
:103DA000E0FBA3E0FAA3E0F99000301230BD20E080
:103DB0004FE92430F9E43AFA123092FFE5F054FE6C
:103DC0008FF01231429001BEE0FBA3E0FAA3E0F9CC
:103DD0009000301230BD20E11490000612325D00D8
:103DE00000000090000A12325D000000009001BE49
:103DF000E0FBA3E0FAA3E0F99000247408122FF38B
:103E00009001BEE0FBA3E0FAA3E0F9900024122F9A
:103E100081B409004003024631903E20F8282873FF
:103E2000023E3B023F6C023F9D0241620241D702CB
:103E300042480242820245E902461690000E1231C3
:103E40009C9000061231F0122C8A6003023ED8903A
:103E500001BEE0FBA3E0FAA3E0F990002E1230BD12
:103E6000FFAEF04E607290002C1230BD45F0600D38
:103E700090002C74FFF5F01230F5023F149001BE53
:103E8000E0FBA3E0FAA3E0F990002CEE8FF01231F2
:103E900061E92430F9E43AFA123092FFE5F0440285
:103EA000FE8FF0123142EE54FE8FF012314290013B
:103EB000BEE0FBA3E0FAA3E0F99000301230BD2091
:103EC000E15290000612325D0000000090000A12DC
:103ED000325D00000000803C9001BEE0FBA3E0FAF0
:103EE000A3E0F990000612319C90000E1231CC90A4
:103EF000002E1230BDFF90002CE5F08FF0123161E2
:103F0000E92430F9E43AFA123092FFE5F054FD8FDB
:103F1000F01231429001BEE0FBA3E0FAA3E0F99079
:103F2000001FE4122FF39001C17403F0FD12629A96
:103F30009001C3EFF0128D799001BEE0FBA3E0FA8F
:103F4000A3E0F9A3E0FD1290C39001BEE0FBA3E063
:103F5000FAA3E0F990001FEF122FF3900032E4F57E
:103F6000F0123161900024740102422F128CB3EFE1
:103F700060189001BEE0FBA3E0FAA3E0F9900022F4
:103F8000122F817002800E0242699001BEE0FBA3F5
:103F9000E0FAA3E0F9900024740202462E128CB3DA
:103FA000EF605B9001BEE0FBA3E0FAA3E0F99000B4
:103FB0001E122F81FF90001D122F81C39F500F9062
:103FC000001D7401122FAE900024E402462E9001D1
:103FD000BEE0FBA3E0FAA3E02430F9E43AFA1230A1
:103FE00092FFE5F044108FF01231429001BEE0FBE9
:103FF000A3E0FAA3E0F9900024740302462E128D88
:104000004A12652A1290B29001BEE0FBA3E0FAA327
:10401000E0F990001FEF122FF3128D79128D7912B3
:10402000652A9001C21290B59001BEE0FBA3E0FAB0
:10403000A3E0F990001FEF122FF37D0112653712F4
:1040400062869001C3EFF0128D799001BEE0FBA370
:10405000E0FAA3E0F99000301230BDE5F054FE60C4
:104060002A90001B7401122FAE90001B122F81D3D7
:1040700094149001BEE0FBA3E0FAA3E0F9900024C1
:104080004005740302462EE402462E12898F9001E9
:10409000BEE0FBA3E0FAA3E0F9900020122F816FAD
:1040A0006008900024740302462E900005122F81B0
:1040B000FBB402059001C48010EB9001C4B4030965
:1040C00012322C40800000800712322C3F8000000A
:1040D0009001C1E0FEA3E07C002400FDEC3EFCE486
:1040E000122CFCC004C005C006C0077F0A7ED77D25
:1040F000237C3C9001C4E0F8A3E0F9A3E0FAA3E03C
:10410000FB122AE4D003D002D001D000122AE4E44A
:10411000FBFA792078C21229F39001C41232209060
:1041200001C4E0FCA3E0FDA3E0FEA3E0FF9001BE1C
:10413000E0FBA3E0FAA3E0F99000161231CC900066
:104140001AE4122FF390001BE4122FF390001CE4EA
:10415000122FF390001DE4122FF390002474040238
:10416000462E9001BEE0FBA3E0FAA3E0F990001A0E
:10417000E4122FF390001BE4122FF390001CE412C2
:104180002FF390001DE4122FF390001DE4122FF383
:10419000900024E4122FF3E92430F9E43AFA1230C3
:1041A00092FFE5F054FE8FF01231429001BEE0FB29
:1041B000A3E0FAA3E0F99000301230BD30E1030231
:1041C000463190000612325D0000000090000A1295
:1041D000325D00000000221267F79001BEE0FBA3F1
:1041E000E0FAA3E0F990001FE4122FF39001C174EC
:1041F00005F0FD12629A9001C3EFF0128D799001E3
:10420000BEE0FBA3E0FAA3E0F9A3E0FD1290C390A7
:1042100001BEE0FBA3E0FAA3E0F990001FEF122F2C
:10422000F3900032E4F5F01231619000247405122D
:104230002FF3900023122F81900022122FF3E4FB22
:10424000FA7D0A7F020269A1128CB3EF602190010E
:10425000BEE0FBA3E0FAA3E0F9900022122F8170E8
:1042600008900024740602462E9000220245FF901A
:1042700001BEE0FBA3E0FAA3E0F99000247406027B
:10428000462E128CB3EF605C9001BEE0FBA3E0FA17
:10429000A3E0F990001E122F81FF90001D122F81C4
:1042A000C39F501090001D7401122FAE9000247413
:1042B0000402462E9001BEE0FBA3E0FAA3E0243006
:1042C000F9E43AFA123092FFE5F044108FF012311F
:1042D000429001BEE0FBA3E0FAA3E0F99000247451
:1042E0000302462E128D4A12652A1290B29001BE28
:1042F000E0FBA3E0FAA3E0F990001FEF122FF31206
:104300008D79128D7912652A9001C21290B59001B3
:10431000BEE0FBA3E0FAA3E0F990001FEF122FF339
:104320007D011265371262869001C3EFF0128D791C
:104330009001BEE0FBA3E0FAA3E0F9900030123058
:10434000BDE5F054FE602A90001B7401122FAE9060
:10435000001B122F81D394149001BEE0FBA3E0FA5E
:10436000A3E0F99000244005740302462EE40246BF
:104370002E12898F9001BEE0FBA3E0FAA3E0F99032
:104380000020122F816F6007900024E402462E90D7
:10439000001612319C9000061231CC900005122FAD
:1043A000816403600302444B9001C1E0FEA3E07C02
:1043B000002400FDEC3EFCE4122CFC7B627ABE790A
:1043C0003C783A122AE4C004C005C006C007900138
:1043D000C1E0FEA3E07C002400FDEC3EFCE4122CD6
:1043E000FCD003D002D001D000122AE4C004C005E2
:1043F000C006C0079001C1E0FEA3E07C002400FDE0
:10440000EC3EFCE4122CFC7B547AE37925783F12D5
:104410002AE4E4FBFA798078C01229F3D003D002B1
:10442000D001D0001229EF9001C41232209001C1B6
:10443000E0FEA3E07C002400FDEC3EFCE4122CFC3A
:104440007BAC7AC579A7783A0244FE9001BEE0FBC6
:10445000A3E0FAA3E0F9900005122F816402900115
:10446000C1E0FEA3E07C002400FDEC3EFCE4122C45
:10447000FC7BA27AE7793B7836122AE4C004C005B7
:10448000C006C0079001C1E0FEA3E07C002400FD4F
:10449000EC3EFCE4122CFCD003D002D001D0001280
:1044A0002AE4C004C005C006C0079001C1E0FEA315
:1044B000E07C002400FDEC3EFCE4122CFC7B547AF2
:1044C000E37925783D122AE4E4FBFA798078C0127A
:1044D00029F3D003D002D001D0001229EF9001C4FB
:1044E0001232209001C1E0FEA3E07C002400FDEC2C
:1044F0003EFCE4122CFC7BAC7AC579A77838122AF2
:10450000E47B0A7AD77923783C1229F3C004C005EA
:10451000C006C0079001BEE0FBA3E0FAA3E0F9905B
:10452000000612319CE4FBFA79C878C11229F3D055
:1045300003D002D001D000122AE49001C4E0F8A315
:10454000E0F9A3E0FAA3E0FB1229F39001C41232D0
:1045500020E4FFFE7DC67C429001C4E0F8A3E0F9B0
:10456000A3E0FAA3E0FB122C8A601940179001BE69
:10457000E0FBA3E0FAA3E0F990000A12325D42C624
:104580000000801F9001C4E0FCA3E0FDA3E0FEA3B7
:10459000E0FF9001BEE0FBA3E0FAA3E0F990000A7F
:1045A0001231CC9001BEE0FBA3E0FAA3E0F9900049
:1045B0001AE4122FF390001BE4122FF390001CE476
:1045C000122FF3E92430F9E43AFA123092FFE5F0C1
:1045D00044018FF01231429001BEE0FBA3E0FAA348
:1045E000E0F9900024740780459001BEE0FBA3E051
:1045F000FAA3E0F9900035122F816008900035741D
:10460000FF022FAE900034122F81900035122FF34D
:10461000900024E480189001BEE0FBA3E0FAA3E040
:10462000F99000301230BD30E007900024E4122FE2
:01463000F396
:014631002266
:1086880025322E30662025322E3066002D2D2D2DD8
:108698002D0025332E3166B0430025332E30667207
:1086A80048002530356275006E6F2E73656E2E009A
:1086B800253162752E5F5F2E5F5F00253162752E52
:1086C80025322E30662E25322E30662E0025316258
:1086D800752E25322E30662E25322E306600253135
:1086E80062752E2D2D2E2D2D2E00253162752E2DE5
:0586F8002D2E2D2D00C8
:108268009001E4EBF0A3EAF0A3E9F0A3E0FBA3E0BC
:10827800FAA3E0F9C003C002C0019001E4E0FBA347
:10828800E0FAA3E0F990000B1232DD9001EAE0FB7E
:10829800A3E0FAA3E0F9C003C002C0019001E4E042
:1082A800FBA3E0FAA3E0F990000E1232DD9001E49E
:1082B800E0FBA3E0FAA3E0F9900008E4122FF374BE
:1082C80007122FE19001E4E0FBA3E0FAA3E0F990A4
:1082D8000003E4F5F012316190000A741E122FF3C6
:1082E80090000A122F81900009122FF3900007E4E2
:0382F800022FF35F
:105B09009001E4EBF0A3EAF0A3E9F09001E4E0FBF3
:105B1900A3E0FAA3E0F99000031230BDFFAEF0F460
:105B29007002EEF47003025EDFEF4E600A9000032C
:105B390074FFF5F00230F5122F68147003025BD27E
:105B4900147003025C3A147003025CA224FC700313
:105B5900025D0D147003025EDF24086003025EB665
:105B690090000E1232AD9000301230BDE5F0900178
:105B7900E430E052E0FBA3E0FAA3E0F990000B1255
:105B890032ADE92406F9E43AFAC003C002C0019033
:105B9900022574FFF0A37486F0A37488F09001E4E1
:105BA900E0FBA3E0FAA3E0F990000E1232AD9000F9
:105BB9000612319C90022812322090000A12319C60
:105BC90090022C025E31025EB99001E4E0FBA3E091
:105BD900FAA3E0F990000E1232AD9000301230BDF8
:105BE900E5F09001E430E046E0FBA3E0FAA3E0F938
:105BF90090000B1232ADE92406F9E43AFAC003C069
:105C090002C00190022574FFF0A37486F0A3749A70
:105C1900F09001E4E0FBA3E0FAA3E0F990000E1292
:105C290032AD90000612319C900228025E31025E6C
:105C3900B99001E4E0FBA3E0FAA3E0F990000E12A9
:105C490032AD9000301230BDE5F09001E430E0460D
:105C5900E0FBA3E0FAA3E0F990000B1232ADE924CE
:105C690006F9E43AFAC003C002C00190022574FFA4
:105C7900F0A37486F0A374A2F09001E4E0FBA3E022
:105C8900FAA3E0F990000E1232AD90000A12319C8D
:105C9900900228025E31025EB99001E4E0FBA3E0C4
:105CA900FAA3E0F990000B1232ADE92406F9E43ABF
:105CB900FAC003C002C00190022574FFF0A37486E4
:105CC900F0A374AAF09001E4E0FBA3E0FAA3E0F9E1
:105CD900900009122F81900228F0D001D002D00340
:105CE9001252859001E4E0FBA3E0FAA3E0F99000E9
:105CF90009122F816002801F90000A122F819000E3
:105D090009022FF39001E4E0FBA3E0FAA3E0F99084
:105D19000009122F81600890000974FF022FAE90CC
:105D2900000A122F81900009122FF3900007122FF9
:105D3900819001E4600EE0FBA3E0FAA3E0F9900092
:105D490007E4800DE0FBA3E0FAA3E0F990000774F3
:105D590001122FF39001E4E0FBA3E0FAA3E0F9902C
:105D69000007122F8175F037A4FFAEF090000E12D4
:105D790032ADE92FF9EA3EFA9000301230BDE5F074
:105D890020E003025E367F0E7E00128F03EF64026D
:105D99009001E4702AE0FBA3E0FAA3E0F990000B7C
:105DA9001232ADE92406F9E43AFAC003C002C0018F
:105DB90090022574FFF0A37486F0A374C38028E0D1
:105DC900FBA3E0FAA3E0F990000B1232ADE9240637
:105DD900F9E43AFAC003C002C00190022574FFF049
:105DE900A37486F0A374D5F09001E4E0FBA3E0FA74
:105DF900A3E0F9900007122F81FF04900228F0EF29
:105E090075F037A4FFAEF090000E1232ADE92FF90C
:105E1900EA3EFA90000612319C9002291232209033
:105E2900000A12319C90022D12322080787F0E7E5A
:105E390000128F03EF64029001E4702AE0FBA3E0F3
:105E4900FAA3E0F990000B1232ADE92406F9E43A1D
:105E5900FAC003C002C00190022574FFF0A3748642
:105E6900F0A374E68028E0FBA3E0FAA3E0F9900030
:105E79000B1232ADE92406F9E43AFAC003C002C0B4
:105E89000190022574FFF0A37486F0A374F2F090D8
:105E990001E4E0FBA3E0FAA3E0F9900007122F81E7
:105EA90004900228F0D001D002D00380269001E4AA
:105EB900E0FBA3E0FAA3E0F990000B1232ADE9246C
:105EC90006F9E43AFA90022574FFF0A37486F0A368
:075ED9007494F012528522BF
:108D90005345545550006164722020002020253036
:108DA00033580020253034750064617461200072EE
:108DB000657365740020202025303258002020255E
:108DC000303375006E65787420002020202020004C
:10774E009001E4EBF0A3EAF0A3E9F09001EAE0FB8C
:10775E00A3E0FAA3E0F9C003C002C0019001E4E087
:10776E00FBA3E0FAA3E0F99000051232DD9001EDE3
:10777E00E0FBA3E0FAA3E0F9C003C002C001900150
:10778E00E4E0FBA3E0FAA3E0F99000081232DD90EA
:10779E0001F3E0FBA3E0FAA3E0F9C003C002C001CD
:1077AE009001E4E0FBA3E0FAA3E0F9900016123298
:1077BE00DD9001F0E0FBA3E0FAA3E0F9C003C00204
:1077CE00C0019001E4E0FBA3E0FAA3E0F9900019F8
:1077DE001232DD9001E7E0FBA3E0FAA3E0F9C0036B
:1077EE00C002C0019001E4E0FBA3E0FAA3E0F9902F
:1077FE0000021232DD9001E4E0FBA3E0FAA3E0F90F
:10780E00E4F5F01231429001F6A3E0FF9001E4E0BE
:0E781E00FBA3E0FAA3E0F990000BEF022FF3BA
:101D18009001E7EDF09001E4EBF0A3EAF0A3E9F01D
:101D2800123092FFAEF0E5F060030229EBEF1233B8
:101D3800361D5B001E34011E92021F9A03245904AB
:101D480025210528DD0629A70A1DD0141E15150012
:101D58000029EB9001E4E0FBA3E0FAA3E0F990008E
:101D6800021232AD9001E7E075F00BA4FFAEF02946
:101D7800F9EA3EFA9000031230BDE5F020E10302D3
:101D880029EB9001E4E0FBA3E0FAA3E0F99000025C
:101D98001232ADE92FF9EA3EFAE92403F9E43AFAF6
:101DA800123092547FFFE5F08FF01231429001E437
:101DB800E0FBA3E0FAA3E0F990000EE4F5F012319D
:101DC80061E475F01402251E9001E4E0FBA3E0FA3B
:101DD800A3E0F99000051232ADE92406F9E43AFAD5
:101DE80090022574FFF0A3748DF0A37490F0125242
:101DF800859001E4E0FBA3E0FAA3E0F990000CE48D
:101E080075F014123161E475F01502251E9001E495
:101E1800E0FBA3E0FAA3E0F990000C1230BD45F016
:101E280060030229BCE475F00102251E9001E4E07C
:101E3800FBA3E0FAA3E0F99000051232ADE924060D
:101E4800F9E43AFA90022574FFF0A3748DF0A374B4
:101E580096F01252859001E4E0FBA3E0FAA3E0F9C2
:101E68009000051232AD9000127408122FF3900101
:101E7800E4E0FBA3E0FAA3E0F990000CE475F014A9
:101E8800123161E475F00202251E9001E4E0FBA323
:101E9800E0FAA3E0F99000021232AD9001E7E07594
:101EA800F00BA4FFAEF029F9EA3EFA9000031230D5
:101EB800BD543860030229EB9001E4E0FBA3E0FA8B
:101EC800A3E0F990000C1230BD45F060030229BC74
:101ED8009000021232ADE92FF9EA3EFAE92403F93B
:101EE800E43AFA123092547FFFE5F08FF012314253
:101EF8009001E4E0FBA3E0FAA3E0F990000B122FB5
:101F08008130E0229000051232ADE92406F9E43A66
:101F1800FAC003C002C00190022574FFF0A3748DBB
:101F2800F0A3749C802B9001E4E0FBA3E0FAA3E00B
:101F3800F99000051232ADE92406F9E43AFAC00333
:101F4800C002C00190022574FFF0A3748DF0A37441
:101F5800A3F09001E4E0FBA3E0FAA3E0F990000EFF
:101F68001230BDFF900228E5F0F0A3EFF0D001D0C9
:101F780002D0031252859001E4E0FBA3E0FAA3E04B
:101F8800F9900014E475F01E123161E475F0030253
:101F9800251E9001E4E0FBA3E0FAA3E0F99000021B
:101FA8001232AD9001E7E075F00BA429F9EA35F09B
:101FB800FA9000031230BD20E7030222BDE9240392
:101FC800F9E43AFA123092547FFFE5F08FF01231BB
:101FD800429001E4E0FBA3E0FAA3E0F990000B12C1
:101FE8002F8120E0030220DF9000051232AD90001F
:101FF80012122F81B4082C9001E4E0FBA3E0FAA3AD
:10200800E0F990000E1230BD540FC3940FE4940011
:1020180090000E5006E475F001800574FF75F0F12C
:102028001230F59001E4E0FBA3E0FAA3E0F9900098
:10203800051232AD900012122F81B410299001E4DC
:10204800E0FBA3E0FAA3E0F990000E1230BD54F0D3
:10205800C394F0E4940090000E5003E4800274FFEF
:1020680075F0101230F59001E4E0FBA3E0FAA3E06C
:10207800F99000051232AD900012122F81B4202978
:102088009001E4E0FBA3E0FAA3E0F990000E12301F
:10209800BDE5F0540FC3940F90000E5004740180F6
:1020A8000274F175F0001230F59001E4E0FBA3E052
:1020B800FAA3E0F99000051232ADE92406F9E43AF2
:1020C800FAC003C002C00190022574FFF0A3748D0A
:1020D800F0A3749C0222839001E4E0FBA3E0FAA33E
:1020E800E0F99000051232AD900012122F816408B9
:1020F80070439001E4E0FBA3E0FAA3E0F990000E3E
:102108001230BDFFAEF07C007D0A123027C3ED947B
:1021180009EC9400500990000EE475F001801390CA
:1021280001E4E0FBA3E0FAA3E0F990000E74FF7568
:10213800F0F71230F59001E4E0FBA3E0FAA3E0F930
:102148009000051232AD900012122F816410704376
:102158009001E4E0FBA3E0FAA3E0F990000E12304E
:10216800BDFFAEF07C007D64123027C3ED945AECBD
:102178009400500990000EE475F00A80139001E471
:10218800E0FBA3E0FAA3E0F990000E74FF75F0A657
:102198001230F59001E4E0FBA3E0FAA3E0F9900027
:1021A800051232AD900012122F8164207043900105
:1021B800E4E0FBA3E0FAA3E0F990000E1230BDFFC3
:1021C800AEF07C037DE8123027C3ED9484EC9403D1
:1021D800500990000EE475F06480139001E4E0FB70
:1021E800A3E0FAA3E0F990000E74FC75F07C1230BD
:1021F800F59001E4E0FBA3E0FAA3E0F990000512F2
:1022080032AD900012122F81644070449001E4E0D6
:10221800FBA3E0FAA3E0F990000E1230BDFFAEF088
:102228007C277D10123027C3ED9428EC9423500AA4
:1022380090000E740375F0E880139001E4E0FBA3AE
:10224800E0FAA3E0F990000E74DC75F0D81230F5CE
:102258009001E4E0FBA3E0FAA3E0F9900005123254
:10226800ADE92406F9E43AFAC003C002C0019002BD
:102278002574FFF0A3748DF0A374A3F09001E4E03B
:10228800FBA3E0FAA3E0F990000E1230BDFF900224
:1022980028E5F0F0A3EFF0D001D002D00312528568
:1022A8009001E4E0FBA3E0FAA3E0F9900014E475E0
:1022B800F01E1231619001E4E0FBA3E0FAA3E0F91B
:1022C8009000141230BD45F060030228CC90000B3A
:1022D800122F81FF20E0109000051232AD900012FD
:1022E800122F8164406025EF20E00302243690011C
:1022F800E4E0FBA3E0FAA3E0F99000051232AD9008
:102308000012122F81642060030224369001E4E059
:10231800FBA3E0FAA3E0F99000051232AD90001299
:10232800E4122FF39001E4E0FBA3E0FAA3E0F990B4
:10233800000E1230BDFFAEF0C3EE940850089001B5
:10234800E4A3A3E080799001E4E0FBA3E0FAA3E032
:10235800F990000E1230BDFFAEF07003EE6490608D
:1023680006BE2347BF28449001E4E0FBA3E0FAA39C
:10237800E0F99000051232ADE92406F9E43AFA9042
:10238800022574FFF0A3748DF0A374AFF012528588
:102398009001E4E0FBA3E0FAA3E0F990000CE475F7
:1023A800F01E123161E475F00A807D9001E4E0FBD3
:1023B800A3E0FAA3E0F990000E1230BDFFAEF09052
:1023C80000161232AD89828A8312338D9001E4E0BF
:1023D800FBA3E0FAA3E0F9900012E48FF012316158
:1023E8009000121230BDFF900010E5F08FF012310E
:1023F800619000051232ADE92406F9E43AFA900238
:102408002574FFF0A3748DF0A374A9F0125285907F
:1024180001E4E0FBA3E0FAA3E0F990000CE475F016
:102428000A123161E475F0041231420228B79001B2
:10243800E4E0FBA3E0FAA3E0F99000051232ADE96D
:102448002412F9E43AFA122F6825E0122FE1022843
:10245800B79001E4E0FBA3E0FAA3E0F990000C12C6
:1024680030BD45F060030229BC90000B122F81306B
:10247800E1229000051232ADE92406F9E43AFAC0E7
:1024880003C002C00190022574FFF0A3748DF0A36D
:1024980074B5802B9001E4E0FBA3E0FAA3E0F99087
:1024A80000051232ADE92406F9E43AFAC003C00285
:1024B800C00190022574FFF0A3748DF0A374BDF0E1
:1024C8009001E4E0FBA3E0FAA3E0F99000121230D7
:1024D800BDFF900228E5F0F0A3EFF0D001D002D0C4
:1024E800031252859001E4E0FBA3E0FAA3E0F9901F
:1024F8000014E475F01E1231619000051232AD909F
:1025080000127408122FF39001E4E0FBA3E0FAA391
:10251800E0F9E475F0050231429001E4E0FBA3E044
:10252800FAA3E0F99000021232AD9001E7E075F0ED
:102538000BA429F9EA35F0FA9000031230BD20E720
:10254800030227A2E92403F9E43AFA123092547FED
:10255800FFE5F08FF01231429001E4E0FBA3E0FACE
:10256800A3E0F990000B122F8120E10302262390AB
:1025780000051232AD900012122F81B4082C900180
:10258800E4E0FBA3E0FAA3E0F99000121230BD5496
:102598000FC3940FE494009000125006E475F00104
:1025A800800574FF75F0F11230F59001E4E0FBA3AB
:1025B800E0FAA3E0F99000051232AD900012122F54
:1025C80081B410299001E4E0FBA3E0FAA3E0F990BC
:1025D80000121230BD54F0C394F0E494009000123D
:1025E8005003E4800274FF75F0101230F59001E496
:1025F800E0FBA3E0FAA3E0F99000051232ADE9246C
:1026080006F9E43AFAC003C002C00190022574FF3B
:10261800F0A3748DF0A374B50227689001E4E0FB81
:10262800A3E0FAA3E0F99000051232AD900012126F
:102638002F81640870439001E4E0FBA3E0FAA3E073
:10264800F99000121230BDFFAEF07C007D0A123006
:1026580027C3ED9409EC94005009900012E475F03A
:102668000180139001E4E0FBA3E0FAA3E0F99000F5
:102678001274FF75F0F71230F59001E4E0FBA3E067
:10268800FAA3E0F99000051232AD900012122F81E2
:10269800641070439001E4E0FBA3E0FAA3E0F99032
:1026A80000121230BDFFAEF07C007D64123027C3EB
:1026B800ED945AEC94005009900012E475F00A80E9
:1026C800139001E4E0FBA3E0FAA3E0F99000127490
:1026D800FF75F0A61230F59001E4E0FBA3E0FAA341
:1026E800E0F99000051232AD900012122F8164209B
:1026F80070439001E4E0FBA3E0FAA3E0F990001234
:102708001230BDFFAEF07C037DE8123027C3ED9494
:10271800C8EC94005009900012E475F0648013909E
:1027280001E4E0FBA3E0FAA3E0F990001274FF755E
:10273800F0381230F59001E4E0FBA3E0FAA3E0F9E9
:102748009000051232ADE92406F9E43AFAC003C054
:1027580002C00190022574FFF0A3748DF0A374BD2C
:10276800F09001E4E0FBA3E0FAA3E0F99000121274
:1027780030BDFF900228E5F0F0A3EFF0D001D002C1
:10278800D0031252859001E4E0FBA3E0FAA3E0F93C
:10279800900014E475F01E1231619001E4E0FBA38F
:1027A800E0FAA3E0F99000141230BD45F06003028E
:1027B80028CC90000B122F81FF20E1109000051209
:1027C80032AD900012122F8164206025EF20E103C2
:1027D8000228979001E4E0FBA3E0FAA3E0F9900057
:1027E800051232AD900012122F8164106003022886
:1027F800979001E4E0FBA3E0FAA3E0F9900012123D
:1028080030BDFFAEF09000101230BD6F7003E5F0E0
:102818006E601D90000E1230BDFFAEF090001212D7
:1028280030BDFD9000191232AD89828A8312338D32
:102838009001E4E0FBA3E0FAA3E0F990000512326E
:10284800ADE92406F9E43AFA90022574FFF0A3747E
:102858008DF0A374C4F01252859001E4E0FBA3E06C
:10286800FAA3E0F990000CE475F01E1231619000B3
:10287800051232AD900012E4122FF39001E4E0FB50
:10288800A3E0FAA3E0F9E475F00612314280209043
:1028980001E4E0FBA3E0FAA3E0F99000051232ADF1
:1028A800E92412F9E43AFA122F6825E0122FE19090
:1028B80001E4E0FBA3E0FAA3E0F9900014E475F06A
:1028C8001E0231619001E4E0FBA3E0FAA3E0F99075
:1028D80000140229BF9001E4E0FBA3E0FAA3E0F9A9
:1028E80090000C1230BD45F0600C90000C74FFF5A0
:1028F800F01230F58043900014E475F01E12316137
:102908009000021232AD9001E7E075F00BA429F9AE
:10291800EA35F0FAE92403F9E43AFA123092FFE5CD
:10292800F054FD8FF01231429001E4E0FBA3E0FA8D
:10293800A3E0F9E4F5F01231429001E4E0FBA3E0F2
:10294800FAA3E0F99000021232AD9001E7E075F0C9
:102958000BA429F9EA35F0FA9000031230BD30E7EC
:1029680026E92403F9E43AFA123092547FFFE5F09D
:102978008FF01231429001E4E0FBA3E0FAA3E0F902
:10298800E475F0011231429001E4E0FBA3E0FAA300
:10299800E0F99000051232AD900012E4022FF39096
:1029A80001E4E0FBA3E0FAA3E0F990000C1230BDCB
:1029B80045F0600A90000C74FFF5F00230F59000C5
:1029C800051232ADE92406F9E43AFA90022574FFBB
:1029D800F0A3748DF0A374CAF0125285E4F5C0C256
:0429E800AD80FE229E
:108DD0006F6E2E2533750045722E31323600457286
:108DE0002E3132370046414E20310046414E20326E
:108DF0000025316275002E005F5F5F5F5F00535496
:108E00004F50200050415553450053544152540097
:106CC500900219EBF0A3EAF0A3E9F0900222E0FBB1
:106CD500A3E0FAA3E0F9C003C002C001900219E0E5
:106CE500FBA3E0FAA3E0F990000A1232DD90022539
:106CF500E0FBA3E0FAA3E0F9C003C002C0019002E3
:106D050019E0FBA3E0FAA3E0F99000101232DD9040
:106D15000228E0FBA3E0FAA3E0F9C003C002C0012A
:106D2500900219E0FBA3E0FAA3E0F9900007123204
:106D3500DD90022EE0FBA3E0FAA3E0F9C003C00258
:106D4500C001900219E0FBA3E0FAA3E0F990002F3F
:106D55001232DD90022BE0FBA3E0FAA3E0F9C003B9
:106D6500C002C001900219E0FBA3E0FAA3E0F9908C
:106D750000321232DD90021CE0FBA3E0FAA3E0F939
:106D8500C003C002C001900219E0FBA3E0FAA3E032
:106D9500F99000041232DD90021FE0FBA3E0FAA394
:106DA500E0F9C003C002C001900219E0FBA3E0FABC
:106DB500A3E0F990000D1232DD900219E0FBA3E08B
:106DC500FAA3E0F9900002E4F5F01231617403755D
:106DD500F0E8123142900231A3E0FF900219E0FB86
