:02955C0050E0DD
:0295600096452E
:02956200965120
:0295660089F486
:02956A0078FB8C
:02956C007C86FB
:02956E0088EF84
:0295700094382D
:02957200932242
:030000000287551F
:0C875500787FE4F6D8FD75818B02879CCC
:03000B00026BFE87
:106BF900C2AF80FE32C0E0E5D0541864087003D0FB
:106C0900E032D0E0126BFD85D00B75D008AAE0C246
:106C19008CE58A240EF58AE58C34B8F58CD28CEC97
:106C29002481F8E6BC0B0274FFC39581B4140040BB
:106C3900BF790C786816E608700BC2AFE630E1033D
:106C49004418F6D2AF08D9EDEA8BD022E50CFF2320
:106C59002469F80F0808BF0C047F007869E630E45E
:106C6900F200E50CC39F5020050C7480250CF8E652
:106C7900FDA68108E6AE0CBE0B0274FFCDF8E86DE7
:106C890060E008E6C0E080F6E50CD39F4027E50CFC
:106C99002481F8E6AE0CBE0B0274FFFD18E6CDF8B0
:106CA900E5816D6006D0E0F61880F5E50C2480C812
:106CB900F6150C80D3E50C232469F87F04C2AFE6EE
:106CC90030E00310E20C7F0030E10730E3047F0875
:106CD90054F4547CC6D2AF54804207227880A681EE
:0F6CE900740B6006FF0876FFDFFB7F0CE4786812
:106CF800F608F608DFFA7869763090955C740193A7
:106D0800C0E0E493C0E0438901758A07758CB8D266
:076D18008CD2AFD2A9220BBF
:1079EA009001B0EBF0A3EAF0A3E9F0A3EDF0900167
:1079FA00B0E0FBA3E0FAA3E0F9A3E0FF75F00BA463
:107A0A00F58285F083E41233C1EF75F00BA429F9EE
:107A1A00EA35F0FA900001E4F5F012352F9001B43E
:107A2A00E0FFA3E0900003CF8FF012352F90000300
:107A3A0012348B9001B330E124E075F00BA4FF906F
:107A4A0001B0E0FBA3E0FAA3E02FF9EA35F0FAE986
:107A5A002403F9E43AFA12346044408022E075F0D3
:107A6A000BA4FF9001B0E0FBA3E0FAA3E02FF9EA30
:107A7A0035F0FAE92403F9E43AFA12346054BFFF04
:107A8A00E5F08FF01235109001B3E075F00BA4FF0A
:107A9A009001B0E0FBA3E0FAA3E02FF9EA35F0FA8F
:107AAA00900009740175F02C12352F900007741795
:0F7ABA0075F07012352F900005E4F5F002352FAE
:0E4A00009001B0EBF0A3EAF0A3E9F0A3EDF013
:104A0E00E075F00BA4FF9001B0E0FBA3E0FAA3E089
:104A1E002FF9EA35F0FA90000312348BFDACF05406
:104A2E0001FBED5402FFE4C313EF139001B5F07ECA
:104A3E0000ED54047802CEC313CE13D8F99001B70B
:104A4E00F07E00ED54387803CEC313CE13D8F99010
:104A5E0001B6F0EB70030250929001B3E0FF129496
:104A6E00A99001B4EFF09001B36024E075F00BA4AF
:104A7E00FF9001B0E0FBA3E0FAA3E02FF9EA35F0D6
:104A8E00FAE92403F9E43AFA12346044408022E051
:104A9E0075F00BA4FF9001B0E0FBA3E0FAA3E02FAA
:104AAE00F9EA35F0FAE92403F9E43AFA12346054DB
:104ABE00BFFFE5F08FF01235109001B5E060109059
:104ACE0001B4E06004E4F080069001B47401F0904B
:104ADE0001B6E06003024D619001B0E0FBA3E0FA85
:104AEE00A3E0F9A3E0FF75F00BA4F58285F0831225
:104AFE00334F147003024BA5147003024CAA240208
:104B0E006003024D619001B4E0701A9001B0E0FBB9
:104B1E00A3E0FAA3E0F975F00BEFA4F58285F0831C
:104B2E0074011233C19001B3E075F00BA4FFAEF027
:104B3E009001B0E0FBA3E0FAA3E02FF9EA3EFA9071
:104B4E000001E4F5F012352F90000512348BD3944A
:104B5E0000E5F0940040159001B0E0FBA3E0FAA34D
:104B6E00E02FF9EA3EFA900005024D449001B3E0C1
:104B7E0075F00BA4FF9001B0E0FBA3E0FAA3E02FC9
:104B8E00F9EA35F0FAE92403F9E43AFA123460FF4F
:104B9E00E5F054FB024D5C9001B4E06003024C6FF3
:104BAE009001B3E075F00BA4FF9001B0E0FBA3E021
:104BBE00FAA3E02FF9EA35F0FA90000112348BC314
:104BCE009403E5F094005003024CD89001B3E075C5
:104BDE00F00BA4FFAEF0E92403F9E43AFA123460C4
:104BEE004480FDE5F08DF01235109001B0E0FBA38E
:104BFE00E0FAA3E02FF9EA3EFA900001E4F5F01294
:104C0E00352F9001B7E06011E92403F9E43AFA1266
:104C1E003460FFE5F0440480289001B3E075F00B9A
:104C2E00A4FF9001B0E0FBA3E0FAA3E02FF9EA3570
:104C3E00F0FAE92403F9E43AFA123460FFE5F0548D
:104C4E00FB8FF01235109001B0E0FBA3E0FAA3E069
:104C5E00F9A3E075F00BA4F58285F0837402024D82
:104C6E00149001B3E075F00BA4FF9001B0E0FBA32C
:104C7E00E0FAA3E02FF9EA35F0FA900001E4F5F03E
:104C8E0012352F9001B0E0FBA3E0FAA3E0F9A3E008
:104C9E0075F00BA4F58285F083E4806A9001B4E090
:104CAE0060699001B3E075F00BA4FF9001B0E0FBDA
:104CBE00A3E0FAA3E02FF9EA35F0FA9000011234DE
:104CCE008BC39403E5F094005009900001E475F055
:104CDE0001806790000712348BFF900005E5F08F7E
:104CEE00F012352F900009740175F02C12352F90AB
:104CFE0001B0E0FBA3E0FAA3E0F9A3E075F00BA48A
:104D0E00F58285F083E41233C180489001B3E075DB
:104D1E00F00BA4FF9001B0E0FBA3E0FAA3E02FF9A3
:104D2E00EA35F0FA90000912348BD39400E5F09432
:104D3E0000400C90000974FFF5F01234C38014E9A2
:104D4E002403F9E43AFA123460FFE5F044028FF0DE
:104D5E001235109001B6E064016003024EE490013A
:104D6E00B0E0FBA3E0FAA3E0F9A3E0FF75F00BA41B
:104D7E00F58285F08312334F146030147003024EA7
:104D8E004C24026003024EE49001B4E0701A9001CC
:104D9E00B0E0FBA3E0FAA3E0F975F00BEFA4F58207
:104DAE0085F08374011233C1024EC29001B4E070DB
:104DBE004E9001B3E075F00BA4FF9001B0E0FBA3A1
:104DCE00E0FAA3E02FF9EA35F0FA90000112348BE5
:104DDE00C39403E5F09400900001E45003024E7E6C
:104DEE00F5F012352F9001B0E0FBA3E0FAA3E0F945
:104DFE00A3E075F00BA4F58285F0837402803990E0
:104E0E0001B3E075F00BA4FF9001B0E0FBA3E0FA54
:104E1E00A3E02FF9EA35F0FA900001E4F5F012352F
:104E2E002F9001B0E0FBA3E0FAA3E0F9A3E075F048
:104E3E000BA4F58285F083E41233C1024EE4900197
:104E4E00B4E060709001B3E075F00BA4FF9001B078
:104E5E00E0FBA3E0FAA3E02FF9EA35F0FA900001A7
:104E6E0012348BC39403E5F09400500C900001E4CF
:104E7E0075F0011234C3805E9001B0E0FBA3E0FA3E
:104E8E00A3E0F9A3E0FF75F00BA4F58285F083E4AF
:104E9E001233C1EF75F00BA429F9EA35F0FAE924C3
:104EAE0003F9E43AFA1234604480FFE5F08FF01211
:104EBE00351080229001B3E075F00BA4FF9001B085
:104ECE00E0FBA3E0FAA3E02FF9EA35F0FA90000137
:104EDE00E4F5F012352F9001B6E064026003025043
:104EEE00DF9001B0E0FBA3E0FAA3E0F9A3E0FF75C9
:104EFE00F00BA4F58285F08312334F1460301470DA
:104F0E0003024FFE240260030250DF9001B4E070F2
:104F1E001A9001B0E0FBA3E0FAA3E0F975F00BEFF5
:104F2E00A4F58285F08374011233C1025070900192
:104F3E00B4E06003024FC29001B3E075F00BA4FF22
:104F4E009001B0E0FBA3E0FAA3E02FF9EA35F0FA06
:104F5E0090000112348BC39403E5F09400500302C9
:104F6E00502C9001B3E075F00BA4FFAEF0E92403D2
:104F7E00F9E43AFA1234604480FDE5F08DF0123512
:104F8E00109001B0E0FBA3E0FAA3E02FF9EA3EFA9D
:104F9E00900001E4F5F012352F9001B0E0FBA3E094
:104FAE00FAA3E0F9A3E075F00BA4F58285F0837403
:104FBE00020250DC9001B3E075F00BA4FF9001B03B
:104FCE00E0FBA3E0FAA3E02FF9EA35F0FA90000136
:104FDE00E4F5F012352F9001B0E0FBA3E0FAA3E068
:104FEE00F9A3E075F00BA4F58285F083E40250DCA2
:104FFE009001B4E0606C9001B3E075F00BA4FF90EB
:10500E0001B0E0FBA3E0FAA3E02FF9EA35F0FA9045
:10501E00000112348BC39403E5F09400500A900003
:10502E0001E475F0010234C39001B0E0FBA3E0FA95
:10503E00A3E0F9A3E0FF75F00BA4F58285F083E4FD
:10504E001233C1EF75F00BA429F9EA35F0FAE92411
:10505E0003F9E43AFA123460FFE5F044018FF002EE
:10506E0035109001B3E075F00BA4FF9001B0E0FB9A
:10507E00A3E0FAA3E02FF9EA35F0FA900001E4F587
:10508E00F002352F9001B3E075F00BA4FF9001B044
:10509E00E0FBA3E0FAA3E02FF9EA35F0FAE92403E6
:1050AE00F9E43AFA123460FFE5F054F8FEEF547F5B
:1050BE00FFEE8FF01235109001B0E0FBA3E0FAA3E3
:1050CE00E0F9A3E075F00BA4F58285F083E41233CA
:0150DE00C110
:0150DF0022AE
:105ED7000225303262583025303458253032625826
:105EE7003030303000022530326258312530345896
:105EF7002530326258303030300002253032625857
:105F0700322530345825303458253034582530342C
:105F170058253034582530345825303458253034F6
:105F270058253034582530345825303458253034E6
:105F3700582530326258253032625825303262583F
:105F470025303458002530316258002530326258E8
:105F57002530326258253032625825303458253082
:105F670032625825303458250025303262582530A2
:105F77003262582530326258253032625825303225
:105F870062582530326258253032625825303262E5
:105F9700582530326258202530345825303458205F
:105FA70030303030000225303262583330002563FC
:105FB700003030303000022530326258342563001B
:105FC70002253032625835253034583030303000B1
:105FD7000225303262583725303030300002253004
:105FE7003262583E253034582530326258303030CE
:105FF70030000225303262583F253034582530347E
:10600700583030303000022530326258462530345F
:106017005825303262583030303000022530326235
:10602700585025303458253032625825303262585E
:106037002530326258253032625825303262582571
:10604700303262582530326258253032625830304B
:10605700303000022530326258512530345825300F
:1060670034580025303262580002253032625852C7
:10607700253031625825303458253034582530348E
:1060870058253032625825303262582530326258EE
:106097002530326258253032625825303262582511
:1060A70030326258253032625825303262582530F6
:1060B70032625825303262582530326258253032E4
:1060C70062582530326258253032625825303262A4
:1060D700582530326258002530345825303458005E
:1060E7002530345800022530326258532530345851
:1060F70025303458253034580025303242580002B4
:10610700FF253034580000C1814001C0804101C0E3
:10611700804100C1814001C0804100C1814000C170
:10612700814001C0804101C0804100C1814000C160
:10613700814001C0804100C1814001C0804101C050
:10614700804100C1814001C0804100C1814000C140
:10615700814001C0804100C1814001C0804101C030
:10616700804100C1814000C1814001C0804101C020
:10617700804100C1814001C0804100C1814000C110
:10618700814001C0804101C0804100C1814000C100
:10619700814001C0804100C1814001C0804101C0F0
:1061A700804100C1814000C1814001C0804101C0E0
:1061B700804100C1814001C0804100C1814000C1D0
:1061C700814001C0804100C1814001C0804101C0C0
:1061D700804100C1814001C0804100C1814000C1B0
:1061E700814001C0804101C0804100C1814000C1A0
:1061F700814001C0804100C1814001C0804101C090
:10620700804100C1814000C0C101C30302C2C6066C
:1062170007C705C5C404CC0C0DCD0FCFCE0E0ACAD7
:10622700CB0BC90908C8D81819D91BDBDA1A1EDE27
:10623700DF1FDD1D1CDC14D4D515D71716D6D212D7
:1062470013D311D1D010F03031F133F3F23236F6E7
:10625700F737F53534F43CFCFD3DFF3F3EFEFA3A97
:106267003BFB39F9F83828E8E929EB2B2AEAEE2E27
:106277002FEF2DEDEC2CE42425E527E7E62622E297
:10628700E323E12120E0A06061A163A3A26266A6E7
:10629700A767A56564A46CACAD6DAF6F6EAEAA6A57
:1062A7006BAB69A9A86878B8B979BB7B7ABABE7EA7
:1062B7007FBF7DBDBC7CB47475B577B7B67672B257
:1062C700B373B17170B050909151935352929656E7
:1062D7005797559594549C5C5D9D5F9F9E5E5A9A17
:1062E7009B5B99595898884849894B8B8A4A4E8EA7
:1062F7008F4F8D4D4C8C4484854587474686824217
:0663070043834181804048
:108119006040025E00000000000000000000000056
:108129000000000000000000000000000000000046
:108139000000000000000000000000000000000036
:108149000000000000000000000000000000000026
:0B8159000000000044025A000000007B
:0B8E5300900173EBF0A3EAF0A3E9F03C
:108E5E007F0112967BE4FBFA7D017F02126DFFE427
:108E6E00900176F0A3F0900173E0FBA3E0FAA3E08B
:108E7E00F91295A2900176E0FCA3E0FDC39FEC9E53
:108E8E005026900173E0FBA3E0FAA3E0F98D828CEB
:108E9E008312334FFF1293B6900177E004F070C641
:088EAE00900176E004F080BEA3
:018EB6002299
:0F95FF007F0112967BE4FBFA7D017F02026DFF74
:0A966800E4FBFA7D017F02026DFFB2
:1082770090000512334FFF1282EBEFC454F09001C8
:108287006AF0A3E4F0900160E0FBA3E0FAA3E0F951
:1082970090000612334FFF1282EBEFFE90016BE066
:1082A7002400F090016AE03EF0900160E0FBA3E05B
:1082B700FAA3E0F990000712334FFF1282EBEF7534
:1082C700F010A4FFAEF090016BE02FF090016AE090
:1082D7003EF0900160E0FBA3E0FAA3E0900008F90C
:0482E70012334FFF00
:0282EB00AE07DC
:1082ED00EEC39430400BEED394395005EE24D0FFFD
:1082FD0022EEC39441400BEED394465005EE24C9B3
:10830D00FF22EEC39461400BEED394665005EE242C
:05831D00A9FF22AF06DC
:018322002238
:10948600EFC39400400CEFD39409500674302FFFBD
:109496008010EFC3940A400AEFD3940F5004743738
:0294A6002FFF96
:0194A80022A1
:0B8067009002DDEFF0A905AD03AC02B4
:10807200C3740E9975F00C84FB7A00C3ED9BFEEC81
:108082009AA3F0A3CEF07E00AF037C007D0C1233E6
:10809200E3EF29FFEC3ECF24FECF34FFA3F0A3EFA2
:1080A200F09002DDE0FF7E00A3E0FCA3E0FD2FFBE9
:1080B200EE3CFAEDAE047802CEC313CE13D8F92B00
:1080C200FBEA3EFA9002DEE0FEA3E0FF7C007D6464
:1080D2001233F5C3EB9FFBEA9EFA9002DEE0FEA3A9
:1080E200E0FF7C017D901233F5EF2BFBEE3AFAA311
:1080F200E0FEA3E0FF7C007D1F1233E37D0C123310
:10810200F5EF2BFFEE3ACF2458CF341BFE7C007DD7
:06811200071233F5AF0572
:018118002244
:0893550090016AFFE03400FE04
:10935D00E4FDC3EE9408501FACD2EC5401F5D2706D
:10936D00F7A2AF9214C2AF75D2028F828E83E0FD49
:09937D00E4F5D2A21492AFAF0591
:0193860022C4
:0B901B00EF2DFD90016AE0FEA3E0FFD6
:06902600AB07AA06A90534
:10902C00C3EA9408503C12935DEF696035900222BC
:10903C00E5D2F0AFD2EF5401F5D270F7A2AF921394
:10904C00C2AF75D202AE02AF038F828E83E9F0AF4E
:10905C00D2EF5401F5D270F7A21392AF900222E036
:02906C00F5D23B
:01906E0022DF
:0893E500900233EEF0A3EFF05B
:1093ED0012935DAB077A00900234E02401900233B2
:1093FD00129358AD077C00EBFEE42DFBEC3EFEAF67
:01940D00035B
:01940E00223B
:10938700900175ECF0A3EDF0900173EEF0FAA3EF06
:01939700F0E5
:10939800A3E0FDAE02129026900176E0FD900174E4
:0E93A800E02401FF900173E03400FE029026E5
:108F6E009002E2EBF0A3EAF0A3E9F0A3ECF0A3ED9C
:018F7E00F002
:108F7F007FFF7DFF9002E5E07002A3E06033900277
:108F8F00E6E024FFF09002E5E034FFF09002E2E02B
:108F9F00FBA3E475F00112344AA9F0FA1233366FCD
:108FAF00FB7A0090610D936DFFEB90620D93FD8046
:058FBF00C3EFFEEDFF11
:018FC400228A
:0B965D00E41233AF900002ED0233C1B5
:0B002E00900160EBF0A3EAF0A3E9F002
:1000390090000312334F643060030200F4900160B2
:10004900E0FBA3E0FAA3E0F912827790016BE02FBD
:10005900F090016AE03400F07F017E001293E59090
:10006900016AE06E7003A3E06F600302138C9001D4
:1000790060E0FBA3E0FAA3E0F990000412334F64B7
:1000890031602D9000091282E7EFC454F09001709D
:10009900F0900160E0FBA3E0FAA3E090000A12826D
:1000A900E6900170E02FF0E0FD7F047E00129026BB
:1000B9007F047E0012935DA9077F011293E5AA06CA
:1000C900AB077F037E0012935D90022BEFF0900245
:1000D90029EAF0A3EBF0900228E9F090022574FFD9
:1000E900F0A3745EF0A374D7020D13900160E0FBD6
:1000F900A3E0FAA3E0F990000312334F6431703A98
:100109007F04FE12935DA9077F011293E5AA06AB4E
:10011900077F037E0012935D90022BEFF090022976
:10012900EAF0A3EBF0900228E9F090022574FFF0C1
:10013900A3745EF0A374EC020D13900160E0FBA3BD
:10014900E0FAA3E0F990000312334F64326003022E
:1001590004C890017074FFF07F021294A9EF700730
:10016900900170E0547FF07F031294A9EF7007901B
:100179000170E054BFF0900163E0FBA3E0FAA3E053
:10018900F990000412367B90002412348B30E70773
:10019900900170E054DFF0E92424F9E43AFA1234CA
:1001A90060547FFFE5F08FF012351090017174FFF4
:1001B900F07F0312915AEF7007900171E0547FF0BC
:1001C9007F0412915AEF7007900171E054DFF07FBC
:1001D9000512915AEF7007900171E054EFF0900108
:1001E9007274FFF07F0712915AEF7007900172E065
:1001F90054FEF07F0312915AEF7007900172E05498
:10020900FDF0E490016AF0A3F090016EF0A3F0FF15
:10021900FE7DC87C4290025AE0F8A3E0F9A3E0FA17
:10022900A3E0FB12305890025A501EE0FCA3E0FDF7
:10023900A3E0FEA3E0FF7BCD7ACC79CC783D122DEB
:10024900C190025A1235EE80071235FA00000000FB
:100259007F047E0012935D900228EFF090022574CE
:10026900FFF0A3745FF0A37401F0E4FF7DC87C4242
:10027900900064E0F8A3E0F9A3E0FAA3E0FB122EF2
:10028900B27B007A40799C7845122DC112310390D6
:100299000229EEF0A3EFF0E4FFFE7DC87C42900056
:1002A90068E0F8A3E0F9A3E0FAA3E0FB122EB2128A
:1002B900310390022BEEF0A3EFF0E4FFFE7DC87C42
:1002C9004290009BE0F8A3E0F9A3E0FAA3E0FB1257
:1002D9002EB27B007A40799C7845122DC1123103E8
:1002E90090022DEEF0A3EFF0E4FFFE7DC87C429072
:1002F900009FE0F8A3E0F9A3E0FAA3E0FB122EB215
:1003090012310390022FEEF0A3EFF0A37413F0A3C0
:100319007488F0E4A3F0A3F0A37413F0A37488F035
:10032900E4A3F0A3F0A37413F0A37488F0E4A3F09A
:10033900A3F0A37413F0A37488F0E4A3F0A3F090DE
:100349000170E0900241F0900171E0900242F0905A
:100359000172E0900243F0E4A3F07B017A02795E36
:1003690012565312862F900172EFF090016AE0FF46
:10037900A3E090016ECFF0A3EFF07F0E7E00129301
:100389005D900170EFF090022574FFF0A3745FF0A7
:10039900A3744CF0EF540FA3F07B017A02795E123B
:1003A9005653128975900172EFF090016AE0FFA32C
:1003B900E090016ECFF0A3EFF07FE87E0312935D2A
:1003C9001282EBEFC454F0FB7FE97E0312935D12B6
:1003D90082EBEF2BFB7F0F7E0012935DAA077F163E
:1003E90012935D90022AEFF0900229EAF090022818
:1003F900EBF090022574FFF0A3745FF0A37452F040
:10040900E490022BF0A3F0A3F07B017A02795E124B
:10041900565390016BE02FF090016AE03EF0900195
:100429007074FFF07F0212915AEF7007900170E02B
:1004390054FEF07F0112915AEF7007900170E05459
:10044900FDF0E4FF12915AEF7007900170E054FB40
:10045900F0128981900172EFF090016AE0FFA3E048
:1004690090016ECFF0A3EFF090022574FFF0A37412
:100479005FF0A37470F0E4A3F0A3F0A3F0A3F090ED
:100489000170E090022CF0E4A3F0A3F0A3F0900136
:1004990063E0FBA3E0FAA3E0F990002E12334F903A
:1004A9000230F090008EE0FFA3E0900231CFF0A37C
:1004B900EFF09000C5E0FFA3E090023302126A90CA
:1004C9000160E0FBA3E0FAA3E0F990000312334FC7
:1004D9006433600302071690000412334FFFB431EE
:1004E900089001717431F08010EFB43009900171F6
:1004F9007430F00206010207C9E490016AF0A3F022
:10050900900160E0FBA3E0FAA3E0F990016AE0FE44
:10051900A3E0FFF5828E8312334F640360109001CC
:100529006BE004F070DA90016AE004F080D2C3EF66
:100539009438EE940040BF90016CE4F0A37435F058
:1005490090016AE0FEA3E0FFA3E0FCA3E0FDD39FD6
:10055900EC9E5026900160E0FBA3E0FAA3E0F98D40
:10056900828C8312334F646B601590016DE0241DFA
:10057900F090016CE03400F080C67F05020AE89033
:100589000163E0FBA3E0FAA3E0F990000412367BD3
:10059900E9240EF9E43AFA1234604480FFE5F08F59
:1005A900F012351090016CE4F0A37405F090016B22
:1005B900E024FEFF90016AE034FFFE90016CE0FC4C
:1005C900A3E0FD6F7002EC6E602EED24E3FFEC34C6
:1005D90003FE900160E0FBA3E0FAA3E0F98D828CB1
:1005E9008312334FFD12902690016DE004F070BD27
:1005F90090016CE004F080B5E490016CF0A3F090F8
:10060900016CE0FEA3E0FF64E64E6029D3EF94128B
:10061900EE94004010EF24E8FFEE3403FE12935DE0
:10062900EF646B601590016DE004F070D290016C7D
:10063900E004F080CA7F08020AE8E490016AF0A3A6
:10064900F090016EF0A3F07F04FE12935D900228F2
:10065900EFF090022574FFF0A3745FF0A374ACF07F
:100669007B017A02795E12565312862F900172EF3E
:10067900F0E490016CF0A3F090016CE0FEA3E0FFC0
:1006890064E64E6069EF24E8FFEE3403FE12935DE1
:10069900900170EFF090016AE0FDA3E090016ECD4A
:1006A900F0A3EDF090022574FFF0A3745FF0A3743A
:1006B900B5F0A3EFF07B017A02795E1256531289E5
:1006C90075900172EFF0D390016DE0941290016C76
:1006D900E094004008900170E0646B601190016D36
:1006E900E004F0700690016CE004F00206819001CC
:1006F9006AE0FFA3E090016ECFF0A3EFF09002252E
:1007090074FFF0A3745FF0A374B802126E900160D5
:10071900E0FBA3E0FAA3E0F990000312334F64343D
:1007290060030207F290000412334F24CF6037149C
:100739006061240260030207C9900163E0FBA3E042
:10074900FAA3E0F990000412367BE9240EF9E43AA1
:10075900FA1234604480FFE5F08FF01235109001F1
:10076900717430F0805F900163E0FBA3E0FAA3E0CD
:10077900F990000412367BE9240EF9E43AFA1234AE
:10078900604480FFE5F08FF01235109001717431EB
:10079900F08032900163E0FBA3E0FAA3E0F9900056
:1007A9000412367BE92403F9E43AFA1234604480EE
:1007B900FFE5F08FF01235109001717432F0800569
:1007C9007F04020AE87F047E0012935D900228EFFD
:1007D900F090022574FFF0A3745FF0A374BDF0904C
:1007E9000171E0900229020D13900160E0FBA3E082
:1007F900FAA3E0F990000312334F6435705E90005C
:10080900041282E7EF75F010A4FF90016AE5F0F099
:10081900A3EFF0900160E0FBA3E0FAA3E0F99000F8
:10082900051282E790016BE02FF090016AE0340035
:10083900F07F047E0012935D900228EFF09002256C
:1008490074FFF0A3745FF0A374C7F090016AE0FF2E
:10085900A3E0900229CFF0A3EF020D13900160E00D
:10086900FBA3E0FAA3E0F990000312334F64377059
:100879002190013104F07F047E0012935D900228DB
:10088900EFF090022574FFF0A3745FF0A374D70210
:100899000D13900160E0FBA3E0FAA3E0F9900003D7
:1008A90012334F643E600302096A12827790016B2A
:1008B900E02FF090016AE03400F0900160E0FBA3C2
:1008C900E0FAA3E0F990000412334F6431701F90ED
:1008D90000091282E7EFC454F0FD900160E0FBA328
:1008E900E0FAA3E0F990000A1282E712901B7F0454
:1008F9007E0012935DAB0790016AE0FEA3E0FF1250
:10090900935D90022BEFF0900228EBF09002257492
:10091900FFF0A3745FF0A374E4F090016AE0FFA311
:10092900E0900229CFF0A3EFF07B017A02795E1201
:100939005653127EEF7B017A02795E128E53900133
:100949006AE0FEA3E0FF64287003EE6423600BEF06
:100959007003EE6490600302138CE4F5C0C2AD80AD
:10096900FE900160E0FBA3E0FAA3E0F99000031216
:10097900334F643F6003020A9512827790016BE05E
:100989002FF090016AE03400F0D3A3E094FE9001C7
:100999006AE0940740307F047E0012935D9002283C
:1009A900EFF090022574FFF0A3745FF0A374F9F0DF
:1009B90090016AE0FFA3E0900229CFF0A3EFF0E4F1
:1009C900A3F0A3020A88900160E0FBA3E0FAA3E088
:1009D900F990000412334F6431706790000A128253
:1009E900E7EF7D00FC900160E0FBA3E0FAA3E0F9EA
:1009F9009000091282E7EFC454F0FEED2400FDEEE9
:100A09003CFC900160E0FBA3E0FAA3E0F990000B45
:100A19001282E7EF75F010A42DFDE5F03CFC900182
:100A290060E0FBA3E0FAA3E0F990000C1282E77EF4
:100A390000ED2FFDEE3CFC90016AE0FEA3E0FF1201
:100A490093877F047E0012935DA90790016AE0FEF7
:100A5900A3E0FF1293E590022BEEF0A3EFF09002D2
:100A690028E9F090022574FFF0A3745FF0A374F9EC
:100A7900F090016AE0FFA3E0900229CFF0A3EFF024
:100A89007B017A02795E125653021379900160E074
:100A9900FBA3E0FAA3E0F990000312334F64466028
:100AA90003020BBA90000412334F6431702F900087
:100AB9000512334F6431702590000612334FB4305C
:100AC9001C90000712334FB4341390000812334FAF
:100AD900B4370A90000912334F643960077F027EE8
:100AE9000002940F900160E0FBA3E0FAA3E0F99003
:100AF900000B1282E7EF90016AF0A3E4F090016025
:100B0900E0FBA3E0FAA3E0F990000C1282E7EF758D
:100B1900F010A4FFAEF090016BE02FF090016AE0B5
:100B29003EF0900160E0FBA3E0FAA3E0F990000D2C
:100B39001282E790016BE02FF090016AE03400F037
:100B4900900160E0FBA3E0FAA3E0F990000A1233F8
:100B59004F6431701F90000E1282E7EFC454F0FD0C
:100B6900900160E0FBA3E0FAA3E0F990000F128284
:100B7900E712901B7F047E0012935DAB0790016A18
:100B8900E0FEA3E0FF12935D90022BEFF0900228A4
:100B9900EBF090022574FFF0A37460F0A3740DF0DC
:100BA90090016AE0FFA3E0900229CFF0A3EF020DC4
:100BB90013900160E0FBA3E0FAA3E0F990000312AF
:100BC900334F64506003020D2012827790016BE06D
:100BD9002FF090016AE03400F0900160E0FBA3E09F
:100BE900FAA3E0F990000412334F6431706D90015B
:100BF90070F0900170E0FF64086060900160E0FBB4
:100C0900A3E0FAA3E0F975F002EFA42409F582E460
:100C190035F0F5831282E7EFC454F0FD900160E0EE
:100C2900FBA3E0FAA3E0F9900170E075F002A424B7
:100C39000AF582E435F0F5831282E7EF2DFD900184
:100C490070E0FF90016BE02FFF90016AE03400FE35
:100C5900129026900170E004F080977F047E0012C4
:100C6900935DC00790016AE0FEA3E0FF12935DC0A7
:100C79000790016BE02401129355C00790016BE0C6
:100C89002402129355C00790016BE0240312935577
:100C9900C00790016BE02404129355AB0790016BD8
:100CA900E02405129355AA0790016BE024061293DC
:100CB90055A90790016BE02407129355900232EF72
:100CC900F0900231E9F0900230EAF090022FEBF057
:100CD90090022ED0E0F090022DD0E0F090022CD0BE
:100CE900E0F090022BD0E0F0900228D0E0F09002E2
:100CF9002574FFF0A37460F0A37422F090016AE0F8
:100D0900FFA3E0900229CFF0A3EFF07B017A0279EB
:100D19005E125653021379900160E0FBA3E0FAA337
:100D2900E0F990000312334F64516003020F8212FD
:100D3900827790016BE02FF090016AE03400F09027
:100D49000160E0FBA3E0FAA3E0F99000091282E751
:100D5900EFC454F090016CF0A3E4F0900160E0FB63
:100D6900A3E0FAA3E0F990000A1282E7EFFE9001EE
:100D79006DE02400F090016CE03EF0900160E0FB32
:100D8900A3E0FAA3E0F990000B1282E7EF75F010E7
:100D9900A4FFAEF090016DE02FF090016CE03EF001
:100DA900900160E0FBA3E0FAA3E0F990000C128245
:100DB900E790016DE02FF090016CE03400F09001B4
:100DC90060E0FBA3E0FAA3E0F990000412334F645A
:100DD900316003020E72900166F0A3F090016CE09D
:100DE900FEA3E0FF900166E0FCA3E0FD6F7002EC5A
:100DF9006E6076ED25E0FFEC33FEEF240DFFE43E57
:100E0900FE900160E0FBA3E0FAA3E0F98F828E83F4
:100E19001282E7EFC454F0FD900167E025E0FF90EE
:100E29000166E033FEEF240EFFE43EFE900160E030
:100E3900FBA3E0FAA3E0F98F828E831282E7EF2DFC
:100E4900FD900166E0FEA3E0FF90016BE02FFF90AB
:100E5900016AE03EFE129026900167E004F07006F8
:100E6900900166E004F0020DE5E4900168F0A3F05A
:100E790090016EF0A3F07F04FE12935D900228EFBB
:100E8900F090022574FFF0A37460F0A3745AF090F7
:100E9900016AE0FFA3E0900229CFF0A3EFF09001EF
:100EA9006CE0FFA3E090022BCFF0A3EFF07B017A77
:100EB90002795E125653900169E02FF09001681291
:100EC9008638900172EFF0E4900166F0A3F090018A
:100ED9006CE0FEA3E0FF900166E0FCA3E0FD6F700B
:100EE90002EC6E605F90016BE02DFF90016AE03CBF
:100EF900FE12935D900171EFF0900168E0FDA3E0AF
:100F090090016ECDF0A3EDF090022574FFF0A3746B
:100F190060F0A3746AF0A3EFF07B017A02795E12A4
:100F29005653900169E02FF090016812897E900173
:100F390072EFF0900167E004F07093900166E004AD
:100F4900F0020ED7900168E0FFA3E090016ECFF0A8
:100F5900A3EFF090022574FFF0A3745FF0A374B8B7
:100F6900F07B017A02795E125653900169E02FF005
:100F7900900168E03EF0021379900160E0FBA3E084
:100F8900FAA3E0F990000312334F6452600302128E
:100F99009290016AF0A3F090016EF0A3F090000422
:100FA9001282E7900170EFF0D394014002E4F07FE0
:100FB900047E0012935D900228EFF090022574FFE1
:100FC900F0A37460F0A37470F0900170E0900229AE
:100FD900F075F037A42464F582E43400F583E0FC6D
:100FE900A3E0FDA3E0FEA3E0FFE4FBFA79C87842A1
:100FF900122EB27B007A40799C7845122DC11231AC
:101009000390022AEEF0A3EFF0900170E075F0373B
:10101900A42468F582E43400F583E0FCA3E0FDA391
:10102900E0FEA3E0FFE4FBFA79C87842122EB2127F
:10103900310390022CEEF0A3EFF0900170E0FF7500
:10104900F037A4248EF582E43400F583E0FDA3E0B3
:1010590090022ECDF0A3EDF0EF75F037A42478F5CA
:1010690082E43400F583E0900230F0900170E0757D
:10107900F037A42479F582E43400F583E090023155
:10108900F0EF75F037A4247AF582E43400F583E0B3
:10109900900232F0900170E075F037A4247BF5825C
:1010A900E43400F583E0900233F0EF75F037A424BF
:1010B9007CF582E43400F583E0900234F09001700D
:1010C900E075F037A4247AF582E43400F583E090E2
:1010D9000235F0EF75F037A4247DF582E43400F58C
:1010E90083E0900236F0900170E075F037A4247E19
:1010F900F582E43400F583E0900237F0EF75F037BC
:10110900A4247FF582E43400F583E0900238F0905E
:101119000170E075F037A42480F582E43400F5838A
:10112900E0900239F0EF75F037A42481F582E434B8
:1011390000F583E090023AF0900170E075F037A471
:101149002482F582E43400F583E090023BF0EF75E8
:10115900F037A42483F582E43400F583E090023C5F
:10116900F0900170E075F037A42492F582E4340020
:10117900F583E090023DF0EF75F037A42493F582F2
:10118900E43400F583E090023EF0900170E075F0E0
:1011990037A42494F582E43400F583E090023FF00B
:1011A9007B017A02795E12565312862F900172EFF3
:1011B900F090016AE0FFA3E090016ECFF0A3EFF099
:1011C9007F0E7E0012935D900170EFF090022574FE
:1011D900FFF0A37460F0A374DEF0900170E0FF7576
:1011E900F037A4248AF582E43400F583E0FDA3E016
:1011F900900228CDF0A3EDF0EF75F037A4248CF51B
:1012090082E43400F583E0FFA3E090022ACFF0A343
:10121900EFF07B017A02795E1256531289759001BB
:1012290072EFF090016AE0FFA3E090016ECFF0A3A6
:10123900EFF07F0E7E0012935D900170EFF0900247
:101249002574FFF0A37460F0A374E7F0EF75F0372D
:10125900A42490F582E43400F583E0FFA3E0900232
:1012690028CFF0A3EFF07B017A02795E12565390F2
:10127900016BE02FF090016AE03EF07B017A027980
:101289005E900172E0FD0273B9900160E0FBA3E09A
:10129900FAA3E0F990000312334F64536003021379
:1012A9008590016AF0A3F07F04FE12935D900228F5
:1012B900EFF090016AA3E0245EF9E43402FA7B01BD
:1012C90090022574FFF0A37460F0A374ECF09070A1
:1012D90019E493FF740193900229CFF0A3EFF090E2
:1012E900701BE493FF74019390022BCFF0A3EFF0EE
:1012F90090701DE493FF74019390022DCFF0A3EF3A
:10130900F012565390016BE02FF090016AE03EF025
:10131900E4900168F0A3F07BFF7A7079131295A22B
:10132900900168E0FCA3E0FDC39FEC9E5042A3A39B
:10133900E0245EF9E43402FA7B0190022574FFF09F
:10134900A3745FF0A374B5F0ED9070139390022825
:10135900F012565390016BE02FF090016AE03EF0D5
:10136900900169E004F070AF900168E004F080A793
:10137900127EEF7B017A02795E028E537F027E0034
:0313890012940FAC
:01138C00223E
:067EEF007B017A02795EBE
:0B7EF500900173EBF0A3EAF0A3E9F0AA
:107F0000E4A3F0FFFEA3F0A3F01295A2900177EE98
:107F1000F0A3EFF07E007F01900177E06E7003A385
:107F2000E06F6020900173E0FBA3E0FAA3E0F98F1B
:107F3000828E8312334FFD900176E02DF00FBF004B
:107F4000010E80D490022574FFF0A37461F0A37435
:107F500000F0900176E0900228F07B017A017979B7
:107F6000125653900179E0FF900173E0FBA3E0FA11
:107F7000A3E0F9900177E0FCA3E0FDF5828C83EFAC
:107F80001233C190017AE08D828C83A31233C190A9
:107F90000177E0FEA3E0FFF5828E83A3A3740312B2
:0D7FA00033C18F828E83A3A3A3E40233C1FB
:10862F0090016BE02FF090016AE03EF07B017A023F
:04863F00795EE4FD7F
:0E864300900173EBF0A3EAF0A3E9F0A3EDF0D1
:10865100E4A3F0A3F01295FF900173E0FBA3E0FA0D
:10866100A3E0F9123336FF1293B6900177E4F0A339
:1086710004F0900173E0FBA3E0FAA3E0F91295A2E4
:10868100900177E0FCA3E0FD6F7002EC6E602C902E
:108691000173E0FBA3E0FAA3E0F98D828C8312332E
:1086A1004FFF900176E02FF01293B6900178E0042D
:1086B100F070BF900177E004F080B7900176E0FFA1
:0186C1002296
:1073B900900176EDF0900173EBF0A3EAF0A3E9F008
:1073C900E4900177F0A3F0A3F0A3F01295A2900145
:1073D90079EEF0A3EFF0E4900177F0A3F090017952
:1073E900E0FEA3E0FF900177E0FCA3E0FD6F7002EF
:1073F900EC6E602C900173E0FBA3E0FAA3E0F98D39
:10740900828C8312334FFF900176E02FF01293B6EE
:10741900900178E004F070C5900177E004F080BD38
:1074290090022574FFF0A37461F0A37400F0900139
:1074390076E0900228F07B017A01797B125653900D
:10744900017BE0FF900173E0FBA3E0FAA3E0F99070
:107459000179E0FCA3E0FDF5828C83EF1233C18D45
:10746900828C8312334FFF1293B690017CE0FF9018
:107479000173E0FBA3E0FAA3E0F990017AE02401AB
:10748900FD900179E03400FC8D82F583EF1233C160
:107499008D828C8312334FFF1293B6900173E0FBF8
:1074A900A3E0FAA3E0F990017AE02402FF900179C0
:1074B900E03400FE8F82F58374031233C18F828E0C
:1074C9008312334FFF1293B6900173E0FBA3E0FAE6
:1074D900A3E0F990017AE02403FF900179E03400F8
:0874E9008F82F583E40233C138
:1089750090016BE02FF090016AE03EF07B017A02F6
:07898500795E900172E0FD34
:0E898C00900173EBF0A3EAF0A3E9F0A3EDF085
:10899A00E4A3F0A3F0900177F0A3F0900173E0FB59
:1089AA00A3E0FAA3E0F91295A2900177E0FCA3E014
:1089BA00FD6F7002EC6E602C900173E0FBA3E0FA8D
:1089CA00A3E0F98D828C8312334FFF900176E02F5A
:1089DA00F01293B6900178E004F070BF900177E04E
:0989EA0004F080B7900176E0FF73
:0189F3002261
:10940F0090022574FFF0A37461F0A37406F0A3EE2D
:10941F00F0A3EFF07B017A02795E125653127EEFC2
:09942F007B017A02795E028E5382
:0B8B5700900160EEF0A3EFF0A3EDF042
:108B6200E4A3F0A3F0F01292AA900162E014FEA333
:108B7200E0D39E4004E4F0A3F0EFB4020B90016452
:108B82007401F0E4900163F0900164E0B4011B9081
:108B92000163E0FE900160E0FCA3E02EF582E43C7C
:108BA200F583EFF0900163E004F0EFB403B89001B5
:108BB20063E0FF900160E0FCA3E02FF582E43CF566
:038BC20083E4F059
:018BC500228D
:106FC0002573005645522E20200025752E25752E3E
:106FD000257500416464722E20002535750025302A
:106FE00031752E4175746F00253031752E687438F7
:106FF0003500253031752E687437350025303175F0
:107000002E464F535400312E5F5F5F5F0053415057
:10701000494A0044727965720000020000000420B1
:107020000120200405060708090A0B0C0D0E0F109D
:107030001112131415161718191A1B1C1D1E1F00E8
:10704000210A232425260428292A2B2C402E2F3FD1
:107050000376674B6D7D077F6F3A3B3C603E3F4058
:107060005F793C737C5C3D5B18335A3851513F5E0D
:107070004F506D783B3B31496B765B5C5D4E2041F8
:107080005F793C737C5C3D5910335A385151715EC5
:107090004F506D78313B31496B767B7C7D7E7F80B4
:1070A0008182838485868788898A8B8C8D8E8F9058
:1070B0009192939495969798999A9B9C9D9E9FA048
:1070C000A1A2A3A4A5A6A7A2A9AAABACADAEAF4EA0
:1070D000B1B2B3B4B5B6B7B5C5BABBBCBDBEBF419E
:1070E000A042A1E045A3A4A5A64BA74D484FA85098
:1070F0004354A9AA58E1ABACE2ADAE62AFB0B16106
:10710000B2B3B4E365B6B7B8B9BABBBCBD6FBE70B5
:0F71100063BF79AA78E5C0C1E6C2C3C4C5C6C7CC
:1081640041013100440152000000004100CE0042B0
:10817400005B000041005801410104004100060079
:1081840041005D004200CC00004200590000C11FC4
:1081940041000000410001004200020000420004CE
:0281A4000000D9
:03001300020006E2
:0100060032C7
:03000300020007F1
:0100070032C6
:03002B0002727EE0
:0D727E00C0E0C0F0C083C082C0D075D01841
:10728B00900156E4F0A3F0C2CF9000CDE004F07073
:10729B00069000CCE004F0900004E0FEA3E0FF9029
:1072AB000001E0600514F00273AE900001740FF062
:1072BB00900131E07009309404C2948002D2949012
:1072CB000152E0FCA3E0FDA3E0FEA3E02401FFE4F8
:1072DB003EFEE43DFDE43CFC9001521235EEE556DA
:1072EB007012855456E55520E00543550180075330
:1072FB0055FE80021556900000E014603114604C6E
:10730B00146067147003027393240460030273AE5A
:10731B00C2ECE55520E005E55320E7058541C0802B
:10732B000375C000D2E89000007401F08075C2E8CC
:10733B00E55520E005E55320E6058542C080037541
:10734B00C000D2E99000007402F08057C2E9E55505
:10735B0020E005E55320E5058543C0800375C0009B
:10736B00D2EA9000007403F08039C2EAE55520E0C0
:10737B0005E55320E4058544C0800375C000D2EBBE
:10738B009000007404F0801BC2EBE55520E005E58E
:10739B005320E3058545C0800375C000D2EC9000F7
:0373AB0000E4F00B
:0B73AE00D0D0D082D083D0F0D0E032ED
:0B832300900253EBF0A3EAF0A3E9F096
:10832E00E4A3F0A3F0FD900253E0FBA3E0FAA3E078
:10833E002406F9E43AFAED7E0029F9EE3AFA123300
:10834E00366076900257F0ED2407FFEE33FE900272
:10835E0053A3E0FAA3E0F98F828E8312334FFC9081
:10836E000257E0642E604E90001712334FFF9002BA
:10837E0056E0FEC39F503EEC642E600EEC642C6003
:10838E0009EC643A6004ECB43B0D900257E0907037
:10839E001F93FC44808008900257E090701F9390CA
:1083AE000257F0900257E08E827583001233C1900F
:0983BE000256E004F00D028334C4
:0183C7002293
:1050E000E4900158F0A3F090015CF0A3F0A3F0A3CA
:1050F000F07D01FF128CA27D017F01128CA27D0147
:105100007F02128CA27D017F03128CA27D017F049D
:10511000128CA27D017F05128CA2E4FF12967BE522
:105120008730E42E7F207E001293E590015AEEF046
:10513000A3EFF0E004F0700690015AE004F0900153
:105140005AE0FCA3E0FD7F207E001293875387EF97
:1051500080297F227E001293E590015AEEF0A3EFA2
:10516000F0E004F0700690015AE004F090015AE07B
:10517000FCA3E0FD7F227E001293877F047E001255
:10518000935D900006EFF0E4F541F542F543F544F8
:10519000F5457554C8F55375CA1E75CBFFD2AD756C
:1051A000B710D2BDD2CA7558059000CE04F07F0565
:1051B000126D1F7F0A126D1F90022574FFF0A374F9
:1051C0006FF0A374C0F0A374FFF0A37470F0A37425
:1051D00013F07B007A0079471256537F0A126DC58F
:1051E000E4FBFA7D637F02126DFF90022574FFF0ED
:1051F000A3746FF0A374C3F07B007A007947125652
:10520000537F0A126DC5E4FBFA7D637F02126DFFC6
:1052100090022574FFF0A3746FF0A374CAF090702D
:1052200019E493FF740193900228CFF0A3EFF0905C
:10523000701BE493FF74019390022ACFF0A3EFF068
:1052400090701DE493FF74019390022CCFF0A3EFB4
:10525000F07B007A0079471256537B007A00794739
:105260001295A2C3EF9407EE6480948050377B00C0
:105270007A0079471295A290015AEEF0A3EFF090D0
:10528000015AE0FEA3E0FFC39407EE9400501374AC
:10529000472FF87620E004F070E590015AE004F022
:1052A00080DDE4F54E7F0A126DC5E4FBFA7D637F75
:1052B00002126DFF900006E0FF90015AE4F0A3EFA8
:1052C000F090022574FFF0A3746FF0A374D3F07B09
:1052D000007A0079471256537F0A126DC5E4FBFA33
:1052E0007D637F02126DFF90022574FFF0A3746F3F
:1052F000F0A374DAF090015AE0FFA3E0900228CF07
:10530000F0A3EFF07B007A0079471256537F0A1220
:105310006DC5E4FBFA7D637F02126DFF7F317E0075
:1053200012935D90008EE4F0A3EFF07F307E0012C8
:10533000935D900063EFF07F327E0012935DEF90FB
:10534000008CF0A3E4F07F33FE12935D900081EFB8
:10535000F07F347E0012935D90007CEFF07F357E0D
:105360000012935D900092EFF07F367E0012935D05
:10537000900094EFF0E490007FF07F41FE12935D87
:105380009000C5E4F0A3EFF07F407E0012935D90A3
:10539000009AEFF07F427E0012935DEF9000C3F021
:1053A000A3E4F07F43FE12935D9000B8EFF07F44DA
:1053B0007E0012935D9000B3EFF07F457E00129364
:1053C0005D9000C9EFF07F467E0012935D9000CBA8
:1053D000EFF09000B67401F0E490015AF0A3F09061
:1053E000015AE0FEA3E0FFC39402EE9400400302E2
:1053F000549A90006375F037EF12364FEE75F03720
:10540000A42583F583E01460191460251460312409
:1054100003705090022574FFF0A3746FF0A374DE44
:10542000802B90022574FFF0A3746FF0A374E880C2
:105430001C90022574FFF0A3746FF0A374F2800D2A
:1054400090022574FFF0A3746FF0A374FCF0900138
:105450005BE02401FE90015AE03400900228F0A3A2
:10546000CE800D90022574FFF0A37470F0A3740633
:10547000F07B007A0079471256537F0A126DC5E41B
:10548000FBFA7D637F02126DFF90015BE004F07018
:105490000690015AE004F00253DF90022574FFF0F9
:1054A000A37470F0A3740DF07B007A007947125654
:1054B000537F0A126DC5E4FBFA7D637F02126DFF14
:1054C0007F0B126D1F129460E4FBFA7D327F021293
:1054D0006DFFD29C9001047401F07F09126D1F7F53
:1054E00007126D1F7F08126D1F7E007F077D40121F
:1054F0008B57900008E0FFB4300F900009E0B43003
:105500000890000AE06430602B1282EBEFC454F084
:10551000900158F0900009E0FF1282EB900158E0F2
:105520002FF0900006E0FF900159F0900158E0FE46
:10553000EFB506B5E4900158F0A304F0900159E0EE
:10554000FFD3944050A374072FF582E43400F58311
:10555000E0FCB40332900159E0D394024029E0FF0B
:105560002406F582E43400F583E0FE900158E0C3A0
:105570009EFD74052FF582E43400F583E0FEC3ED53
:105580009E900158F0800C900158E02CF0A3E004AC
:10559000F080A9AF061282EBEF75F010A4FFAEF019
:1055A000C006C007900159E02406F582E43400F5F6
:1055B00083E0FF1282EBEFFDD0E02DFFD0E034005E
:1055C000FE900158E06F7001EE60030254E9E49030
:1055D0000104F0C29C7B0190016304F0A37400F00D
:0E55E000A374CFF07A00790712002E0254E96E
:0C964500E4FBFA7D0A7F80126DFF80F4C8
:0C965100E4FBFA7D5A7F02126DFF80F4EA
:1089F4007B017A0179059001B4E4F0A304F0E4FD6D
:108A04001279EA7B017A0179059001B4E4F0A304B8
:108A1400F0FD1279EA7B017A0179059001B4E4F062
:108A2400A37403F07D021279EA7B017A017905903F
:108A340001B4E4F0A37403F0FD1279EAE49001AF09
:108A4400F09001AFE0FDC3940450117B017A0179E9
:108A540005124A009001AFE004F080E5E4FBFA7DE2
:088A6400027F80126DFF80D437
:1078FB007F317E0012935D90008EE4F0A3EFF07F5A
:10790B00307E0012935D900063EFF07F327E0012A9
:10791B00935DEF90008CF0A3E4F07F33FE12935D48
:10792B00900081EFF07F347E0012935D90007CEF2E
:10793B00F07F357E0012935D900092EFF0A3F07F05
:10794B00367E0012935D900094EFF0E490007FF090
:10795B007F41FE12935D9000C5E4F0A3EFF07F40F2
:10796B007E0012935D90009AEFF07F427E0012939F
:10797B005DEF9000C3F0A3E4F07F43FE12935D90A4
:10798B0000B8EFF07F447E0012935D9000B3EFF0F0
:10799B007F457E0012935D9000C9EFF0A3F07F4608
:1079AB007E0012935D9000CBEFF09000B67401F067
:1079BB00FB7A00795E1278027B017A007995127856
:1079CB00027B017A00795E128FC57B017A00799573
:0F79DB00128FC5E4FBFA7D0A7F02126DFF80E276
:107C8600E49001DBF0A3F0A3F0A3F0A3F0A3F0A32C
:107C9600F0A3F0A3F0FF9001E7F0A37400F0A37443
:107CA60041F0A37401F0A37400F0A3745EF07B01AD
:107CB6007A0079471286C2E4FFFE12935DEF540301
:107CC600FF9001E77401F0A37401F0A37405F0A31B
:107CD600E4F0A37400F0A37441F0A37401F0A3745C
:107CE60000F0A37447F0A374FFF0A37490F0A3749C
:107CF60026F0A374FFF0A37493F0A3745DF0A3E4DD
:107D0600F0A3EFF07B007A007925127BA87F0E7E28
:107D16000012935DEF60069000E4E070277B007A26
:107D26000079257D011220E6E526452560119000A3
:107D36004AE4F0A37414F090005D7401F08005E449
:107D460090005DF07B017A00794712630DE4FBFA3F
:097D56007D0A7F02126DFF80B46A
:1088EF00E4FF7B0190021C04F0A37401F0A3740554
:1088FF00F01BA3EBF0A37400F0A37425F0A3EBF02F
:10890F00A37400F0A37441F00BA3EBF0A37400F079
:10891F00A37447F0A3EBF0A37400F0A3745EF0A36D
:10892F0074FFF0A37490F0A37426F0A374FFF0A368
:10893F007493F0A3745DF0E4A3F0A3F07A0079CF01
:10894F0012711FE4900059F0A3F0FFE52645257042
:10895F00097B017A0079CF12138DE4FBFA7D0A7F30
:06896F0080126DFF80E59F
:10943800E4FBFAFD7F01126DFF7F0A126DA87B0025
:109448007A007941128323E4FBFA7D057F02126DCD
:08945800FF7F0B126DC580D8E7
:10932200E4900258F07F0A126DC5E4FBFA7D057FD6
:1093320002126DFFE4FBFAFD7F01126DFF7F0B123B
:109342006DA87F0A126DC5E4FBFA7D057F02126DDE
:03935200FF80E1B8
:09967200EF7003C29422D294228D
:09967B00EF7003C29322D2932286
:09968400EF7003C29322D293227D
:10952A00EF14600C047011ED6003D29022C29022F5
:09953A00ED6003D29622C29622D4
:10954300EF14600C047011ED6003D29522C29522D2
:09955300ED6003D29722C29722B9
:108CA200EFB408005066908CAFF8282873028CC786
:108CB200028CD0028CD9028CE2028CEB028CF40280
:108CC2008CFD028D06ED7003C2ED22D2ED22ED7015
:108CD20003C2EE22D2EE22ED7003C2EF22D2EF22C5
:108CE200ED7003C2A422D2A422ED7003C2A322D249
:108CF200A322ED7003C2A222D2A222ED7003C2A16E
:0D8D020022D2A122ED7003C2A022D2A02235
:10915A00EFB408005041909167F828287302917F74
:10916A0002918302918702918B02918F029193025D
:10917A00919702919BA2ED801AA2EE8016A2EF802F
:10918A0012A2A4800EA2A3800AA2A28006A2A18093
:0A919A0002A2A0E433FF227F0122AD
:1094A900EF14600E14600F14601024037012A2A54B
:1094B900800AA2A68006A2A78002A291E433FF2215
:0394C9007F0122FE
:1095B700EF14600704700AA2908002A296E433FFBA
:0495C700227F0122DC
:1095CB00EF14600704700AA2958002A297E433FFA0
:0495DB00227F0122C8
:09968D00EF7003C29522D2952270
:09969600EF7003C29022D2902271
:0696B100A295E433FF2244
:0696B700A290E433FF2243
:09969F00EF7003C29722D297225A
:0996A800EF7003C29622D2962253
:0696BD00A297E433FF2236
:0696C300A296E433FF2231
:1081A6004102D0004102D3004102D2FF4102CE007B
:1081B6004102D1004102CFFFC11DC11CC11E4102B7
:0281C600D400E3
:1092E700201D37C2AC201C09201E06D21C8F998076
:1092F700279002D3E0FE04F0EE7C00541F24AEF565
:1093070082EC3402F583EFF09002D0E0FF9002D3B5
:0B931700E06F541F7002D21DD2AC2288
:1093B600900252EFF0301D19126DEC9002D2EFF0D0
:1093C600E4FBFAFD7F01126DFF9002D274FFF0807C
:0F93D600E4900252E0FF1292E7900252E0FF2271
:1092AA009002CEE0FF9002D1E0B50719126DEC9062
:1092BA0002CFEFF0E4FBFAFD7F01126DFF9002CFBF
:1092CA0074FFF080DB9002CEE0FF04F07E00EF54E2
:0C92DA000F249EF582EE3402F583E0FFC5
:0192E6002265
:03002300027D5FFC
:0D7D5F00C0E0C0F0C083C082C0D075D0105D
:107D6C00309858900259E599F0C298309C4D90018A
:107D7C0004E06047900259E0B40305E4FF126DEF94
:107D8C009002CEE02410FFE433FE9002D1E06F703D
:107D9C0001EE601C900259E0FF9002D1E0FE04F06D
:107DAC00EE7C00540F249EF582EC3402F583EFF048
:107DBC009002CFE0FFF46003126DC530995AC2995E
:107DCC00D2209002D4E0B4010EE4F0FF12967B9026
:107DDC0001047401F0D29C9002D3E0FF9002D0E039
:107DEC006F6033E0FF04F07E00EF541F24AEF58289
:107DFC00EE3402F583E0900259F0E0FFB4030690F4
:107E0C0002D47401F08F99C21D9002D2E0FFF4608D
:087E1C0007126DC58002C21CB3
:0B7E2400D0D0D082D083D0F0D0E0326C
:10946000E4FF759850438921758DFAD28E7E109055
:10947000029EE4F0A3DEFCE4FF7E209002AEE4F066
:05948000A3DEFCD2ACEC
:0194850022C4
:1076020000316253C4F5A697B988DBEA7D4C1F2E80
:107612004372211087B6E5D4FACB98A93E0F5C6D70
:1076220086B7E4D5427320113F0E5D6CFBCA99A860
:10763200C5F4A796013063527C4D1E2FB889DAEB50
:107642003D0C5F6EF9C89BAA84B5E6D74071221340
:107652007E4F1C2DBA8BD8E9C7F6A5940332615030
:10766200BB8AD9E87F4E1D2C02336051C6F7A49520
:10767200F8C99AAB3C0D5E6F4170231285B4E7D610
:107682007A4B1829BE8FDCEDC3F2A1900736655400
:1076920039085B6AFDCC9FAE80B1E2D344752617F0
:1076A200FCCD9EAF38095A6B4574271681B0E3D2E0
:1076B200BF8EDDEC7B4A192806376455C2F3A091D0
:1076C2004776251483B2E1D0FECF9CAD3A0B5869C0
:1076D20004356657C0F1A293BD8CDFEE79481B2AB0
:1076E200C1F0A3920534675678491A2BBC8DDEEFA0
:1076F20082B3E0D1467724153B0A5968FFCE9DAC90
:108DE9009001BEE0FBA3E0FAA3E0F990001F123363
:028DF9004FFF2A
:108DFB00E4FEAD07ED548060010EAD07ED5440600D
:108E0B00020E0EAD07ED5420600474042EFEAD0768
:108E1B00ED5410600474082EFEAD07ED5408600489
:108E2B0074102EFEAD07ED5404600474202EFEADBD
:108E3B0007ED5402600474402EFEAD07ED54016043
:078E4B000474802EFEAF0647
:018E520022FD
:1087E100900025741E1233C1900032E4F5F0123569
:1087F1002F900024E41233C190001FE41233C19082
:108801000020E41233C190001AE41233C190001B1E
:10881100E41233C190001CE41233C19000061236F9
:108821002B0000000090000A12362B00000000907F
:10883100000E12362B0000000090001212362B00A1
:1088410000000090001DE41233C190002312334F49
:108851009000221233C190002E12348BFF90002C15
:07886100E5F08FF002352F56
:10950C009001C1EFF0FD9001BEE0FBA3E0FAA3E0F7
:01951C00F955
:0D951D0090001F12334F6D90760293FF22D5
:0D8505009001C8E0FBA3E0FAA3E0F9E4FD5B
:0E8512009001D6EBF0A3EAF0A3E9F0A3EDF0A0
:1085200090002112334FFF129543E49001DAF0904E
:1085300001D6E0FBA3E0FAA3E0F990002112334F4B
:10854000FF1295CB9001D6E0FBA3E0FAA3E0F990EF
:10855000002512334FFE9001DAE0C39E501E9001B9
:10856000D9E06F6006A3E004F080C4E92430F9E4A8
:108570003AFA123460FFE5F054FB80189001D6E01F
:10858000FBA3E0FAA3E02430F9E43AFA123460FFE6
:09859000E5F044048FF0123510EF
:0185990022BF
:0D859A009001CEE0FBA3E0FAA3E0F97D0123
:0E85A7009001D1EBF0A3EAF0A3E9F0A3EDF010
:1085B50090002112334FFF12952AE49001D5F090D7
:1085C50001D1E0FBA3E0FAA3E0F990002112334FBB
:1085D500FF1295B79001D1E0FBA3E0FAA3E0F99073
:1085E500002512334FFE9001D5E0C39E501E900129
:1085F500D4E06F6006A3E004F080C4E92430F9E418
:108605003AFA123460FFE5F054F780189001D1E092
:10861500FBA3E0FAA3E02430F9E43AFA123460FF50
:09862500E5F044088FF012351055
:01862E002229
:1091A4009001BEE0FBA3E0FAA3E02430F9E43AFA2C
:1091B400123460FFE5F054EF8FF01235109001BEC9
:0F91C400E0FBA3E0FAA3E0F990001DE41233C131
:1091D3009001D61235FA00000000126C55E4FBFA38
:0791E3007D017F02026DFF18
:0B8EB7009001D1EBF0A3EAF0A3E9F07A
:108EC20090002112334FFF7D0112952A9001D11299
:108ED20085081291D39001D4E4F0A304F09001D15B
:108EE200E0FBA3E0FAA3E0F97D011285121291D30F
:108EF2009001D11285081291D39001D5E004F0704F
:108F0200069001D4E004F09001D4E07004A3E06480
:038F12002870CAFA
:018F15002239
:108868009001CEEBF0A3EAF0A3E9F09001CEE0FB93
:10887800A3E0FAA3E0F9128EB79001CEE0FBA3E0E3
:10888800FAA3E0F990002112334FFF7D0112952AD7
:1088980012859A1291D39001CEE0FBA3E0FAA3E0EF
:1088A800F97D011285121291D39001CEE0FBA3E06D
:1088B800FAA3E0F9E4FD1285A71291D39001CE1234
:1088C80085081291D39001CEE0FBA3E0FAA3E0F96A
:1088D8007D011285121291D312859A1291D39001BB
:0788E800CE1285080291D3B6
:1066E4009001BEE0FBA3E0FAA3E0F9900020EF12D2
:0466F40033C17D1E13
:1066F8009001CBEDF09001C8EBF0A3EAF0A3E9F02C
:106708001288689001CBE0A3F05480F09001C87023
:106718000CE0FBA3E0FAA3E0F9E4FD800AE0FBA3A8
:10672800E0FAA3E0F97D011285A71291D39001C880
:10673800E0FBA3E0FAA3E0F97D011285121291D3E0
:106748001285051291D39001CBE0A3F05440F0904C
:1067580001C8700CE0FBA3E0FAA3E0F9E4FD800AAD
:10676800E0FBA3E0FAA3E0F97D011285A71291D31B
:106778009001C8E0FBA3E0FAA3E0F97D01128512BD
:106788001291D31285051291D39001CBE0A3F05456
:1067980020F09001C8700CE0FBA3E0FAA3E0F9E454
:1067A800FD800AE0FBA3E0FAA3E0F97D011285A7CA
:1067B8001291D39001C8E0FBA3E0FAA3E0F97D01B0
:1067C8001285121291D31285051291D39001CBE054
:1067D800A3F05410F09001C8700CE0FBA3E0FAA3FA
:1067E800E0F9E4FD800AE0FBA3E0FAA3E0F97D010B
:1067F8001285A71291D39001C8E0FBA3E0FAA3E0A9
:10680800F97D011285121291D31285051291D39048
:1068180001CBE0A3F05408F09001C8700CE0FBA392
:10682800E0FAA3E0F9E4FD800AE0FBA3E0FAA3E0C4
:10683800F97D011285A71291D39001C8E0FBA3E06E
:10684800FAA3E0F97D011285121291D3128505127F
:1068580091D39001CBE0A3F05404F09001C8700CE0
:10686800E0FBA3E0FAA3E0F9E4FD800AE0FBA3E083
:10687800FAA3E0F97D011285A71291D39001C8E02F
:10688800FBA3E0FAA3E0F97D011285121291D3125D
:1068980085051291D39001CBE0A3F05402F090014A
:1068A800C8700CE0FBA3E0FAA3E0F9E4FD800AE07D
:1068B800FBA3E0FAA3E0F97D011285A71291D3901A
:1068C80001C8E0FBA3E0FAA3E0F97D0112851212EA
:1068D80091D31291D31285051291D39001CBE0A3E5
:1068E800F05401F09001C8700CE0FBA3E0FAA3E0BB
:1068F800F9E4FD800AE0FBA3E0FAA3E0F97D0112C8
:1069080085A71291D39001C8E0FBA3E0FAA3E0F9B0
:106918007D011285121291D39001C8E0FBA3E0FA21
:10692800A3E0F990002112334FFF7D0112952A123E
:1069380091D31285051291D39001C8E0FBA3E0FA28
:10694800A3E0F990002112334FFF1295B79001CDC3
:10695800EFF09001C8E0FBA3E0FAA3E0F97D011293
:1069680085121291D31285051291D31291D31291E7
:0F697800D31291D39001CDE060037F01227F0005
:0169870022ED
:0D6988009001BEE0FBA3E0FAA3E0F9E4FDFE
:106995009001CBEDF09001C8EBF0A3EAF0A3E9F08C
:1069A500E49001CCF07D011285129001C8E0FBA3B3
:1069B500E0FAA3E0F990002112334FFF1295B7AE2C
:1069C50007EEB401079001CCE04480F01291D3901A
:1069D50001C81285081291D39001C8E0FBA3E0FA23
:1069E500A3E0F97D011285129001C8E0FBA3E0FA4E
:1069F500A3E0F990002112334FFF1295B7AE07EED1
:106A0500B401079001CCE04440F01291D39001C845
:106A15001285081291D39001C8E0FBA3E0FAA3E028
:106A2500F97D011285129001C8E0FBA3E0FAA3E00D
:106A3500F990002112334FFF1295B7AE07EEB4015E
:106A4500079001CCE04420F01291D39001C8128543
:106A5500081291D39001C8E0FBA3E0FAA3E0F97D09
:106A6500011285129001C8E0FBA3E0FAA3E0F990BA
:106A7500002112334FFF1295B7AE07EEB401079010
:106A850001CCE04410F01291D39001C81285081290
:106A950091D39001C8E0FBA3E0FAA3E0F97D0112D0
:106AA50085129001C8E0FBA3E0FAA3E0F99000216C
:106AB50012334FFF1295B7AE07EEB401079001CC24
:106AC500E04408F01291D39001C81285081291D3C1
:106AD5009001C8E0FBA3E0FAA3E0F97D011285125D
:106AE5009001C8E0FBA3E0FAA3E0F990002112337E
:106AF5004FFF1295B7AE07EEB401079001CCE04405
:106B050004F01291D39001C81285081291D3900117
:106B1500C8E0FBA3E0FAA3E0F97D0112851290011C
:106B2500C8E0FBA3E0FAA3E0F990002112334FFF80
:106B35001295B7AE07EEB401079001CCE04402F020
:106B45001291D39001C81285081291D39001C8E023
:106B5500FBA3E0FAA3E0F97D011285129001C8E0DC
:106B6500FBA3E0FAA3E0F990002112334FFF129541
:106B7500B7AE07EFB401079001CCE04401F01291E4
:106B8500D39001C81285089001CBE09001C8B401EB
:106B950013E0FBA3E0FAA3E0F990002112334FFFC5
:106BA5007D018011E0FBA3E0FAA3E0F9900021123A
:106BB500334FFFE4FD12952A1291D39001C8E0FBF3
:106BC500A3E0FAA3E0F97D011285121291D3900199
:106BD500C81285089001C8E0FBA3E0FAA3E0F9908C
:106BE500002112334FFF7D0112952A1291D3900196
:036BF500CCE0FFF2
:016BF800227A
:0B910D009001BEE0FBA3E0FAA3E0F934
:109118009001C8EBF0A3EAF0A3E9F09001C8E0FBE6
:10912800A3E0FAA3E0F990002112334FFF7D01126A
:10913800952AE4FBFA7D017F02126DFF9001C8E0D9
:10914800FBA3E0FAA3E0F990002112334FFF129538
:02915800B7223C
:0F960E007F1E7D1E1266F89002EEEFF00291D3E0
:0B4143009001BEEBF0A3EAF0A3E9F04E
:10414E0090002412334FD3940840129001BEE0FB2E
:10415E00A3E0FAA3E0F9900024E41233C19001BE6B
:10416E00E0FBA3E0FAA3E0F990003012348B20E0DC
:10417E004FE92430F9E43AFA123460FFE5F054FEC8
:10418E008FF01235109001BEE0FBA3E0FAA3E0F928
:10419E0090003012348B20E11490000612362B0062
:1041AE0000000090000A12362B000000009001BEA5
:1041BE00E0FBA3E0FAA3E0F990002474081233C1E7
:1041CE009001BEE0FBA3E0FAA3E0F99000241233C5
:1041DE004FB4090040030249FF9041EEF8282873BE
:1041EE0002420902433A02436B0245300245A502E0
:1041FE0046160246500249B70249E490000E1235A7
:10420E006A9000061235BE12305860030242A69024
:10421E0001BEE0FBA3E0FAA3E0F990002E12348B6E
:10422E00FFAEF04E607290002C12348B45F0600D94
:10423E0090002C74FFF5F01234C30242E29001BEDE
:10424E00E0FBA3E0FAA3E0F990002CEE8FF012351C
:10425E002FE92430F9E43AFA123460FFE5F0440213
:10426E00FE8FF0123510EE54FE8FF01235109001C5
:10427E00BEE0FBA3E0FAA3E0F990003012348B20ED
:10428E00E15290000612362B0000000090000A1238
:10429E00362B00000000803C9001BEE0FBA3E0FA4C
:1042AE00A3E0F990000612356A90000E12359A902E
:1042BE00002E12348BFF90002CE5F08FF012352F6C
:1042CE00E92430F9E43AFA123460FFE5F054FD8F38
:1042DE00F01235109001BEE0FBA3E0FAA3E0F990D6
:1042EE00001FE41233C19001C17403F0FD1266F891
:1042FE009001C3EFF01291D39001BEE0FBA3E0FA60
:10430E00A3E0F9A3E0FD12951D9001BEE0FBA3E032
:10431E00FAA3E0F990001FEF1233C1900032E4F5DA
:10432E00F012352F90002474010245FD12910DEF0D
:10433E0060189001BEE0FBA3E0FAA3E0F990002222
:10434E0012334F7002800E0246379001BEE0FBA37F
:10435E00E0FAA3E0F990002474020249FC12910DD8
:10436E00EF605B9001BEE0FBA3E0FAA3E0F99000E2
:10437E001E12334FFF90001D12334FC39F500F90EC
:10438E00001D740112337C900024E40249FC90015C
:10439E00BEE0FBA3E0FAA3E02430F9E43AFA1234CB
:1043AE0060FFE5F044108FF01235109001BEE0FB77
:1043BE00A3E0FAA3E0F990002474030249FC1291E1
:1043CE00A412698812950C9001BEE0FBA3E0FAA33B
:1043DE00E0F990001FEF1233C11291D31291D31254
:1043EE0069889001C212950F9001BEE0FBA3E0FA1E
:1043FE00A3E0F990001FEF1233C17D0112699512EF
:10440E0066E49001C3EFF01291D39001BEE0FBA3DE
:10441E00E0FAA3E0F990003012348BE5F054FE6020
:10442E002A90001B740112337C90001B12334FD361
:10443E0094149001BEE0FBA3E0FAA3E0F9900024EF
:10444E00400574030249FCE40249FC128DE9900117
:10445E00BEE0FBA3E0FAA3E0F990002012334F6F09
:10446E00600890002474030249FC90000512334F3B
:10447E00FBB402059001C48010EB9001C4B4030993
:10448E001235FA4080000080071235FA3F80000096
:10449E009001C1E0FEA3E07C002400FDEC3EFCE4B4
:1044AE001230CAC004C005C006C0077F0A7ED77D81
:1044BE00237C3C9001C4E0F8A3E0F9A3E0FAA3E06A
:1044CE00FB122EB2D003D002D001D000122EB2E4D5
:1044DE00FBFA792078C2122DC19001C41235EE90EC
:1044EE0001C4E0FCA3E0FDA3E0FEA3E0FF9001BE4B
:1044FE00E0FBA3E0FAA3E0F990001612359A9000C3
:10450E001AE41233C190001BE41233C190001CE474
:10451E001233C190001DE41233C1900024740402C2
:10452E0049FC9001BEE0FBA3E0FAA3E0F990001A6B
:10453E00E41233C190001BE41233C190001CE4124C
:10454E0033C190001DE41233C190001DE41233C13B
:10455E00900024E41233C1E92430F9E43AFA12341B
:10456E0060FFE5F054FE8FF01235109001BEE0FBB7
:10457E00A3E0FAA3E0F990003012348B30E103028D
:10458E0049FF90000612362B0000000090000A1220
:10459E00362B0000000022126C559001BEE0FBA3EA
:1045AE00E0FAA3E0F990001FE41233C19001C17448
:1045BE0005F0FD1266F89001C3EFF01291D3900151
:1045CE00BEE0FBA3E0FAA3E0F9A3E0FD12951D9077
:1045DE0001BEE0FBA3E0FAA3E0F990001FEF123357
:1045EE00C1900032E4F5F012352F900024740512BC
:1045FE0033C190002312334F9000221233C1E4FBDB
:10460E00FA7D0A7F02026DFF12910DEF602190017B
:10461E00BEE0FBA3E0FAA3E0F990002212334F7044
:10462E000890002474060249FC9000220249CD90A5
:10463E0001BEE0FBA3E0FAA3E0F9900024740602A9
:10464E0049FC12910DEF605C9001BEE0FBA3E0FA15
:10465E00A3E0F990001E12334FFF90001D12334F4E
:10466E00C39F501090001D740112337C900024746F
:10467E00040249FC9001BEE0FBA3E0FAA3E0243063
:10468E00F9E43AFA123460FFE5F044108FF0123577
:10469E00109001BEE0FBA3E0FAA3E0F990002474B1
:1046AE00030249FC1291A412698812950C9001BE66
:1046BE00E0FBA3E0FAA3E0F990001FEF1233C11262
:1046CE0091D31291D31269889001C212950F900165
:1046DE00BEE0FBA3E0FAA3E0F990001FEF1233C196
:1046EE007D011269951266E49001C3EFF01291D329
:1046FE009001BEE0FBA3E0FAA3E0F9900030123483
:10470E008BE5F054FE602A90001B740112337C90EE
:10471E00001B12334FD394149001BEE0FBA3E0FABA
:10472E00A3E0F9900024400574030249FCE4024919
:10473E00FC128DE99001BEE0FBA3E0FAA3E0F99034
:10474E00002012334F6F6007900024E40249FC9062
:10475E00001612356A90000612359A900005123333
:10476E004F640360030248199001C1E0FEA3E07C90
:10477E00002400FDEC3EFCE41230CA7B627ABE7966
:10478E003C783A122EB2C004C005C006C007900194
:10479E00C1E0FEA3E07C002400FDEC3EFCE4123000
:1047AE00CAD003D002D001D000122EB2C004C00570
:1047BE00C006C0079001C1E0FEA3E07C002400FD0E
:1047CE00EC3EFCE41230CA7B547AE37925783F1232
:1047DE002EB2E4FBFA798078C0122DC1D003D0023C
:1047EE00D001D000122DBD9001C41235EE9001C142
:1047FE00E0FEA3E07C002400FDEC3EFCE41230CA97
:10480E007BAC7AC579A7783A0248CC9001BEE0FB22
:10481E00A3E0FAA3E0F990000512334F6402900171
:10482E00C1E0FEA3E07C002400FDEC3EFCE412306F
:10483E00CA7BA27AE7793B7836122EB2C004C00545
:10484E00C006C0079001C1E0FEA3E07C002400FD7D
:10485E00EC3EFCE41230CAD003D002D001D00012DC
:10486E002EB2C004C005C006C0079001C1E0FEA371
:10487E00E07C002400FDEC3EFCE41230CA7B547A4E
:10488E00E37925783D122EB2E4FBFA798078C012D6
:10489E002DC1D003D002D001D000122DBD9001C485
:1048AE001235EE9001C1E0FEA3E07C002400FDEC89
:1048BE003EFCE41230CA7BAC7AC579A77838122E4A
:1048CE00B27B0A7AD77923783C122DC1C004C00579
:1048DE00C006C0079001BEE0FBA3E0FAA3E0F9908A
:1048EE00000612356AE4FBFA79C878C1122DC1D0E0
:1048FE0003D002D001D000122EB29001C4E0F8A372
:10490E00E0F9A3E0FAA3E0FB122DC19001C4123529
:10491E00EEE4FFFE7DC67C429001C4E0F8A3E0F910
:10492E00A3E0FAA3E0FB123058601940179001BEC5
:10493E00E0FBA3E0FAA3E0F990000A12362B42C680
:10494E000000801F9001C4E0FCA3E0FDA3E0FEA3E5
:10495E00E0FF9001BEE0FBA3E0FAA3E0F990000AAD
:10496E0012359A9001BEE0FBA3E0FAA3E0F99000A5
:10497E001AE41233C190001BE41233C190001CE400
:10498E001233C1E92430F9E43AFA123460FFE5F04B
:10499E0044018FF01235109001BEE0FBA3E0FAA3A4
:1049AE00E0F9900024740780459001BEE0FBA3E07F
:1049BE00FAA3E0F990003512334F60089000357479
:1049CE00FF02337C90003412334F9000351233C106
:1049DE00900024E480189001BEE0FBA3E0FAA3E06F
:1049EE00F990003012348B30E007900024E412333B
:0149FE00C1F7
:0149FF002295
:108AE20025322E30662025322E3066002D2D2D2D7A
:108AF2002D0025332E3166B0430025332E306672A9
:108B020048002530356275006E6F2E73656E2E003B
:108B1200253162752E5F5F2E5F5F00253162752EF3
:108B220025322E30662E25322E30662E00253162F9
:108B3200752E25322E30662E25322E3066002531D6
:108B420062752E2D2D2E2D2D2E00253162752E2D86
:058B52002D2E2D2D0069
:1086C2009001E4EBF0A3EAF0A3E9F0A3E0FBA3E05E
:1086D200FAA3E0F9C003C002C0019001E4E0FBA3E9
:1086E200E0FAA3E0F990000B1236AB9001EAE0FB4E
:1086F200A3E0FAA3E0F9C003C002C0019001E4E0E4
:10870200FBA3E0FAA3E0F990000E1236AB9001E46D
:10871200E0FBA3E0FAA3E0F9900008E41233C1748D
:10872200071233AF9001E4E0FBA3E0FAA3E0F99073
:108732000003E4F5F012352F90000A741E1233C1C3
:1087420090000A12334F9000091233C1900007E4DF
:038752000233C12E
:10630D009001E4EBF0A3EAF0A3E9F09001E4E0FBE7
:10631D00A3E0FAA3E0F990000312348BFFAEF0F482
:10632D007002EEF470030266E3EF4E600A90000314
:10633D0074FFF5F00234C31233361470030263D6C2
:10634D0014700302643E1470030264A624FC7003EF
:10635D000265111470030266E3240860030266BA35
:10636D0090000E12367B90003012348BE5F09001C8
:10637D00E430E052E0FBA3E0FAA3E0F990000B1249
:10638D00367BE92406F9E43AFAC003C002C0019055
:10639D00022574FFF0A3748AF0A374E2F09001E477
:1063AD00E0FBA3E0FAA3E0F990000E12367B90001B
:1063BD000612356A9002281235EE90000A12356ADF
:1063CD0090022C0266350266BD9001E4E0FBA3E06D
:1063DD00FAA3E0F990000E12367B90003012348B48
:1063ED00E5F09001E430E046E0FBA3E0FAA3E0F92C
:1063FD0090000B12367BE92406F9E43AFAC003C08B
:10640D0002C00190022574FFF0A3748AF0A374F406
:10641D00F09001E4E0FBA3E0FAA3E0F990000E1286
:10642D00367B90000612356A9002280266350266A8
:10643D00BD9001E4E0FBA3E0FAA3E0F990000E1299
:10644D00367B90003012348BE5F09001E430E0465D
:10645D00E0FBA3E0FAA3E0F990000B12367BE924F0
:10646D0006F9E43AFAC003C002C00190022574FF98
:10647D00F0A3748AF0A374FCF09001E4E0FBA3E0B8
:10648D00FAA3E0F990000E12367B90000A12356ADD
:10649D009002280266350266BD9001E4E0FBA3E0A0
:1064AD00FAA3E0F990000B12367BE92406F9E43AE1
:1064BD00FAC003C002C00190022574FFF0A3748BD3
:1064CD00F0A37404F09001E4E0FBA3E0FAA3E0F97B
:1064DD0090000912334F900228F0D001D002D00362
:1064ED001256539001E4E0FBA3E0FAA3E0F990000B
:1064FD000912334F6002801F90000A12334F900033
:10650D00090233C19001E4E0FBA3E0FAA3E0F990A6
:10651D00000912334F600890000974FF02337C901C
:10652D00000A12334F9000091233C1900007123345
:10653D004F9001E4600EE0FBA3E0FAA3E0F99000B8
:10654D0007E4800DE0FBA3E0FAA3E0F990000774E7
:10655D00011233C19001E4E0FBA3E0FAA3E0F9904E
:10656D00000712334F75F037A4FFAEF090000E12F6
:10657D00367BE92FF9EA3EFA90003012348BE5F0C4
:10658D0020E00302663A7F0E7E0012935DEF6402F7
:10659D009001E4702AE0FBA3E0FAA3E0F990000B70
:1065AD0012367BE92406F9E43AFAC003C002C001B1
:1065BD0090022574FFF0A3748BF0A3741D8028E066
:1065CD00FBA3E0FAA3E0F990000B12367BE9240659
:1065DD00F9E43AFAC003C002C00190022574FFF03D
:1065ED00A3748BF0A3742FF09001E4E0FBA3E0FA09
:1065FD00A3E0F990000712334FFF04900228F0EF4B
:10660D0075F037A4FFAEF090000E12367BE92FF92E
:10661D00EA3EFA90000612356A9002291235EE9084
:10662D00000A12356A90022D1235EE80787F0E7EAB
:10663D000012935DEF64029001E4702AE0FBA3E089
:10664D00FAA3E0F990000B12367BE92406F9E43A3F
:10665D00FAC003C002C00190022574FFF0A3748B31
:10666D00F0A374408028E0FBA3E0FAA3E0F99000CA
:10667D000B12367BE92406F9E43AFAC003C002C0D6
:10668D000190022574FFF0A3748BF0A3744CF0906D
:10669D0001E4E0FBA3E0FAA3E0F990000712334F09
:1066AD0004900228F0D001D002D00380269001E49E
:1066BD00E0FBA3E0FAA3E0F990000B12367BE9248E
:1066CD0006F9E43AFA90022574FFF0A3748AF0A358
:0766DD0074EEF01256532287
:1091EA0053455455500061647220200020202530D8
:1091FA003358002025303475006461746120007290
:10920A0065736574002020202530325800202025FF
:10921A00303375006E6578742000202020202000ED
:107BA8009001E4EBF0A3EAF0A3E9F09001EAE0FB2E
:107BB800A3E0FAA3E0F9C003C002C0019001E4E029
:107BC800FBA3E0FAA3E0F99000051236AB9001EDB3
:107BD800E0FBA3E0FAA3E0F9C003C002C0019001F2
:107BE800E4E0FBA3E0FAA3E0F99000081236AB90BA
:107BF80001F3E0FBA3E0FAA3E0F9C003C002C0016F
:107C08009001E4E0FBA3E0FAA3E0F9900016123635
:107C1800AB9001F0E0FBA3E0FAA3E0F9C003C002D7
:107C2800C0019001E4E0FBA3E0FAA3E0F990001999
:107C38001236AB9001E7E0FBA3E0FAA3E0F9C0033A
:107C4800C002C0019001E4E0FBA3E0FAA3E0F990D0
:107C580000021236AB9001E4E0FBA3E0FAA3E0F9DE
:107C6800E4F5F01235109001F6A3E0FF9001E4E08E
:0E7C7800FBA3E0FAA3E0F990000BEF0233C18A
:1020E6009001E7EDF09001E4EBF0A3EAF0A3E9F04C
:1020F600123460FFAEF0E5F06003022DB9EF12373F
:1021060004212900220201226002236803282704F1
:1021160028EF052CAB062D750A219E1421E3150028
:10212600002DB99001E4E0FBA3E0FAA3E0F99000EA
:102136000212367B9001E7E075F00BA4FFAEF029A2
:10214600F9EA3EFA90000312348BE5F020E103022F
:102156002DB99001E4E0FBA3E0FAA3E0F9900002B8
:1021660012367BE92FF9EA3EFAE92403F9E43AFA52
:10217600123460547FFFE5F08FF01235109001E4C1
:10218600E0FBA3E0FAA3E0F990000EE4F5F01235C7
:102196002FE475F0140228EC9001E4E0FBA3E0FACA
:1021A600A3E0F990000512367BE92406F9E43AFA31
:1021B60090022574FFF0A37491F0A374EAF012560E
:1021C600539001E4E0FBA3E0FAA3E0F990000CE4ED
:1021D60075F01412352FE475F0150228EC9001E421
:1021E600E0FBA3E0FAA3E0F990000C12348B45F073
:1021F6006003022D8AE475F0010228EC9001E4E008
:10220600FBA3E0FAA3E0F990000512367BE9240669
:10221600F9E43AFA90022574FFF0A37491F0A374DE
:10222600F0F01256539001E4E0FBA3E0FAA3E0F9C4
:1022360090000512367B90001274081233C190018B
:10224600E4E0FBA3E0FAA3E0F990000CE475F014D7
:1022560012352FE475F0020228EC9001E4E0FBA3AE
:10226600E0FAA3E0F990000212367B9001E7E075F0
:10227600F00BA4FFAEF029F9EA3EFA9000031234FF
:102286008B54386003022DB99001E4E0FBA3E0FA19
:10229600A3E0F990000C12348B45F06003022D8AFE
:1022A60090000212367BE92FF9EA3EFAE92403F997
:1022B600E43AFA123460547FFFE5F08FF0123510DD
:1022C6009001E4E0FBA3E0FAA3E0F990000B1233DF
:1022D6004F30E02290000512367BE92406F9E43AF5
:1022E600FAC003C002C00190022574FFF0A37491E6
:1022F600F0A374F6802B9001E4E0FBA3E0FAA3E0E0
:10230600F990000512367BE92406F9E43AFAC0038F
:10231600C002C00190022574FFF0A37491F0A3746B
:10232600FDF09001E4E0FBA3E0FAA3E0F990000ED3
:1023360012348BFF900228E5F0F0A3EFF0D001D025
:1023460002D0031256539001E4E0FBA3E0FAA3E0A7
:10235600F9900014E475F01E12352FE475F00302AF
:1023660028EC9001E4E0FBA3E0FAA3E0F990000278
:1023760012367B9001E7E075F00BA429F9EA35F0F7
:10238600FA90000312348B20E70302268BE924031C
:10239600F9E43AFA123460547FFFE5F08FF0123513
:1023A600109001E4E0FBA3E0FAA3E0F990000B1221
:1023B600334F20E0030224AD90000512367B9000D7
:1023C6001212334FB4082C9001E4E0FBA3E0FAA309
:1023D600E0F990000E12348B540FC3940FE494006E
:1023E60090000E5006E475F001800574FF75F0F15B
:1023F6001234C39001E4E0FBA3E0FAA3E0F99000F5
:102406000512367B90001212334FB410299001E466
:10241600E0FBA3E0FAA3E0F990000E12348B54F02F
:10242600C394F0E4940090000E5003E4800274FF1D
:1024360075F0101234C39001E4E0FBA3E0FAA3E0C8
:10244600F990000512367B90001212334FB4202902
:102456009001E4E0FBA3E0FAA3E0F990000E123449
:102466008BE5F0540FC3940F90000E500474018056
:102476000274F175F0001234C39001E4E0FBA3E0AE
:10248600FAA3E0F990000512367BE92406F9E43A4E
:10249600FAC003C002C00190022574FFF0A3749134
:1024A600F0A374F60226519001E4E0FBA3E0FAA340
:1024B600E0F990000512367B90001212334F640843
:1024C60070439001E4E0FBA3E0FAA3E0F990000E6C
:1024D60012348BFFAEF07C007D0A1233F5C3ED9407
:1024E60009EC9400500990000EE475F001801390F9
:1024F60001E4E0FBA3E0FAA3E0F990000E74FF7597
:10250600F0F71234C39001E4E0FBA3E0FAA3E0F98C
:1025160090000512367B90001212334F6410704300
:102526009001E4E0FBA3E0FAA3E0F990000E123478
:102536008BFFAEF07C007D641233F5C3ED945AEC4C
:102546009400500990000EE475F00A80139001E49F
:10255600E0FBA3E0FAA3E0F990000E74FF75F0A685
:102566001234C39001E4E0FBA3E0FAA3E0F9900083
:102576000512367B90001212334F6420704390018F
:10258600E4E0FBA3E0FAA3E0F990000E12348BFF1F
:10259600AEF07C037DE81233F5C3ED9484EC94032E
:1025A600500990000EE475F06480139001E4E0FB9E
:1025B600A3E0FAA3E0F990000E74FC75F07C1234E7
:1025C600C39001E4E0FBA3E0FAA3E0F99000051252
:1025D600367B90001212334F644070449001E4E061
:1025E600FBA3E0FAA3E0F990000E12348BFFAEF0E5
:1025F6007C277D101233F5C3ED9428EC9423500A02
:1026060090000E740375F0E880139001E4E0FBA3DC
:10261600E0FAA3E0F990000E74DC75F0D81234C32A
:102626009001E4E0FBA3E0FAA3E0F990000512367E
:102636007BE92406F9E43AFAC003C002C00190021D
:102646002574FFF0A37491F0A374FDF09001E4E00B
:10265600FBA3E0FAA3E0F990000E12348BFF900280
:1026660028E5F0F0A3EFF0D001D002D003125653C4
:102676009001E4E0FBA3E0FAA3E0F9900014E4750E
:10268600F01E12352F9001E4E0FBA3E0FAA3E0F977
:1026960090001412348B45F06003022C9A90000BC4
:1026A60012334FFF20E01090000512367B90001287
:1026B60012334F64406025EF20E0030228049001A6
:1026C600E4E0FBA3E0FAA3E0F990000512367B9064
:1026D600001212334F642060030228049001E4E0E4
:1026E600FBA3E0FAA3E0F990000512367B900012F6
:1026F600E41233C19001E4E0FBA3E0FAA3E0F99011
:10270600000E12348BFFAEF0C3EE94085008900111
:10271600E4A3A3E080799001E4E0FBA3E0FAA3E060
:10272600F990000E12348BFFAEF07003EE649060E9
:1027360006BE2347BF28449001E4E0FBA3E0FAA3CA
:10274600E0F990000512367BE92406F9E43AFA909E
:10275600022574FFF0A37492F0A37409F012565385
:102766009001E4E0FBA3E0FAA3E0F990000CE47525
:10277600F01E12352FE475F00A807D9001E4E0FB2F
:10278600A3E0FAA3E0F990000E12348BFFAEF090AE
:10279600001612367B89828A8312375B9001E4E049
:1027A600FBA3E0FAA3E0F9900012E48FF012352FB4
:1027B60090001212348BFF900010E5F08FF0123566
:1027C6002F90000512367BE92406F9E43AFA9002C6
:1027D6002574FFF0A37492F0A37403F0125653907D
:1027E60001E4E0FBA3E0FAA3E0F990000CE475F045
:1027F6000A12352FE475F004123510022C8590016B
:10280600E4E0FBA3E0FAA3E0F990000512367BE9C9
:102816002412F9E43AFA12333625E01233AF022CC9
:10282600859001E4E0FBA3E0FAA3E0F990000C1226
:10283600348B45F06003022D8A90000B12334F3023
:10284600E12290000512367BE92406F9E43AFAC043
:1028560003C002C00190022574FFF0A37492F0A396
:10286600740F802B9001E4E0FBA3E0FAA3E0F9905B
:10287600000512367BE92406F9E43AFAC003C002E1
:10288600C00190022574FFF0A37492F0A37417F0B0
:102896009001E4E0FBA3E0FAA3E0F9900012123401
:1028A6008BFF900228E5F0F0A3EFF0D001D002D024
:1028B600031256539001E4E0FBA3E0FAA3E0F9907B
:1028C6000014E475F01E12352F90000512367B9029
:1028D600001274081233C19001E4E0FBA3E0FAA3EE
:1028E600E0F9E475F0050235109001E4E0FBA3E0A1
:1028F600FAA3E0F990000212367B9001E7E075F04A
:102906000BA429F9EA35F0FA90000312348B20E77C
:1029160003022B70E92403F9E43AFA123460547F77
:10292600FFE5F08FF01235109001E4E0FBA3E0FA2A
:10293600A3E0F990000B12334F20E1030229F19036
:10294600000512367B90001212334FB4082C90010A
:10295600E4E0FBA3E0FAA3E0F990001212348B54F2
:102966000FC3940FE494009000125006E475F00132
:10297600800574FF75F0F11234C39001E4E0FBA307
:10298600E0FAA3E0F990000512367B9000121233AC
:102996004FB410299001E4E0FBA3E0FAA3E0F9901C
:1029A600001212348B54F0C394F0E4940090001299
:1029B6005003E4800274FF75F0101234C39001E4F2
:1029C600E0FBA3E0FAA3E0F990000512367BE924C8
:1029D60006F9E43AFAC003C002C00190022574FF6A
:1029E600F0A37492F0A3740F022B369001E4E0FB7F
:1029F600A3E0FAA3E0F990000512367B90001212CC
:102A0600334F640870439001E4E0FBA3E0FAA3E0CF
:102A1600F990001212348BFFAEF07C007D0A12335F
:102A2600F5C3ED9409EC94005009900012E475F09A
:102A36000180139001E4E0FBA3E0FAA3E0F9900023
:102A46001274FF75F0F71234C39001E4E0FBA3E0C3
:102A5600FAA3E0F990000512367B90001212334F6C
:102A6600641070439001E4E0FBA3E0FAA3E0F99060
:102A7600001212348BFFAEF07C007D641233F5C376
:102A8600ED945AEC94005009900012E475F00A8017
:102A9600139001E4E0FBA3E0FAA3E0F990001274BE
:102AA600FF75F0A61234C39001E4E0FBA3E0FAA39D
:102AB600E0F990000512367B90001212334F642025
